:020000040804EE
:1000000000000320F935040849360408493604087D
:10001000ED2A040849360408EF2A04084936040882
:10002000000000000000000000000000F12A0408A9
:100030004936040800000000F32A0408F52A0408E1
:100040004936040849360408F92A040849360408E0
:100050004936040849360408493604084936040874
:100060004936040849360408493604081B180408B0
:10007000251804082F180408391804084318040820
:100080004D18040857180408611804086B18040870
:1000900077180408831804088F1804089B180408AC
:1000A000A7180408B3180408BF1804084936040840
:1000B0004936040849360408493604084936040814
:1000C00049360408152B0408252B04084936040872
:1000D00049360408352B0408493604084936040813
:1000E000493604084D2B04085D2B04086D2B0408C9
:1000F0007D2B0408493604084936040849360408AB
:10010000493604088D2B040849360408493604088A
:100110004936040849360408493604089D2B04086A
:10012000AD2B04084936040849360408BD2B0408E1
:10013000493604084936040849360408CD2B04081A
:100140004936040849360408DD2B040849360408FA
:100150004936040849360408493604084936040873
:100160004936040849360408493604084936040863
:100170004936040800000000493604080000000069
:1001800049360408ED2B0408FD2B04084936040801
:10019000493604080D2C0408493604084936040879
:1001A0004936040849360408493604084936040823
:1001B00049360408000000001D2C04082D2C0408FA
:1001C000493604080000000049360408312C0408B0
:1001D00049360408493604084936040849360408F3
:1001E00049360408493604084936040849360408E3
:0401F000000000000B
:1001F80010B5054C237833B9044B13B1044800E01B
:1002080000BF0123237010BD84840120000000007A
:10021800E89A050808B5034B1BB10349034800E0F9
:1002280000BF08BD0000000088840120E89A050886
:10023800034613F8012B002AFBD1181A013870471E
:1002480081F0004102E000BF83F0004330B54FEA7F
:1002580041044FEA430594EA050F08BF90EA020FEC
:100268001FBF54EA000C55EA020C7FEA645C7FEA7F
:10027800655C00F0E2804FEA5454D4EB5555B8BFA2
:100288006D420CDD2C4480EA020281EA030382EA13
:10029800000083EA010180EA020281EA0303362DA5
:1002A80088BF30BD11F0004F4FEA01314FF4801C78
:1002B8004CEA113102D0404261EB410113F0004F8A
:1002C8004FEA03334CEA133302D0524263EB430341
:1002D80094EA050F00F0A780A4F10104D5F1200EDF
:1002E8000DDB02FA0EFC22FA05F2801841F100013A
:1002F80003FA0EF2801843FA05F359410EE0A5F10E
:1003080020050EF1200E012A03FA0EFC28BF4CF03E
:10031800020C43FA05F3C01851EBE37101F00045F4
:1003280007D54FF0000EDCF1000C7EEB00006EEB01
:100338000101B1F5801F1BD3B1F5001F0CD349088B
:100348005FEA30004FEA3C0C04F101044FEA4452E2
:1003580012F5800F80F09A80BCF1004F08BF5FEA69
:10036800500C50F1000041EB045141EA050130BD49
:100378005FEA4C0C404141EB0101013C28BFB1F55B
:10038800801FE9D291F0000F04BF01460020B1FAA6
:1003980081F308BF2033A3F10B03B3F120020CDA79
:1003A8000C3208DD02F1140CC2F10C0201FA0CF057
:1003B80021FA02F10CE002F11402D8BFC2F1200CBC
:1003C80001FA02F120FA0CFCDCBF41EA0C01904072
:1003D800E41AA2BF01EB0451294330BD6FEA0404BB
:1003E8001F3C1CDA0C340EDC04F11404C4F12002A6
:1003F80020FA04F001FA02F340EA030021FA04F3B8
:1004080045EA030130BDC4F10C04C4F1200220FA0E
:1004180002F001FA04F340EA0300294630BD21FA4C
:1004280004F0294630BD94F0000F83F4801306BF12
:1004380081F480110134013D4EE77FEA645C18BF06
:100448007FEA655C29D094EA050F08BF90EA020F9D
:1004580005D054EA000C04BF1946104630BD91EA95
:10046800030F1EBF0021002030BD5FEA545C05D198
:100478004000494128BF41F0004130BD14F58004D7
:100488003CBF01F5801130BD01F0004545F0FE414B
:1004980041F470014FF0000030BD7FEA645C1ABF80
:1004A800194610467FEA655C1CBF0B46024650EAB7
:1004B800013406BF52EA033591EA030F41F40021E3
:1004C80030BD00BF90F0000F04BF0021704730B569
:1004D8004FF4806404F132044FF000054FF000013E
:1004E80050E700BF90F0000F04BF0021704730B5FF
:1004F8004FF4806404F1320410F0004548BF4042D4
:100508004FF000013EE700BF42004FEAE2014FEA28
:1005180031014FEA02701FBF12F07F4393F07F4F03
:1005280081F06051704732F07F4208BF704793F006
:100538007F4F04BF41F40021704730B54FF4607419
:1005480001F0004521F000411CE700BF50EA01021C
:1005580008BF704730B54FF000050AE050EA0102C5
:1005680008BF704730B511F0004502D5404261EB35
:1005780041014FF4806404F132045FEA915C3FF476
:10058800D8AE4FF003025FEADC0C18BF03325FEA13
:10059800DC0C18BF033202EBDC02C2F1200300FAC4
:1005A80003FC20FA02F001FA03FE40EA0E0021FAE9
:1005B80002F11444BDE600BF70B54FF0FF0C4CF4D7
:1005C800E06C1CEA11541DBF1CEA135594EA0C0F89
:1005D80095EA0C0F00F0DEF82C4481EA030621EAC4
:1005E8004C5123EA4C5350EA013518BF52EA0335FF
:1005F80041F4801143F4801338D0A0FB02CE4FF0B1
:100608000005E1FB02E506F00042E0FB03E54FF0E0
:100618000006E1FB03569CF0000F18BF4EF0010ED8
:10062800A4F1FF04B6F5007F64F5407404D25FEAD4
:100638004E0E6D4146EB060642EAC62141EA555187
:100648004FEAC52040EA5E504FEACE2EB4F1FD0CC9
:1006580088BFBCF5E06F1ED8BEF1004F08BF5FEA47
:10066800500E50F1000041EB045170BD06F00046F9
:1006780046EA010140EA020081EA0301B4EB5C04A6
:10068800C2BFD4EB0C0541EA045170BD41F480119E
:100698004FF0000E013C00F3AB8014F1360FDEBFC3
:1006A800002001F0004170BDC4F10004203C35DA9F
:1006B8000C341BDC04F11404C4F1200500FA05F322
:1006C80020FA04F001FA05F240EA020001F00042C3
:1006D80021F0004110EBD37021FA04F642EB060139
:1006E8005EEA430E08BF20EAD37070BDC4F10C0463
:1006F800C4F1200500FA04F320FA05F001FA04F227
:1007080040EA020001F0004110EBD37041F1000112
:100718005EEA430E08BF20EAD37070BDC4F120051D
:1007280000FA05F24EEA020E20FA04F301FA05F285
:1007380043EA020321FA04F001F0004121FA04F22D
:1007480020EA020000EBD3705EEA430E08BF20EAFD
:10075800D37070BD94F0000F0FD101F00046400037
:1007680041EB010111F4801F08BF013CF7D041EAB9
:10077800060195F0000F18BF704703F000465200BD
:1007880043EB030313F4801F08BF013DF7D043EA8E
:100798000603704794EA0C0F0CEA135518BF95EA44
:1007A8000C0F0CD050EA410618BF52EA4306D1D1CB
:1007B80081EA030101F000414FF0000070BD50EAEA
:1007C800410606BF1046194652EA430619D094EA74
:1007D8000C0F02D150EA013613D195EA0C0F05D15E
:1007E80052EA03361CBF104619460AD181EA0301B2
:1007F80001F0004141F0FE4141F470014FF000006A
:1008080070BD41F0FE4141F4780170BD70B54FF004
:10081800FF0C4CF4E06C1CEA11541DBF1CEA135584
:1008280094EA0C0F95EA0C0F00F0A7F8A4EB050466
:1008380081EA030E52EA03354FEA013100F088805D
:100848004FEA03334FF0805545EA131343EA126326
:100858004FEA022245EA111545EA10654FEA0026DB
:100868000EF000419D4208BF964244F1FD0404F594
:10087800407402D25B084FEA3202B61A65EB0305F0
:100888005B084FEA32024FF480104FF4002CB6EBAD
:10089800020E75EB030E22BFB61A754640EA0C002D
:1008A8005B084FEA3202B6EB020E75EB030E22BF6D
:1008B800B61A754640EA5C005B084FEA3202B6EBAE
:1008C800020E75EB030E22BFB61A754640EA9C006D
:1008D8005B084FEA3202B6EB020E75EB030E22BF3D
:1008E800B61A754640EADC0055EA060E18D04FEAFB
:1008F800051545EA16754FEA06164FEAC30343EA9B
:1009080052734FEAC2025FEA1C1CC0D111F4801F67
:100918000BD141EA00014FF000004FF0004CB6E760
:1009280011F4801F04BF01430020B4F1FD0C88BFFF
:10093800BCF5E06F3FF6AFAEB5EB030C04BFB6EB0A
:10094800020C5FEA500C50F1000041EB045170BDFD
:100958000EF0004E4EEA113114EB5C04C2BFD4EB2A
:100968000C0541EA045170BD41F480114FF0000EAE
:10097800013C90E645EA060E8DE60CEA135594EA2A
:100988000C0F08BF95EA0C0F3FF43BAF94EA0C0F2D
:100998000AD150EA01347FF434AF95EA0C0F7FF4A2
:1009A80025AF104619462CE795EA0C0F06D152EAF6
:1009B80003353FF4FDAE1046194622E750EA4106DA
:1009C80018BF52EA43067FF4C5AE50EA41047FF4EB
:1009D8000DAF52EA43057FF4EBAE12E74FF0FF3C50
:1009E80006E000BF4FF0010C02E000BF4FF0010C21
:1009F8004DF804CD4FEA410C7FEA6C5C4FEA430C9A
:100A080018BF7FEA6C5C1BD001B050EA410C0CBFE8
:100A180052EA430C91EA030F02BF90EA020F00204A
:100A2800704710F1000F91EA030F58BF994208BFB1
:100A380090422CBFD8176FEAE37040F0010070476E
:100A48004FEA410C7FEA6C5C02D150EA013C07D1C5
:100A58004FEA430C7FEA6C5CD6D152EA033CD3D010
:100A68005DF8040B704700BF8446104662468C460A
:100A78001946634600E000BF01B5FFF7B7FF00283D
:100A880048BF10F1000F01BD4DF808EDFFF7F4FF66
:100A98000CBF012000205DF808FB00BF4DF808EDF1
:100AA800FFF7EAFF34BF012000205DF808FB00BF14
:100AB8004DF808EDFFF7E0FF94BF012000205DF836
:100AC80008FB00BF4DF808EDFFF7CEFF94BF0120EB
:100AD80000205DF808FB00BF4DF808EDFFF7C4FFE4
:100AE80034BF012000205DF808FB00BF4FEA410C2D
:100AF8007FEA6C5C02D150EA013C0AD14FEA430C10
:100B08007FEA6C5C02D152EA033C02D14FF000004C
:100B180070474FF0010070474FEA410212F500128A
:100B280015D211D56FF47873B3EB625212D94FEA2C
:100B3800C12343F0004343EA505311F0004F23FA16
:100B480002F018BF404270474FF00000704750EA6B
:100B5800013005D111F0004008BF6FF00040704728
:100B68004FF00000704700BF4A0011D212F5001282
:100B780011D20DD56FF47873B3EB62520ED44FEAED
:100B8800C12343F0004343EA505323FA02F070476D
:100B98004FF00000704750EA013002D14FF0FF30AB
:100BA80070474FF0000070474FEA4102B2F1E0434E
:100BB80024BFB3F5001CDCF1FE5C0DD901F0004C3C
:100BC8004FEAC0024CEA5070B2F1004F40EB83008C
:100BD80008BF20F00100704711F0804F21D113F1B8
:100BE8003872BCBF01F00040704741F480114FEAF1
:100BF8005252C2F11802C2F1200C10FA0CF320FA7A
:100C080002F018BF40F001004FEAC1234FEAD32396
:100C180003FA0CFC40EA0C0023FA02F34FEA430300
:100C2800CCE77FEA625307D150EA01331EBF4FF089
:100C3800FE4040F44000704701F0004040F0FE40A4
:100C480040F40000704700BF53B94AB9002908BFF3
:100C580000281CBF4FF0FF314FF0FF3000F0B6B94D
:100C6800ADF1080C6DE904CE00F03CF8DDF804E0C5
:100C7800DDE9022304B0704738B50022002304469A
:100C88000D46FFF70BFF28B920462946BDE8384036
:100C980000F00AB8204605F1004100F005F840428E
:100CA80061EB410138BD00BFD0B500220B4B0646B1
:100CB8000F46FFF781FCFFF757FF0446FFF702FCDA
:100CC8000022074BFFF778FC02460B4630463946B0
:100CD800FFF7BAFAFFF748FF2146D0BD0000F03D04
:100CE8000000F0412DE9F04F099D04468846002B8D
:100CF80040F084808A42174643D9B2FA82F242B160
:100D0800C2F120009140974024FA00F0944040EA54
:100D180001084FEA174C230C1FFA87FEB8FBFCF6B4
:100D28000CFB168106FB0EF043EA0143984207D9F3
:100D3800FB1806F1FF3102D2984200F231810E46CB
:100D4800191AA3B2B1FBFCF00CFB101100FB0EFE4C
:100D580043EA0144A64507D93C1900F1FF3302D202
:100D6800A64500F21A81184640EA0640A4EB0E0494
:100D780000261DB1D4400023C5E900433146BDE833
:100D8800F08F02B9FFDEB2FA82F2002A52D1CB1BF1
:100D98004FEA174E1FFA87F80126210CB3FBFEFC19
:100DA8000EFB1C3008FB0CF941EA004189450BD9C0
:100DB80079180CF1FF332CBF01200020894502D996
:100DC800002800F0F0809C46A1EB0901A3B2B1FB1A
:100DD800FEF00EFB101108FB00F843EA0144A045A1
:100DE80007D93C1900F1FF3302D2A04500F2D280A6
:100DF8001846A4EB080440EA0C40BAE78B4209D92C
:100E0800002D00F0BE800026C5E9000130463146BD
:100E1800BDE8F08FB3FA83F6002E4DD18B42C0F0B7
:100E2800B380824240F2B0803046002DA6D0C5E99A
:100E38000048A3E79740C2F1200301FA02F04FEA05
:100E4800174ED94024FA03F31FFA87F89440034356
:100E5800B1FBFEF01E0C0EFB101100FB08FC46EA6D
:100E680001418C450ED9791800F1FF362CBF4FF09F
:100E780001094FF000098C4503D9B9F1000F00F0C2
:100E880096803046A1EB0C019BB2B1FBFEF60EFB3F
:100E9800161106FB08FC43EA01418C4507D979186D
:100EA80006F1FF3302D28C4500F288801E46A1EB82
:100EB8000C0346EA004670E7C6F1200703FA06F479
:100EC80002FA06FC01FA06FEFA4020FA07F8F94091
:100ED80000FA06F3224348EA0E044FEA12484FEAA2
:100EE800144E1FFA82F9B1FBF8FA08FB1A110AFB33
:100EF80009F04EEA014E70450ED912EB0E0E0AF1BA
:100F0800FF312CBF4FF0010B4FF0000B704502D999
:100F1800BBF1000F4ED08A46AEEB000EA4B2BEFB6A
:100F2800F8F008FB10EE00FB09F944EA0E4EF14513
:100F380007D912EB0E0E00F1FF3101D2F14540D86E
:100F4800084640EA0A40AEEB090EA0FB0C89CE45E4
:100F580041464C4602D306D1434504D20138B8EB8A
:100F68000C0169EB02047DB35A1A6EEB040EF240D1
:100F78000EFA07F72EFA06F300261743C5E90073A1
:100F8800FCE62E462846F9E6841A61EB03010120A7
:100F980088464AE702383C442BE702383C44E3E6FB
:100FA800023E3B44CCE6ACF1020C39440CE7023873
:100FB800394467E7AAF1020A9644ADE7023E39448C
:100FC80075E702389644BCE72E46D7E6704700BF5F
:100FD80000B58BB0002307930893099301930293FC
:100FE80003930493059306931E481F4A02604360C7
:100FF8008360C36003610422426103764376012261
:10100800C26180F820308362C36280F83030436365
:1010180080F8383005F042F9D0B90023079307A9C2
:10102800104806F0C3F8B0B9104B01930623029399
:10103800002303937F2204920422059206930DEB6A
:101048000201084805F024FC40B90BB05DF804FB28
:1010580000F06AFFE1E700F067FFE5E700F064FFF2
:10106800F3E700BF1CA1012000800242000084CBEE
:1010780000B587B000230093019302930393049370
:1010880005931948194A026043608360C36003618D
:1010980004224261037643760122C26180F820303F
:1010A8008362C36280F83030436380F8383005F0DB
:1010B800F5F890B90E4B0093062301930023029391
:1010C8007F2203920422049205936946064805F09C
:1010D800DFFB28B907B05DF804FB00F025FFE9E75E
:1010E80000F022FFF6E700BF88A00120008102423D
:1010F8000010603230B5AFB00446002129912A9122
:101108002B912C912D91942204A813F042FF23686F
:10111800504A934204D0504A93425FD02FB030BD1A
:101128004FF4804304934FF04053249304A807F0EE
:1011380011FF00283ED1494A136801331360012B7F
:101148003BD0474BDA6C42F00202DA64DB6C03F006
:1011580002030193019B0223299303232A93002569
:101168002B9529A93F4806F02FFB3F483F4B0360CA
:10117800052343608560C560802303614FF4807355
:1011880043614FF480638361C561056206F05AF9D3
:10119800F0B91021344806F004FBE0B9324B23655E
:1011A8009C6200221146252006F09AF8252006F0B8
:1011B800CBF8B3E700F0B8FEBDE7294BDA6C42F490
:1011C8000052DA64DB6C03F400530093009BB8E729
:1011D80000F0AAFEDDE700F0A7FEDFE74FF480434A
:1011E80004934FF04053249304A807F0B3FE10BBB8
:1011F8001A4A136801331360012B1FD0184BDA6C9D
:1012080042F00102DA64DB6C03F001030393039BF1
:101218008023299303232A9300242B9429A9144873
:1012280006F0D2FA22462146252006F059F8252054
:1012380006F08AF872E700F077FED9E7084BDA6C17
:1012480042F40052DA64DB6C03F400530293029B0D
:10125800D4E700BF0080024200810242A08401203E
:101268000010024000040242B0A101206C040240B8
:101278000000024282B00F4B9A6C42F480529A648A
:101288009B6C03F480530193019B0B4B9A6822F0EB
:1012980060029A609A6822F080029A60074A5A614E
:1012A8009A6822F018029A604FF0FF321A6102B071
:1012B800704700BF0010024000300240B71DC10453
:1012C80008B504F06DFF08BD00B585B0234B9A6CD6
:1012D80042F004029A649A6C02F004020192019AA4
:1012E8009A6C42F001029A649A6C02F0010202922E
:1012F800029A9A6C42F002029A649B6C03F0020311
:101308000393039B00221146212005F0E9FF2120C9
:1013180006F01AF800221146222005F0E1FF2220EB
:1013280006F012F800221146512005F0D9FF51208D
:1013380006F00AF800221146522005F0D1FF52208B
:1013480006F002F800221146552005F0C9FF552085
:1013580005F0FAFF05B05DF804FB00BF001002407D
:101368000131038991FBF3F003FB101080B2704741
:1013780000230380438041600281704738B50446EA
:101388000D464188FFF7ECFF608063681D5438BD47
:1013980038B5044645680188FFF7E2FF0346285C34
:1013A800238038BD02884088824214BF0020012073
:1013B800704700002DE9F04F8BB000240594069487
:1013C800079408940994514BDA6C42F01002DA64DD
:1013D800DA6C02F010020092009ADA6C42F0010214
:1013E800DA64DA6C02F001020192019ADA6C42F0D6
:1013F8000402DA64DA6C02F004020292029ADA6CED
:1014080042F00202DA64DA6C02F002020392039AF2
:10141800DA6C42F00802DA64DB6C03F00803049328
:10142800049BDFF8F89001221021484606F039FBAA
:10143800374E01220521304606F033FBDFF8E08005
:1014480001221021404606F02CFB324F2246022191
:10145800384606F026FB082305932F4B069307947E
:1014680005A9384606F0B0F94FF0100BCDF814B0C6
:10147800012506950794089405A9484606F0A4F99D
:101488004FF4004ACDF814A003220692079405A948
:10149800404606F099F94FF4405305930694079493
:1014A80005A9304606F090F944F2020305931A4B59
:1014B8000693079405A9304606F086F9CDF814A0DE
:1014C80003230693079405A9484606F07DF90523EA
:1014D800059306950794089405A9304606F074F913
:1014E800CDF814B006950794089405A9404606F06F
:1014F8006BF90223059306950794089405A93846C5
:1015080006F062F90BB0BDE8F08F00BF0010024092
:10151800000C0242001002420000111000000242BA
:1015280000040242002B00F0B68030B587B00446B4
:101538001546036143880193012912D0022913D06B
:10154800554B0293A37A03930223049301A960687D
:1015580006F03AF9022D2ED00BD8012D07D8032119
:101568000AE04E4B0293EDE74D4B0293EAE7002168
:1015780002E0032D21D101216388B3F5807F6ED06D
:1015880027D8202B1BD81AB2002A78D0013B1F2B52
:101598007FD8DFE803F0484C7E507E7E7E547E7E06
:1015A8007E7E7E7E7E587E7E7E7E7E7E7E7E7E7E79
:1015B8007E7E7E7E7E5C0221DEE70021DCE7402B1A
:1015C80049D0802B03D1374BDC61122458E00B241F
:1015D80056E0B3F5805F4AD009D9B3F5804F4AD0B9
:1015E800B3F5004F16D12F4BDC631A2448E0B3F54E
:1015F800806F38D0B3F5006F03D12A4BDC62162414
:101608003EE0B3F5007F03D1264B5C62142437E03B
:101618000B2435E0B3F5005F03D1224B5C6318243B
:101628002EE00B242CE01F4B1C600B2428E01D4BE4
:101638005C600C2424E01B4B9C600D2420E0194BBB
:10164800DC600E241CE0174B1C610F2418E0154BBE
:101658005C61102414E0134B9C61112410E0114BC1
:101668001C6213240CE00F4B9C62152408E00D4B00
:101678001C63172404E00B4B9C63192400E00B2423
:101688000022204605F02CFE204605F05DFE07B03E
:1016980030BD0B24F4E77047000031100000111032
:1016A80000002110A484012008B590F90030B3F19E
:1016B800FF3F04D0CAB24188406806F0F2F908BD7D
:1016C80070B58AB09DF838609DF83C5002700029CA
:1016D8003BD004464280434A914218D0424A914244
:1016E80035D0424A914241D0414A91424DD0414A77
:1016F800626002F17E42A2F54062D16C41F0800145
:10170800D164D26C02F080020492049A0DE0626007
:1017180002F17E4202F58052D16C41F00101D164A0
:10172800D26C02F001020092009A62880592A572BA
:10173800079502220892002B36D100220692012B2F
:101748004BD005A9606806F03FF80AB070BD62602A
:1017580002F17E4202F54062D16C41F00201D1648F
:10176800D26C02F002020192019ADEE7626002F195
:101778007E4202F50062D16C41F00401D164D26C62
:1017880002F004020292029ACFE7626002F17E42FE
:1017980002F58062D16C41F00801D164D26C02F08C
:1017A80008020392039AC0E7032B06D0022B07D046
:1017B800012E0FD001220692C1E703220692BEE74E
:1017C800012E04D002220692109A0992B7E712223B
:1017D8000692F9E711220692B1E710992046FFF721
:1017E80063FFAEE700000242000402420008024222
:1017F800000C0242001C024208B590F90030B3F117
:10180800FF3F04D04188406806F044F908BD002035
:10181800FCE708B5012006F04BF908BD08B5022021
:1018280006F046F908BD08B5042006F041F908BDE0
:1018380008B5082006F03CF908BD08B5102006F0E8
:1018480037F908BD08B5202006F032F908BD08B5FB
:10185800402006F02DF908BD08B5802006F028F9CB
:1018680008BD08B54FF4807006F022F908BD08B528
:101878004FF4007006F01CF908BD08B54FF48060FD
:1018880006F016F908BD08B54FF4006006F010F927
:1018980008BD08B54FF4805006F00AF908BD08B530
:1018A8004FF4005006F004F908BD08B54FF4804025
:1018B80006F0FEF808BD08B54FF4004006F0F8F849
:1018C80008BD000008B51248124B0360124B436074
:1018D800002383600122C260036143618361C361A5
:1018E800036206F093FD50B90021094807F072F829
:1018F80040B90021064807F09BF830B908BD00F050
:1019080013FBF1E700F010FBF3E700F00DFBF5E740
:1019180018A20120005400408974F73030B5ADB0EA
:10192800044600212791289129912A912B919422EC
:1019380002A813F02EFB2268214B9A4201D02DB049
:1019480030BD402302930023159302A807F002FB41
:10195800002832D11B4CE36C43F00203E364E36CD0
:1019680003F002030093009B4FF440732793122364
:1019780028930123299300252A9504232B9327A92B
:10198800114805F021FFA36D43F40013A365A36D6F
:1019980003F400130193019B2A462946372005F0DA
:1019A8009FFC372005F0D0FC2A462946382005F050
:1019B80097FC382005F0C8FCC1E700F0B5FAC9E784
:1019C800005400400010024000040242EFF310836C
:1019D80072B641B1012903D106490A68104308606B
:1019E80083F31088704703490A6822EA00000860F8
:1019F800F6E700BFE8840120EFF3108372B6074AC8
:101A0800126822B9064A12682AB1012000E00020B3
:101A180083F3108870470220FAE700BFE8840120AA
:101A2800E484012008B50121002007F02DF808BD45
:101A3800EFF3108372B683F31088704708B5EFF39D
:101A4800108372B683F3108801214FF4804007F0A9
:101A580041F808BD704770477047000008B50A4B49
:101A68001B683BB9094B1B684BB1FFF7E7FFFFF752
:101A7800F1FF08BDFFF7D6FFFFF7DAFFF9E7FFF739
:101A8800EAFFFFF7E9FFF4E7E8840120E484012096
:101A9800014B01221A707047DF8501207047000052
:101AA800014B9870704700BF40800120003818BF74
:101AB8000120014B187370474080012008B5084B7E
:101AC80018601B6803B108BD4FF47A71054813F01C
:101AD800DDF900F59C500830014B1860F3E700BFB2
:101AE8002C86012018FCFFFF10B5084C204601F099
:101AF80033FB074B01221A70064B1968204601F088
:101B080067FB204601F0B4FA10BD00BF3086012003
:101B1800E08501202C860120012800D1704710B5EE
:101B2800064C0749204601F099FA064B19682046E9
:101B380001F04EFB0020FFF7D7FF10BD30860120D3
:101B4800F11A04082C86012010B504464378022BAC
:101B580007D0032B09D0012B07D020460AF008FB39
:101B680010BD044801F084FAF7E7024801F0F4FADE
:101B7800F3E700BF1486012000B583B00AF04AFBE2
:101B880000218DF800108DF80110019168460AF0C7
:101B98001DFE03B05DF804FB10B504460AF078FAA0
:101BA8002378013B012B06D9012017F0B5FF054822
:101BB80001F05EFA10BD63681B7803F00103024A66
:101BC8001370F1E7FC850120DE85012008B50120AE
:101BD80017F0A2FF034801F04BFA034801F048FA56
:101BE80008BD00BFFC8501201486012008B5034804
:101BF80001F0B2FA002017F08FFF08BDFC85012024
:101C080008B50AF083F908BD10B504460AF044F98E
:101C180094F90530B3F1FF3F03D000200AF066FEC7
:101C280010BD0AF097FDFBE708B50AF0D3F808BD28
:101C380008B50AF07FF808BD08B50AF03BF808BDFA
:101C480008B50AF021F808BD08B5034801F084FA80
:101C5800002017F071FF08BDE485012038B50AF0AF
:101C680093FD00B138BD264C0225257009F0F4FE1D
:101C7800244B1978002009F007FF03F063F8642368
:101C880003FB00F0204B83FB00230344C017C0EB89
:101C9800E31300EE103AB8EEC00A012009F010FF75
:101CA8001A4B93ED000AB8EEC00A284609F008FF5F
:101CB800174B93ED021AD3ED010A93ED000A0320A6
:101CC80009F028FF9FED130AB0EE401AF0EE400A23
:101CD800042009F065FF606809F0CAFE09F0C2FE39
:101CE80060700D4B997820460AF070FD0028B9D134
:101CF800012017F021FF094801F0BAF9B2E700BF47
:101D080000800120DE850120090402814886012027
:101D1800508601200000000040800120E485012059
:101D280008B5EFF3108172B6064A1378DBB20020CB
:101D3800107081F31088012B00D008BDFFF78EFFCB
:101D4800FBE700BFE085012010B588B004F004FA75
:101D580004F03AFA04F040FA5849002017F0E4FE7B
:101D68005749012017F0E0FEFFF724FBFFF7ACFA14
:101D7800FFF72EF9FFF7A6FD01F0A2FA00F084F9AB
:101D880000F0E4FB00F00AFC01F08CF8FFF770F9B2
:101D980001F046FAFFF76EFA00F0D6F800F036FACE
:101DA80003F03CFB002003F0C7FA012003F0C4FA5B
:101DB800444A454C4FF6FF730593002304934FF4B0
:101DC8008063039302924FF40063019300924FF4EF
:101DD80080530221204600F0E3FCA4F13C0001F00E
:101DE800CFFF3A4C3A49204601F038F919212046EC
:101DF80001F0EEF9374C3849204601F02FF9192146
:101E0800204601F0E5F9354C3549204601F026F920
:101E180041F28831204601F0DBF94FF47A713148FC
:101E280013F034F800F59C5008302F4A10604FF03A
:101E3800817307934FF0A063069306AA07A92B485E
:101E48000AF0F4F92A492B480AF08AFB18B12A4803
:101E580013F0C0FFFEE714200AF06AFE27490020AD
:101E68000AF076FE0AF076FC0020FFF755FE03E044
:101E780002F0C8FF84F3108821480AF003FA0AF038
:101E8800CBFE002003F062FA1E4C2146002003F02E
:101E980093FA211D012003F08FFA1B4803F0EEFA94
:101EA800FFF73EFFEFF3108472B6184B1B78DBB2D6
:101EB800012BDDD1154B00221A70DBE7431F040804
:101EC800491F040800080242F4B00120E4850120FB
:101ED800511C0408FC850120F51B04081486012008
:101EE800D51B040818FCFFFF2C860120D09B050891
:101EF8004080012008800120E49B050850800120D3
:101F08002CAF01204886012050860120DF85012062
:101F180008B50268034B9A4200D008BD04F02EF9B8
:101F2800FBE700BF0010004008B572B617F0ECFDE3
:101F38004FF4FA7004F034F9F8E708B5FFF7F4FF46
:101F480008B5FFF7F1FF000008B50648064B036027
:101F58000023436007F0AEFA00B908BDFFF7E4FFBD
:101F6800FBE700BF94A2012000080C4210B5A6B000
:101F780004469422002101A813F00BF82268124BA2
:101F88009A4201D026B010BD4FF48023019300235C
:101F9800209301A806F0DEFF90B90C4BDA6C42F4EE
:101FA8008022DA64DB6C03F480230093009B002218
:101FB80011465E2005F094F95E2005F0C5F9E1E7C9
:101FC800FFF7B2FFE9E700BF00080C42001002402B
:101FD8002DE9F04180460F46264CA668264D002282
:101FE8004146284607F0DEFD00223946284607F01C
:101FF800B3FDA368B342EFD198F8032040F2B5537C
:1020080003FB02F303339C0812F0030F2FD11B4A82
:1020180098F801000138C0EB001300EB830301338B
:1020280003EBD371430022FA03F303F00303C3EB7A
:102038006103234498F802201344013BB8783978A7
:102048007A78C2EB021292004FF4616404FB012219
:1020580002440B4901FB0323990D98027B68C3F5E1
:102068007F730333C01841F10001BDE8F081054AD0
:10207800CEE700BF00280040888601205055440064
:1020880080510100A0AA990000B58BB02822002138
:10209800684612F07EFF2D482D4B036000234360F5
:1020A8007F228260FF22C2600361436183614FF037
:1020B8008042C261036207F05BFB002834D1002331
:1020C8008DF800308DF801308DF8023001930593BA
:1020D8000693079301228DF820204FF4807309930B
:1020E80069461A4807F0A4FC08BB4FF4007309932B
:1020F80001226946154807F09BFCD8B90022114611
:10210800124807F06FFDC0B900231A4619460F4858
:1021180007F0B2FDA0B94FF400210C4807F028FEE3
:1021280088B90BB05DF804FBFFF7FEFEC7E7FFF7C1
:10213800FBFEDAE7FFF7F8FEE0E7FFF7F5FEE3E777
:10214800FFF7F2FEE7E7FFF7EFFEEAE7B8A20120A4
:102158000028004010B5A6B004469422002101A82A
:1021680012F017FF2268154B9A4201D026B010BD15
:102178004FF4003301934FF40073259301A806F040
:10218800E9FEC0B90E4BD3F8902042F40042C3F8E0
:1021980090209A6D42F480629A659B6D03F4806387
:1021A8000093009B00221146022005F099F80220B6
:1021B80005F0CAF8DAE7FFF7B7FEE3E700280040C2
:1021C8000010024008B50268094B9A4200D008BDC9
:1021D80003F5F433D3F8902022F40042C3F890209A
:1021E8009A6D22F480629A65022005F0BBF8EEE74A
:1021F8000028004010B5044C211D04F11800FFF719
:10220800E7FE206010BD00BF00870120294B1B7826
:1022180003B1704770B586B0274AD2F8903043F4BE
:102228000043C2F89030254D254B2B6000246C608C
:102238001F23AB6040F2FF33EB602C61AC614FF0C1
:102248008043EB61284607F093FA8DF81740012682
:102258008DF815608DF816608DF81460224605A972
:10226800284607F091FB8DF800408DF801408DF865
:10227800024001948DF80340049403942246694671
:10228800284607F01DFB284607F09AFD22463146EE
:10229800022005F025F8022005F056F84FF4807169
:1022A800284607F0B9F9FFF7A5FF024B1E7006B0E4
:1022B80070BD00BFFC860120001002408886012006
:1022C80000280040014B1868704700BF00870120B4
:1022D8000320704708B501467D220023C001490E3E
:1022E800FEF7B2FC08BD810AC0F309034FF47A7007
:1022F80000FB03F39B0A00FB0130704708B54FF45D
:102308008071034807F088F9024B0122DA6508BD9D
:102318008886012000280040F0B587B00446494F60
:1023280001AD3E1D0FCE0FC5BB690093FFF7E6FF59
:10233800BDF80830C3F57F730333C4F3090212FAFA
:1023480083F39BB2A00A9DF802503F4A904206D9F7
:10235800A0F5A830A0F5C0706A1C95B2F5E79DF805
:102368000410B0F5616F04D3A0F56160013189B242
:10237800F7E79DF8054002E03C380134A4B23B2859
:10238800FAD89DF8062012FA80F080B204E0A3F58E
:1023980080639BB2013080B2B3F5806FF7D23B28DF
:1023A80008D93C3880B20134A4B2F8E73C3CA4B266
:1023B800013189B23B2CF9D803E0183989B26A1C7B
:1023C80095B21729F9D89DF8032012F0030F2AD1E6
:1023D8009DF80120013A1D4EB25C96B2AE4204D27D
:1023E80095FBF2F602FB165295B2C3F57F730333E1
:1023F800174E73604FF02063B361B0707470317022
:1024080086F820509DF80730F3700022F26172615F
:102418004FF480737362F260326131460D4807F001
:1024280007FB07B0F0BD9DF80120013A0A4EB25CE7
:1024380096B2AE42D9D295FBF2F602FB165295B28D
:10244800D3E700BF008701207F510100149C0508D5
:102458006086012088860120089C050800B587B0A1
:1024680001A96846FFF7B4FD07B05DF804FB00005A
:1024780000B587B001A96846FFF7AAFD024B1B68A3
:10248800C01A07B05DF804FB0087012070B5064646
:10249800114BB3F900400334E517FFF7E9FF321A8F
:1024A8000023944275EB03030BDA00210420FFF7A5
:1024B8008DFAFFF7A1FA012808D03046FFF72CFF64
:1024C80070BD01210420FFF781FAF2E7024BB3F94E
:1024D8000030F61AF1E700BF5C86012030B587B0FE
:1024E800054601A96846FFF773FD840A44EA81544A
:1024F800C0F30900FFF7F7FE2880204607B030BD7B
:1025080008B500F0E7FD08BD38B502460C46054D94
:102518000021284607F082FC22460121284607F0C0
:102528007DFC38BD8886012070B505460C46064EF0
:102538000021304607F079FC28600121304607F079
:1025480074FC206070BD00BF8886012008B5114862
:10255800114B03604FF4827343604FF480638360D0
:102568004FF4E063C3600023036143614FF40072DA
:1025780082610822C2610362436283620722C262E7
:102588000363436307F0B2FD00B908BDFFF7CCFC55
:10259800FBE700BFB8A301200030014008B5104890
:1025A800104B03604FF482734360002383604FF441
:1025B800E062C260036143614FF4007282610822E5
:1025C800C2610362436283620722C2620363436398
:1025D80007F08CFD00B908BDFFF7A6FCFBE700BFBC
:1025E8002CA30120003C004010B58AB000230593BD
:1025F800069307930893099303682D4A934204D0DE
:102608002C4A93422AD00AB010BD2B4B1A6E42F4C2
:1026180080521A661A6E02F480520192019ADA6C9C
:1026280042F00102DA64DB6C03F001030293029BBF
:102638006023059302230693002407940894052336
:10264800099305A91D4805F0BFF8224621463B20FD
:1026580004F046FE3B2004F077FED4E7164B9A6D53
:1026680042F400429A659A6D02F400420392039A7A
:10267800DA6C42F00402DA64DB6C03F004030493BE
:10268800049B4FF4E0530593022306930024079418
:1026980008940623099305A9094805F095F82246E8
:1026A8002146632004F01CFE632004F04DFEAAE7D7
:1026B80000300140003C004000100240000002428F
:1026C80000080242F0B49DF910500478224E8C277D
:1026D80007FB04640026A66008292DD001781E4C4B
:1026E8008C2606FB01414FF47064CC6006781A49C9
:1026F8008C2404FB06163261027804FB0212536133
:10270800037804FB031300221A62037804FB031303
:102718005A62037804FB03139A62037804FB0311DB
:102728000723CB6285B903780B4A04FB03234FF4D4
:1027380082725A60F0BC70470178074C07FB014170
:102748004FF4E064CC60D1E70378034A8C2101FBA5
:10275800032300225A60EDE71C8701200E4B1A68FC
:1027680000238A4203D901335208062BF9D913F002
:10277800040200D0202213F0020100D010210A43E5
:1027880013F0010300D008231343027803498C2077
:1027980000FB0212D3617047608001201C87012072
:1027A8002DE9F04F8BB005460C4611461A46BDF888
:1027B8005490BDF85C80BDF864300593EFF3108742
:1027C80072B60470002C61D0012C00F0AB807B48FD
:1027D800836B43F400438363836B23F40043836375
:1027E800836D43F400438365836D03F400430993C9
:1027F800099B8C2303FB04F37148724EC6504FF0BB
:10280800060ACDF808A00026019600960223281D86
:10281800FEF756FFCDF808A00196009602234A4617
:10282800149905F11800FEF74BFFCDF808A00196A2
:10283800009602234246169905F12C00FEF740FF48
:10284800CDF808A00123019300960223059A189950
:1028580005F14000FEF734FF59498C2303FB0414AB
:102868004FF40073A3610022009213460821284602
:10287800FFF728FF54492846FFF770FF204607F066
:1028880035FC87F310880BB0BDE8F08F4B48036C1C
:1028980043F480530364036C23F480530364036E8E
:1028A80043F480530366036E03F480530793079B36
:1028B8008C2303FB04F34248444EC6504FF0050BEB
:1028C800CDF808B0022601964FF0000ACDF800A016
:1028D8003346281DFEF7F4FECDF808B00196CDF872
:1028E80000A033464A46149905F11800FEF7E8FEA1
:1028F800CDF808B00196CDF800A0334642461699A7
:1029080005F12C00FEF7DCFECDF808B00123019399
:10291800CDF800A03346059A189905F14000FEF756
:10292800CFFE99E7254B986B40F480409863986BED
:1029380020F480409863986D40F4804098659B6DC2
:1029480003F480430893089B8C2303FB04F31C487F
:102958001F4EC6504FF0050ACDF808A00226019672
:102968004FF0000BCDF800B03346281DFEF7A8FE47
:10297800CDF808A00196CDF800B033464A46149920
:1029880005F11800FEF79CFECDF808A00196CDF8D9
:1029980000B033464246169905F12C00FEF790FE2A
:1029A800CDF808A001230193CDF800B03346059A6D
:1029B800189905F14000FEF783FE4DE7001002402C
:1029C8001C870120003C00408096980000300140A0
:1029D8000038004070B586B0ADF80E1000238DF8B1
:1029E800173003780F4C8C2505FB03F3E258136866
:1029F80043F040031360EFF3108672B600784FF08F
:102A0800FF33009301230DF117020DF10E0105FBB1
:102A1800004007F005FC86F310889DF8170006B003
:102A280070BD00BF1C87012000B583B00E4B1A6E25
:102A380042F001021A661A6E02F001020092009A30
:102A48009A6D42F080529A659B6D03F08053019312
:102A5800019B002211465F2004F042FC5F2004F035
:102A680073FC03B05DF804FB0010024000B589B0A8
:102A780001460022312004F033FC312004F064FCCC
:102A8800144B9A6D42F010029A659B6D03F0100387
:102A98000193019B02A903A806F03CF906F01AF974
:102AA8000D4BA3FB00239B0C013B0C480C4A026016
:102AB80040F2E732C260436000230361836008F09C
:102AC80059F818B1012009B05DF804FB034807F074
:102AD80083FEF8E70010024083DE1B4344A4012074
:102AE80000100040FEE7FEE770477047704700009F
:102AF80010B5054C204606F0BBFD204607F0A8F8A7
:102B0800204607F021F910BDB8A2012008B50248F7
:102B180004F0BDFD08BD00BF3CB0012008B5024867
:102B280004F0B5FD08BD00BFD4AF012008B50348C7
:102B380003F066FD024803F063FD08BD1CA10120F7
:102B480088A0012008B5024807F08CFE08BD00BF28
:102B580000A5012008B5024807F084FE08BD00BFA3
:102B680000A5012008B5024807F07CFE08BD00BF9B
:102B780000A5012008B5024807F074FE08BD00BF93
:102B880000A5012008B5024807F06CFE08BD00BF8B
:102B980044A4012008B5024805F0DAFE08BD00BFCC
:102BA80018A2012008B5024805F0DAFE08BD00BFEA
:102BB80018A2012008B5024807F072FD08BD00BF41
:102BC800B8A3012008B5024808F032F908BD00BFD3
:102BD80030A6012008B5024808F02AF908BD00BF50
:102BE8002CAF012008B5024804F051FD08BD00BF14
:102BF800C8A5012008B5024804F049FD08BD00BF7A
:102C0800C4AE012008B5024804F041FD08BD00BF6C
:102C1800B0A1012008B5024806F0C0FC08BD00BFFD
:102C280094A201207047000008B5024807F038FD5B
:102C380008BD00BF2CA301200120704708B512F081
:102C480071F9162303604FF0FF3008BD08B54FF047
:102C5800FF31FFF7F3FFFEE770B50C461646002577
:102C6800B54207DA00E000BF214601F8010B013543
:102C78000C46F5E7304670BD70B50C461646002583
:102C8800B54205DA14F8010B02F036F80135F7E71A
:102C9800304670BD4FF0FF3070474FF400534B6023
:102CA80000207047012070470020704710B5034688
:102CB8000C4A0D490D48006840B10C4800680344AF
:102CC800521A934206D8094A136010BD0748084CA7
:102CD8000460F2E712F026F90C2303604FF0FF308E
:102CE800F3E700BF0000032000040000C0880120B3
:102CF80030B501207047000008B516F0FDFE014B05
:102D0800186008BD6080012082B082B00DF1080C07
:102D18000CE906000393009A13440360BDF80420ED
:102D2800BDF810100A4491B212B28280B2F57A7FCF
:102D380004DB01330360A1F57A71818002B002B02F
:102D4800704782B082B00DF1080C0CE906000393BD
:102D5800009AD31A0360BDF80420BDF81010521A67
:102D680091B212B28280002A02DB02B002B0704730
:102D7800013B036001F57A718180F6E710B588B0F0
:102D880002AC84E8030000230493ADF8143005A8CE
:102D9800FFF7A4FB03460490059A009294E8060006
:102DA80006A8FFF7CEFFBDF91C100698FFF7ACFB8D
:102DB80008B010BD10B588B0044600230693ADF8DE
:102DC8001C3007A8FFF78AFB069004A905A8FFF79F
:102DD800ABFB059B0293BDF91030ADF80C30079B97
:102DE8000093069B039A02992046FFF78DFF204621
:102DF80008B010BD30B583B0044600230093ADF889
:102E080004306D4601A8FFF769FB009095E80300C0
:102E180084E80300204603B030BD10B58AB002AC88
:102E280084E8030008A909A8FFF77EFBBDF9203054
:102E3800ADF81C30079B0093099B94E8060004A892
:102E4800FFF77FFFBDF91430049A4FF47A7000FB46
:102E580002300AB010BD000010B588B00446104B0F
:102E6800A3FB01239B0907934FF47A7202FB13110A
:102E780006910493ADF8141006A907A8FFF754FBB0
:102E8800BDF91830ADF80C30039B0093079B059AE9
:102E980004992046FFF738FF204608B010BD00BF50
:102EA800D34D621000B58DB00023009301930293B7
:102EB8001548164A0260436083604FF6FF72C2608D
:102EC800036143618361012203920493059206938F
:102ED8000793089309920A930B9303A907F084FEBA
:102EE80058B900230093019302936946064807F0F6
:102EF800DDFE28B90DB05DF804FBFFF715F8F0E723
:102F0800FFF712F8F6E700BF00A50120002C0140EA
:102F180010B588B000230393049305930693079391
:102F28000268244B9A4201D008B010BD03F56443EF
:102F38001A6E42F400621A661A6E02F40062019276
:102F4800019ADA6C42F01002DA64DB6C03F01003C9
:102F58000293029B4FF420630393022304930024FB
:102F6800059406940123079303A9134804F02CFC45
:102F780022462146292004F0B3F9292004F0E4F977
:102F8800224621462A2004F0ABF92A2004F0DCF975
:102F9800224621462B2004F0A3F92B2004F0D4F973
:102FA800224621462C2004F09BF92C2004F0CCF971
:102FB800BAE700BF002C0140001002420D4B1A680E
:102FC8005369516991B110B4046819688C4208D9E1
:102FD8001A465B6951690029F6D1506100234361A3
:102FE80001E0506143615DF8044B70475061002374
:102FF80043617047C4880120054B1B681BB183429D
:1030080003D05B69FAE7002070470120704700BFD2
:10301800C488012070B50446FFF75AF90546012314
:1030280063722668FFF724FA2844864203D320688F
:10303800FFF72CFA70BDFFF71BFA05442560F6E789
:1030480008B5054B1B680BB100225A724361024B4D
:103058001860FFF7DFFF08BDC48801200023036064
:10306800436003724372C1600361436170470000AB
:1030780038B5EFF3108572B6E0B10446FFF7BCFF30
:10308800C0B9636823600123237200236372104B65
:103098001B6893B1FFF7ECF92368184420600C4BC8
:1030A8001B681B6898420ED22046FFF7C9FF85F3BC
:1030B800108801E085F3108838BDFFF79BF820469B
:1030C800FFF7BEFFF3E72046FFF778FFEFE700BF03
:1030D800C4880120F8B5FFF7F5F80446FFF78AF829
:1030E800071B1C4B1B686BB1194602E000251560D5
:1030F80049694A6932B11568BD42F7D9261A35447B
:103108001560F5E743B15969124A116000221A7235
:10311800DA68A2B1186990470E4B1B688BB11C681E
:10312800FFF7A6F984420CD20A4A1368596911605C
:1031380000221A72DA681AB118699047ECE7FEE7BC
:10314800FEE7044B186808B1437A03B1F8BDFFF7EE
:1031580061FFFBE7C488012010B5EFF3108472B655
:103168001A4B1A685AB150B100230372824209D02F
:10317800134623B383421FD01A465B69F9E784F3E9
:1031880010881EE0537A73B100235372506920B13E
:103198000E4B1860FFF73EFF11E0FFF7AFF80B4B3F
:1031A80000221A600BE0536913B1084A136006E065
:1031B800064B00221A6002E05B691BB1536184F37D
:1031C800108810BD00235361F9E700BFC4880120AF
:1031D80038B504460846FFF77DF805462046FFF750
:1031E800BBFFFFF775F8854200D328462060606072
:1031F80038BD08B5FFF732F9FFF775F808BD38B5DF
:10320800044608B9204638BDFFF728F90546204688
:10321800FFF760F8281AFFF766F80446F2E700009F
:1032280008B54FF480621E491E48FEF7A1F84FF416
:1032380080621D491D48FEF79BF81D481D4B036021
:103248001D4B436000238360C36003610C2242610D
:103258008361036243628362436608F0C5FA98B9E2
:103268000021134808F0AEFB88B90021104808F087
:10327800CEFB78B90E4808F086FB70B901220F49D9
:103288000B4808F029FB08BDFEF74EFEE8E7FEF7FD
:103298004BFEEAE7FEF748FEECE7FEF745FEEDE7F2
:1032A800C0AA0120C8AF0120C0A60120A8B00120F3
:1032B8002CAF01200080004024330300C0AE012061
:1032C80008B51A481A4B03604FF4E13343600023F2
:1032D8008360C36003610C2242618361C36103623E
:1032E8004362836208F080FA98B900210F4808F019
:1032F80069FB88B900210D4808F089FB78B90B48AB
:1033080008F041FB70B901220A49084808F0E4FABC
:1033180008BDFEF709FEE8E7FEF706FEEAE7FEF756
:1033280003FEECE7FEF700FEEDE700BF30A6012044
:1033380000480040A4B0012030B5AFB004460021D9
:1033480029912A912B912C912D91942204A811F066
:1033580020FE2368784A934204D0784A934276D074
:103368002FB030BD202304930023169304A805F042
:10337800F1FD00285CD1724BDA6D42F00102DA658A
:10338800DA6D02F001020092009ADA6C42F0020251
:10339800DA64DB6C03F002030193019B4FF4406392
:1033A800299302232A9300252B952C9508232D93E6
:1033B80029A9644804F008FA6348644B036023238E
:1033C80043608560C5608023036145618561C5618F
:1033D800056204F037F800282DD110215A4804F06E
:1033E800E0F958BB584BE3679C625948594B036056
:1033F80024234360102383600023C360802202617A
:1034080043618361C361036204F01CF8C8B91021E9
:103418004F4804F0C6F9B8B94D4BA3679C62002227
:103428001146422003F05CFF422003F08DFF97E72E
:10343800FEF77AFD9FE7FEF777FDCEE7FEF774FD0E
:10344800D0E7FEF771FDE2E7FEF76EFDE4E704233F
:1034580004930023139304A805F07CFD00285BD196
:10346800374B9A6D42F480229A659A6D02F4802255
:103478000292029ADA6C42F00402DA64DB6C03F01E
:1034880004030393039B3023299302232A930025E3
:103498002B952C9507232D9329A92F4804F094F9EF
:1034A8002E482F4B03601D2343608560C560802331
:1034B800036145618561C561056203F0C3FF0028AA
:1034C8002DD11021254804F06CF958BB234BE36734
:1034D8009C622448244B03601E23436010238360AE
:1034E8000023C3608022026143618361C361036278
:1034F80003F0A8FFC8B910211A4804F052F9B8B966
:10350800184BA3679C62002211463F2003F0E8FE97
:103518003F2003F019FF23E7FEF706FDA0E7FEF7BB
:1035280003FDCEE7FEF700FDD0E7FEF7FDFCE2E77E
:10353800FEF7FAFCE4E700BF0080004000480040C6
:1035480000100240000402423CB001205800024032
:10355800D4AF01206C00024000080242C8A5012037
:103568001C040240C4AE01203004024008B50368C0
:10357800094A934203D0094A934206D008BD084B32
:1035880019780848FDF7FAFEF8E7074B1978074855
:10359800FDF7F4FEF2E700BF00800040004800405D
:1035A800C0AE0120A8B00120A4B00120BCAF01200A
:1035B80038B50C46EFF3108572B60848FDF7F2FEF1
:1035C80018B185F31088012038BD0448FDF7E0FEE6
:1035D800207085F310880020F6E700BFA8B001200E
:1035E80008B5024B1B68984708BD00BFC888012072
:1035F800DFF834D0FFF77EFB002103E00B4B5B586C
:10360800435004310A480B4B42189A42F6D30A4AEF
:1036180002E0002342F8043B084B9A42F9D311F028
:1036280087FCFEF791FBFEE7000003207CB005084D
:1036380000800120848401208484012030B5012089
:10364800FEE7704710B582B0044600238DF80730B6
:1036580001F026FF2378032B06D8DFE803F00219D0
:103668001D21FF238DF8073001226B210DF1070082
:1036780001F00EFF9DF8073023F007038DF807309F
:1036880001226C210DF1070001F002FF02B010BD0C
:1036980010238DF80730E7E740238DF80730E3E77C
:1036A80001238DF80730DFE700B583B08DF80700F8
:1036B80001226B210DF1070001F0EAFE03B05DF86D
:1036C80004FB00B583B001F0EBFE012275210DF17A
:1036D800070001F003FF9DF8070003B05DF804FB45
:1036E80000B583B001226B210DF1070001F0F6FE51
:1036F8009DF8073063F07F038DF8073001226B21B6
:103708000DF1070001F0C4FE03B05DF804FB10B52D
:1037180082B0044600238DF807308DF80630012268
:1037280037210DF1070001F0D9FE012238210DF1F2
:10373800060001F0D3FE9DF80730E4B203F08003E1
:103748008DF807309DF8060000F0DF0004438DF87F
:103758000640012237210DF1070001F099FE0122F0
:1037680038210DF1060001F093FE02B010BD00B53E
:1037780085B08DF80700012238210DF10F0001F006
:10378800ADFE012238210DF1070001F081FE05B0E0
:103798005DF804FB10B582B00446012238210DF112
:1037A800070001F09BFE9DF8073023EA04008DF81E
:1037B8000700012238210DF1070001F069FE02B06F
:1037C80010BD00B585B08DF8070001221A210DF152
:1037D8000F0001F083FE01221A210DF1070001F00C
:1037E80057FE05B05DF804FB00B585B08DF80700FD
:1037F80001221B210DF10F0001F070FE01221B2197
:103808000DF1070001F044FE05B05DF804FB00006F
:1038180030B587B0054600240494ADF814400294EE
:10382800ADF80C408DF8074001221B210DF107006F
:1038380001F054FE0622432104A801F04FFE23465E
:103848000FE05A0006A901EB430111F8080C0132F8
:1038580006AC224412F8082C02EB002221F8102CA6
:103868000133022BEDDD9DF8073003F01803182B08
:103878000ED8DFE803F01A0D0D0D0D0D0D0D110D0D
:103888000D0D0D0D0D0D140D0D0D0D0D0D0D17005C
:10389800DFED116A00231BE0DFED106AFAE7DFEDC8
:1038A800106AF7E7DFED0F6AF4E7DFED0F6AF1E77B
:1038B80006AA02EB430232F9102C07EE902A05EB18
:1038C8008302F8EEE77A87EEA67A82ED007A013372
:1038D800022BEDDD07B030BD0000000000000344FE
:1038E80000008343000003430000804408B501F052
:1038F80063FA08BD8C2874D8DFE800F04775494B97
:103908004D4F515355737373737373737373737329
:10391800737373737373737373737373737373736F
:10392800737373737373737373737373737373735F
:10393800737373737373737373737373737373734F
:10394800737373737373737373737373737373733F
:10395800737373737373737373737373737373732F
:10396800737373737373737373737373737373731F
:10397800737373737373737373737357595B5D5F87
:1039880061636567696B6D6F71000320704705207F
:103998007047042070470D2070470E2070470F2095
:1039A80070470C2070470B2070470A20704706208C
:1039B8007047122070471620704707207047132061
:1039C8007047172070470820704714207047182048
:1039D80070470920704715207047192070471A2032
:1039E80070471B20704702207047000010B588B050
:1039F80006238DF81F300023019302930393049349
:103A080005930693084C2060182201A911F04BFA7F
:103A18000DF11F01054801F003FF2068FFF766FF5D
:103A28009DF81F0008B010BDCC880120B8B0012057
:103A380000293FD070B584B004460E4606238DF8A1
:103A48000F30802805D0832803D0862801D0892804
:103A58001BD17F20FFF74EFF05462046FFF74AFFA0
:103A6800034600962A460DF10F01134801F07BFD2D
:103A78009DF80F301BB19DF80F0004B070BD0DF11B
:103A88000F010D4801F0B4FEF5E7FFF733FF0246DA
:103A980033460DF10F01084801F039FD9DF80F304C
:103AA80013B19DF80F00E8E70DF10F01024801F08E
:103AB8009FFEF6E702207047B8B00120F0B5C9B004
:103AC8000D4614461E4606238DF81F3198B1074649
:103AD8004FF48872002103A811F0FBF9102239462F
:103AE80003A811F0E0F92246294607A811F0DBF9EE
:103AF8001034A4B203AD3046FFF7FCFE02464E9BDD
:103B0800019300942B460DF21F11034801F0BDFDEF
:103B18009DF81F0149B0F0BDB8B0012030B587B09D
:103B2800039206228DF8172090B10C4605461846D8
:103B3800FFF7E0FE024603AB019300942B460DF11C
:103B48001701044801F0D7FD9DF8170007B030BDF4
:103B58000220FBE7B8B0012070B584B01C460623EC
:103B68008DF80F3090B10D4606468CB11046FFF720
:103B7800C1FE02460194009533460DF10F01054838
:103B880001F0FCFD9DF80F0004B070BD0220FBE7BA
:103B98000220F9E7B8B0012070B584B006238DF88B
:103BA8000F30D0B1144606460846FFF7A3FE054677
:103BB8002046FFF79FFE0346094C00962A460DF162
:103BC8000F01204601F0CFFC0DF10F01204601F056
:103BD8000FFE9DF80F0004B070BD0220FBE700BF88
:103BE800B8B001202DE9F04F8BB015469DF8504034
:103BF800DDF8549006228DF82720002B6CD006465D
:103C08000F469846B9F1000F68D0169B002B67D075
:103C1800212C67D8FF285DD0032020238DF824307D
:103C2800FFF768FE82460120FFF764FE034608F1AD
:103C38000108013CE4B209F1010BCDF810B003947E
:103C4800CDF8088009AA01920022009252460DF18F
:103C58002701254801F0B4FC9DF827302BB999F8C5
:103C68000B00C009169B187088B3002306930793AE
:103C780008938DF81860082239460DF1190011F0E3
:103C88001CF98DF821502D0A8DF8225020238DF82B
:103C980023300220FFF72EFE0346CDF810B0039420
:103CA800CDF8088006AA01920122009252460DF131
:103CB80027010D4801F084FC9DF8270028B999F8E0
:103CC8000B30DB09169A13700BB99DF827000BB05F
:103CD800BDE8F08F0120A0E70220F8E70220F6E710
:103CE8000220F4E70520F2E7B8B0012040B108B59A
:103CF80001460822034B186811F0D5F8002008BDCA
:103D080002207047CC880120014B1868704700BF1B
:103D1800CC88012048B108B50146054B186808222F
:103D2800104411F0C0F8002008BD0220704700BF01
:103D3800CC880120014B186808307047CC880120D6
:103D480048B108B50146054B18680422103011F037
:103D5800AAF8002008BD0220704700BFCC880120C7
:103D6800014B186810307047CC88012010B5044604
:103D780004F11400FDF740FD0128F9D0002010BD22
:103D8800F0B585B00546164F012602960024019429
:103D98000094334604223946FDF792FC02960194BA
:103DA800009433463246394605F17C00FDF788FC1D
:103DB80002940194009423464FF48042394605F159
:103DC8002800FDF77DFC029401940094234602220A
:103DD800394605F11400FDF773FC05B0F0BD00BFCE
:103DE800000C024208B5002905DD162909DC02226B
:103DF80001F009FF08BD11F1090FF8DA6FF00801A9
:103E0800F5E71621F3E70520704708B52830FDF7D8
:103E1800F3FC08BD10B504460021FDF745FC012060
:103E2800FDF74EFA01212046FDF73EFC002010BDAB
:103E380090F89000704738B50446FFF7F9FF08B1CD
:103E480007280CD104F17C0500212846FDF72CFC3D
:103E580001212846FDF728FC012384F890302046EC
:103E6800FFF784FF38BD2DE9F84F05460E46934607
:103E78001F46BDF82880FFF7DEFF20B14FF0030989
:103E88004846BDE8F88F814605F17C0A0021504676
:103E9800FDF70AFC002406E0315D05F13C00FEF761
:103EA80099FD0134A4B25C45F6D3002406E0395DDF
:103EB80005F13C00FEF78EFD0134A4B24445F6D36B
:103EC80001215046FDF7F0FB3278737843EA02236C
:103ED80040F21B129342D3D02846FFF747FF814692
:103EE800CEE72DE9F04705468A4691461E46BDF8BD
:103EF8002070FFF7A0FF10B10320BDE8F08705F19F
:103F08007C0800214046FDF7CFFB00244C4508D231
:103F18001AF8041005F13C00FEF75CFD0134A4B268
:103F2800F4E701214046FDF7BFFB2846FFF71EFFD7
:103F380000214046FDF7B8FB05F13C090021484641
:103F4800FEF748FD002406E000214846FEF742FD42
:103F580030550134A4B2BC42F6D301214046FDF7E6
:103F6800A3FB2846FFF702FFC7E72DE9F0470646FF
:103F78000D4690461F46FFF75EFF20B14FF003093C
:103F88004846BDE8F087814606F17C0A0021504684
:103F9800FDF78AFB002408E0295D06F13C00FEF7E6
:103FA80019FD08F804000134A4B2BC42F4D301217D
:103FB8005046FDF779FB2A786B7843EA022340F2F2
:103FC8001B129342DCD03046FFF7D0FE8146D7E77C
:103FD80080F890107047000030B589B004460D464F
:103FE80001F064FF01212046FFF7F2FF2B46032270
:103FF800012104F12800FDF795FA0025059505AB88
:1040080006AA07A9204601F055FF04A9204601F099
:1040180084FFADF80E500DF10E01204601F09EFF11
:10402800204601F0B6FF0F238DF804308DF80550B7
:1040380001238DF8063003238DF8073002258DF80B
:1040480008508DF8095008238DF80B3004238DF89B
:104058000A300DEB0301204601F0BFFF064B1B6839
:1040680000936946204601F009FE2946204601F0E2
:1040780016FD09B030BD00BF509B05080246B0B11F
:10408800002301E00133DBB2142B0FD8094951F8A2
:1040980033109142F6D8591C064850F83100904226
:1040A800F0D9044B03EBC10318797047FEE71F20D2
:1040B800704700BF7C9C050801207047013809281B
:1040C80006D8DFE800F0070D1316181A051C0A10A9
:1040D8000020704743F60950704745F26110704759
:1040E80047F6122070474AF2C32070474FF2244027
:1040F800704704487047044870470448704742F6C0
:10410800B100704748E8010090D0030020A10700E3
:104118009DF80410D20053B908200244183241B166
:1041280002239DF80000184402EBC00070470020ED
:10413800F3E70023F5E7F0B49DF810609DF8184008
:1041480004324D1F012D2DD918B9A1F10B05012DF0
:1041580030D901282AD000279DF81450ED006CB3FF
:10416800102425448800A5EB81054EB300242C4477
:10417800062903D908340FB1881E8000002C21DBE2
:104188000444013C94FBF0F402FB043303F10C00FB
:10419800062901D803F10E00800001300239884059
:1041A800F0BC70470B2BCFD80C23CDE70C2903D0DC
:1041B8000027D1E70127CFE70127CDE70024D0E783
:1041C8001424D4E70024DBE7F0B585B00E46154685
:1041D8001946BDF828209DF82C309DF830709DF8C0
:1041E80034C048B1012812D00125002460190138D3
:1041F800B0FBF5F005B0F0BDCDF804C00097284637
:10420800FFF786FF4FF47A7404FB00F4EEE7CDF86D
:1042180008C00197009313460A4629463046FFF71F
:104228008AFF4FF47A7404FB00F4034B985DFFF7A0
:1042380045FF0546DAE700BF789C050808B5034B3B
:104248001B6813B15B6803B1984708BDD488012087
:1042580008B5034B1B6813B1DB6803B1984708BD69
:10426800D4880120014B01221A707047D0880120A0
:1042780010B5054C0021204601F049FF01212046D8
:10428800FFF7A6FE10BD00BFB8B0012010B5144B53
:104298001860144C14492046FFF79EFE0021204662
:1042A80001F035FF01212046FFF792FE002120464C
:1042B80001F080FE04220021204601F0A4FC002227
:1042C8000A49204601F0B2FE09490A48FEF7C6FE2F
:1042D80009490A48FEF7C2FE094B00221A7010BDB0
:1042E800D4880120B8B001206D420408FC07F80307
:1042F8004542040874B101205942040898B20120CB
:10430800D088012008B50A48FFF792FD072805D88C
:10431800052807D2042807D1022008BD082805D19E
:104328000320FAE70120F8E70020F6E70020F4E789
:10433800B8B0012008B50146014801F092FB08BD5C
:10434800B8B0012000B583B000230193FFF790FFB8
:1043580001A9034801F0EEFE019803B05DF804FBE3
:10436800B8B0012008B5012805D00D4B93F8AF303F
:10437800012B0AD008BD0B4B1970094880F8B710FB
:1043880000F1B40101F01BFCF4E7064B1970044876
:1043980080F8B01000F1AA0101F0E5FBEAE700BFE0
:1043A800B8B001209880012008B5024801F059FDF5
:1043B80008BD00BFB8B0012070B582B006460C46F3
:1043C8001B4D002240F20441284601F02FFE0DF15A
:1043D8000701284601F03CFA9DF80730022B1FD050
:1043E800134880F8B04000F1AA0101F0BCFB104D61
:1043F80022463146284601F034FD0021284601F0C6
:1044080015FB04212846FFF7E3FD0A4C0A4B1968FF
:104418002046FEF7DDFE2046FEF72AFE02B070BDFC
:10442800284685F8B74005F1B40101F0C8FBDEE77E
:10443800B8B0012074B10120E088012030B583B004
:1044480001238DF8043000248DF80540074D2246DD
:104458000199284601F033FE21462846FFF7B8FDAA
:104468000220FCF72DFF03B030BD00BFB8B001201B
:1044780038B50446164D00221649284601F0D6FDE7
:104488000021284601F09EFC6CB9134B1B789BB1A8
:104498000F4C6FF07F41204601F0ADFA062120460F
:1044A800FFF796FD38BD0D4D21462846FEF790FED4
:1044B8002846FEF7DDFDE8E7094B1968044CC903F7
:1044C800204601F098FA05212046FFF781FDE9E72B
:1044D800B8B00120FC07F803DA88012098B201205F
:1044E800DC88012038B5044600221649164801F038
:1044F8009DFD8CB90121144801F064FC134B1B7815
:104508009BB1114C6FF07F41204601F074FA0621EF
:104518002046FFF75DFD38BD0D4D21462846FEF7C4
:1045280057FE2846FEF7A4FDE4E70A4B1968064C37
:10453800C903204601F05FFA05212046FFF748FD30
:10454800E9E700BFFC07F803B8B00120DA880120CA
:1045580098B20120DC88012010B50A46054C0023DA
:104568000146204601F064FB07212046FFF730FD95
:1045780010BD00BFB8B0012010B5044C204601F0B2
:10458800ADFB08212046FFF723FD10BDB8B0012080
:1045980070B50E464FF47A7505FB02F50C4C0146D2
:1045A800204601F05EFA31462046FFF71BFC204604
:1045B80001F0A4FB04212046FFF70AFD054C29461B
:1045C8002046FEF705FE2046FEF752FD70BD00BFEF
:1045D800B8B0012074B1012000B583B000238DF874
:1045E80007300DF10701044801F0BAF99DF90700F9
:1045F80003B05DF804FB00BFB8B0012000B583B07C
:104608008DF8071001230DF107020146024801F059
:1046180000FC03B05DF804FBB8B0012000B583B01E
:10462800014600238DF8073001230DF107020448E5
:1046380001F003FC9DF8070003B05DF804FB00BF20
:10464800B8B0012008B51346C2B2024801F01AFCFE
:1046580008BD00BFB8B0012010B50446084B18705B
:104668005870012000F010F824B10121054801F02C
:10467800AFF910BD0021034801F0AAF9F9E700BF1E
:10468800D8880120B8B0012008B5012807D0012139
:10469800094801F004FA094B00225A7008BD0221AA
:1046A800054801F0FCF9054B5A7818788242F5D094
:1046B8005870FFF7D1FFF1E7B8B00120D888012082
:1046C8002DE9F04F83B00D4616461C46BDF83480E0
:1046D800BDF838909DF83C709DF844A09DF8543082
:1046E8006F4A13700BB14FF000094FB19DF840208D
:1046F8006C4B1A7040B1012872D003B0BDE8F08F3E
:10470800684BFF221A70F5E7674C0021204601F03C
:10471800D2FA4FF0010B84F894B0C4F898600B23D8
:1047280084F89C3005FA0BF0FFF7A8FC84F89D008C
:1047380084F8A8B04FEAC808A4F8AA80042384F82B
:10474800AC30182384F8AD30002384F8AE3087EA03
:104758000B0784F8AF70534B1B7884F8B030BAF16C
:10476800000F38D0062284F8B1204F4C012384F87A
:10477800B230FFF77DFD94F89400013818BF01208E
:10478800FFF782FF04F19801204601F09BF904F13C
:10479800AA01204601F0E7F9444A6B4692E8030073
:1047A80083E803001946204601F0F5F841F221029A
:1047B80041F60F51204601F0C4FA40F2FF1120469D
:1047C80001F0EAFA4FF4FA5202FB09F9B9FBF6F6DE
:1047D800374B1E6091E7344B012283F8B120C4E7C0
:1047E800DFF8C4B00021584601F065FA5FFA89F194
:1047F800584601F093FA02238BF89430F3B28BF801
:10480800A4302C4A525D8BF8A5208BF8A6401DB920
:10481800A6F10B02012A31D9012D2DD0224A0021FF
:1048280082F8A710204A022182F8A810053BDBB2C3
:10483800012B28D91C4BA3F8B4801B4C84F8B67004
:10484800184B1B7884F8B73084F8B8A09DF850301E
:1048580084F8B9300120FFF717FF04F1A4012046BE
:1048680001F064F904F1B401204601F0A8F9104BF5
:104878004FF6FF721A6040E70C2ECFD10A4A012189
:1048880082F8A710CEE7B8F10B0F04D813460C2214
:10489800A3F8B420D1E7044BA3F8B480CDE700BF58
:1048A800DA88012098800120B8B00120549B0508BF
:1048B800DC880120789C05082DE9F0418AB004467F
:1048C8000F4616461D460020FFF7DEFE2046FFF77E
:1048D80031FD4FF00108CDF8248000240894079496
:1048E8000694059404940394029403230193009777
:1048F80023464FF4167239462046FFF7E1FE20465C
:10490800FFF7B6FD4046FCF7DBFCFEF772FC0446F9
:104918002046FEF774FCA84206D20020FFF75CFE92
:10492800B042F5DD002400E00124FFF787FD2046B2
:104938000AB0BDE8F08100002DE9F04782B00C46CE
:10494800BDF830909DF834709DF8388058B1012832
:1049580069D021466148FFF745FA129A604B1A6000
:1049680002B0BDE8F08716465C4D4FF0010A85F8A5
:1049780094A00A9AC5F898200B2285F89C2003FA7F
:104988000AF0FFF77BFB85F89D00C5F8A06085F865
:10499800A8A04FEAC909A5F8AA90042385F8AC3065
:1049A800182385F8AD30002385F8AE3087EA0A076A
:1049B80085F8AF70B8F1000F30D0062285F8B12025
:1049C800464D012385F8B230FFF752FC95F8940064
:1049D800013818BF0120FFF757FE05F19801284656
:1049E80001F070F805F1AA01284601F0BCF83D4A2B
:1049F8006B4692E8030083E803001946284600F056
:104A0800CAFF41F2210241F60F51284601F099F9F7
:104A180040F2FF11284601F0BFF99AE72F4B012217
:104A280083F8B120CCE72D49022281F894200A9A14
:104A3800D2B281F8A4202C48C05C81F8A5009DF86A
:104A48002C0081F8A6001BB90A990B39012934D921
:104A5800012B2FD0214B002183F8A7101F4B0221D7
:104A680083F8A810053AD2B2012A2BD91B4BA3F818
:104A7800B4901A4D85F8B6701C4B1B7885F8B73082
:104A880085F8B8809DF8443085F8B930FFF7F0FB19
:104A980095F89400013818BF0120FFF7F5FD05F1DE
:104AA800A401284601F042F805F1B401284601F0B6
:104AB80086F84EE70A9B0C2BCCD1084B012183F8D2
:104AC800A710CBE7B9F10B0F03D80C22A3F8B42039
:104AD800CFE7024BA3F8B490CBE700BFB8B00120F2
:104AE800E0880120549B0508789C050898800120DF
:104AF80008B50248FFF787F9033008BDB8B00120B0
:104B0800F0B583B005460C46FFF792F907462346F1
:104B18006A4601A9284601F0CDF92168284601F026
:104B2800B0FAEFF3108672B62846FFF76EF901283F
:104B38000ED086F31088236840F204521A420BD133
:104B4800236813F0C80F01D0062F0AD103B0F0BDB7
:104B5800064B01221A70ECE701212846FFF738FAC4
:104B6800EEE701212846FFF733FAEFE7D088012066
:104B7800594B1B7803B9704710B584B0EFF3108315
:104B880072B6554A0021117083F3108803A953485F
:104B9800FFF7B6FF039B13F0040F37D1039B13F005
:104BA800080F3FD1039B13F0800F05D04C4B1B68B7
:104BB80013B11B6903B19847039810F4807F07D09D
:104BC800474B1B6823B19B6913B1C0F3402098473A
:104BD800039B13F4806F67D1039B13F0400F6FD1D1
:104BE800039B13F4002F05D03D4B1B6813B1DB6901
:104BF80003B19847039B13F4801F05D0384B1B68FB
:104C080013B11B6A03B1984704B010BD3548FEF7CD
:104C1800A3FA334B1B68002BC0D01B68002BBDD0F8
:104C28009847BBE73048FEF797FA2C4C02A9204674
:104C380000F01EFE9DF808309DF809202B492046FB
:104C480001F020F90DF10701204600F001FE9DF862
:104C58000730022B13D02649204800F023FE204BB2
:104C68001B68002B9ED09C68002C9BD00023204AF8
:104C780092F901209DF808101C48A04792E71D49A9
:104C8800204600F043FE164B1B68002B8AD09C6818
:104C9800002C87D0174A92F9013092F900209DF82C
:104CA80008101248A0477DE70F48FEF755FA0C4B4D
:104CB8001B68002B90D0DB68002B8DD098478BE7C2
:104CC8000948FEF749FA064B1B68002B88D0DB68B9
:104CD800002B85D0984783E7D0880120B8B0012001
:104CE800D488012074B1012098B2012098B1012024
:104CF8008CB10120B4B0012010B582B00190084BEE
:104D08001B7803EBC30318014FF47A73012201A93E
:104D1800044C204406F0BFFC019802B010BD00BF4F
:104D2800E4880120B0B2012008B5022000F00EFB93
:104D380083B20248B0FBF3F080B208BD387B4C0068
:104D48000120704710B5FFF7EFFF0446154B188098
:104D5800FFF7F6FF10B340F6B7339C421DD8A4F610
:104D680061139BB240F2562293420FD8A4F5166401
:104D7800C4EB841304EB83040B4880FB0430E41772
:104D8800C4EBA010C0B20130C0B207E0A4F6FD0425
:104D9800A4B2632C03D8012000E0FE2010BDFF2040
:104DA800FCE700BF9A800120B5814E1B014B1868B3
:104DB800704700BF9005FA0B10B410490A68104BF1
:104DC8001C682244120EC2710A681C682244120C24
:104DD80082710A681C682244120A42710A681968BA
:104DE8000A440271DA78C2705A8882701A68120A04
:104DF80042701B6803705DF8044B70479005FA0B0E
:104E08009405FA0B08B572B6FCF728FE62B608BD21
:104E1800EFF3108372B6BFF34F8F0549CA6802F4E7
:104E2800E062044B1343CB60BFF34F8F00BFFDE735
:104E380000ED00E00400FA052DE9F04F304A02EBDE
:104E48005002B2FBF0F02F4B2C2202FB01335A6ABE
:104E5800D9680A44323A996ACD1C00FB15251A69AB
:104E68001C6A121BA2F58272043101FB10275B69D0
:104E780004EB030E002D05DD002F05DD00264FF0A5
:104E8800100836E00025F7E70027F7E701320F2A78
:104E980020D802FB01F300FB03F39D42F6D89F42A2
:104EA800F4D3B045F2D0DFF86080D8F80030DFF8EE
:104EB8005CA003EB830B0AEB8B094AF82B60C9F85B
:104EC8000440C9F808200133C8F800307F2B14D8F3
:104ED800B046DBE764460F2C0AD804F1010C711CBC
:104EE80004FB011300FB03F39E45F3D80022CEE731
:104EF80001360F2E01D80024EDE7BDE8F08F00BF82
:104F080000CA9A3B989D0508F0920120F08801207C
:104F18002DE9F04F89B08C46454B03EB5001B1FBAE
:104F2800F0FA44482C2202FB0CF28118825803EB59
:104F38005200B0FBF2F005908A6A0AFB02F2049272
:104F48004A68B3FBF2FB8A68B3FBF2F903900023CB
:104F580006934FF0FF33079355E0CA1A20E028461E
:104F6800FF282CD8451C00FB044242447244BB185D
:104F780030492C2606FB0C110E6A33444E6A334422
:104F88009945ECD89B45EAD32A4E2C2101FB0C61AC
:104F9800C9699142E3D89245E1D205995A1ADCD4FD
:104FA800039B9A42DBD2069E06EB8601224B03EB5B
:104FB800810301991961D86003920796CFE7029B94
:104FC8000193019BFF2B1BD8049901F1320E019B21
:104FD8005A1C029203FB04474FEA4A0807EB4A07A8
:104FE8007744144A2C2303FB0C239B69BB42E6D26B
:104FF800A7F132035B1ABAEB930FE0D20020AFE7B8
:10500800069B013306930D4B1B68069A93420AD9F7
:10501800069B03EB8303084A52F8234004FB0AA4C7
:1050280000230193CDE7079809B0BDE8F08F00BFD2
:1050380000CA9A3B989D0508F0880120F09201204B
:1050480038B5054608B1A9BB0D46284638BD013418
:10505800022C31D81A4A2C2303FB04235B688B42A9
:10506800F5D82C2303FB04239B688B42EFD32146FE
:105078002846FFF7E1FE21462846FFF749FF7F282B
:105088001CD8104A00EB800302EB830152F823403E
:105098004B681D0505F4700545EA04758B681B040B
:1050A80003F470231D43CB681B029BB21D430B7C8A
:1050B8001D43CAE70024CBE70025C6E70025C4E75F
:1050C800989D0508F088012010B584B042F210744C
:1050D8000294BDF818400194009313460A4601460D
:1050E800124803F089FA10B9002004B010BD0F4827
:1050F80003F06EFC10F0010F0BD110F0020F0BD172
:1051080010F0040F0BD110F0600F0BD06FF063009C
:10511800EBE76FF06600E8E76FF06400E5E76FF033
:105128006500E2E76FF00300DFE700BFF4920120BB
:1051380010B584B042F210740294BDF8184001947E
:10514800009313460A460146124803F029FB10B99A
:10515800002004B010BD0F4803F03AFC10F0010F16
:105168000BD110F0020F0BD110F0040F0BD110F07F
:10517800600F0BD06FF06300EBE76FF06600E8E7B5
:105188006FF06400E5E76FF06500E2E76FF0030099
:10519800DFE700BFF492012010B5084C4FF480718E
:1051A800204602F0DDFB4FF40071204602F0D8FBE8
:1051B800034A936D23F40013936510BD0004024263
:1051C8000010024070B588B01F4CA36D43F08053A7
:1051D800A365A36D03F080530093009B03F086FC46
:1051E800E36C43F00203E364E36C03F0020301930E
:1051F800019B4FF4807303931223049300230593B8
:105208000223069304260796104D03A9284602F0A8
:10521800DBFA4FF400730393079603A9284602F0BC
:10522800D3FAA36D43F40013A365A36D03F400132D
:105238000293029BA36B43F40013A363A36B23F4B1
:105248000013A36308B070BD0010024000040242BE
:1052580000B583B0009313460122FFF735FF03B072
:105268005DF804FB00B583B0009313460122FFF7F5
:105278005FFF03B05DF804FB08B50D48002380F814
:105288004130436783670B4A092103F04DF948B958
:10529800094A0A21064803F047F930B9074B0122A9
:1052A8001A6008BD6FF00300FBE76FF00300F8E732
:1052B800F4920120CD510408A1510408E888012086
:1052C80008B57C22164917480FF056FE164B1B6886
:1052D8004BB10020144B1B68B3F1FF3F02D00133E0
:1052E800114A136008BD0F4803F06FFB98B90F4BC4
:1052F8001B6813B9FFF7C0FF78B90D490D4B186843
:10530800FFF79EFE01460748FCF7DCFA0028E1D0CB
:105318006FF00700DEE70020DCE76FF00900D9E74F
:1053280018A20120F4920120EC880120E8880120CD
:10533800A08601006080012008B5002210210248E3
:1053480002F0AFFB002008BD0004024208B540B1DE
:10535800012819D002220021154801F039FE002049
:1053680008BD144801F0BAFD124801F0F1FC10F430
:10537800007F05D14FF47A710E4801F0B9F8F3E7D0
:105388000C4801F0ECFEEAE7094801F0A7FD0848DF
:1053980001F0DEFC10F4007F05D14FF47A71044867
:1053A80001F0A6F8F3E7024801F0D9FED7E700BFFD
:1053B8001CA1012088A0012030B583B00C4630B173
:1053C800012809D000230B60002003B030BD10482D
:1053D80001F012F92060F7E70022ADF804200D4D26
:1053E8001021284602F05DFB4FF47A73022201A9CE
:1053F800094805F084F801221021284602F051FBE3
:105408009DF805209DF8043043EA02232360DBE77A
:1054180088A0012000000242B8A3012030B583B063
:10542800144B9B689847922802D0012003B030BDE6
:10543800114D104B2B6003228DF8002000248DF8AD
:1054480001408DF8022002228DF803208DF80440D7
:105458008DF8054018228DF806201B686846984785
:105468002B689B6A204698472B68DB6A1B20984765
:105478002046DBE7648001207093012008B5034BC8
:105488001B681B6B03B1984708BD00BF70930120D0
:1054980008B513460246D220FFF7DAFE08BD000021
:1054A80000B583B081238DF80730FFF709FF00228C
:1054B8000221094802F0F5FA3220FBF701FF012228
:1054C8006B210DF10700FFF7E3FF6420FBF7F8FEFF
:1054D80003B05DF804FB00BF0010024208B5134694
:1054E8000246D320FFF7BEFE08BD30B4BDF8085011
:1054F8000C0A0470417082700022AA4205D2D11CA5
:105508009C5C4454013292B2F7E730BC704770B5E6
:1055180088B00E4600240394049405940694CDF8AC
:105528001B408DF8084005218DF80C1002218DF8DC
:105538000D108DF80E2022460F2A08D8D41C9D5C29
:1055480008A90C4404F8145C0132D2B2F4E7012330
:10555800009302AB132203A9FEF7C3FC9DF80830A1
:10556800337008B070BD70B588B00E460C9D00242D
:1055780004940594069407948DF8084005218DF845
:105588000C1003218DF80D108DF80E208DF80F30BA
:1055980023460F2B08D81A1DEC5C08A90A4402F808
:1055A800144C0133DBB2F4E70123009302AB14225D
:1055B80003A9FEF796FC9DF80830337008B070BD5B
:1055C8002DE9F04F9BB002908846914603939DF8D1
:1055D80090B0259F269E9DF89C40289D4FF0000A7C
:1055E8002D2251460EA80FF0D4FCCDF810A01D2294
:1055F800514605A80FF0CDFCBBF1000F1AD10121CF
:1056080005238DF8343004238DF835308DF8369025
:10561800039B8DF837308DF838B000238B420BD2BE
:105628005A1DF85C0DF1680C624402F8340C013321
:10563800DBB2F3E70C21E3E70023A34209D24A1DBA
:105648001A44F05C1AAF3A4402F8340C0133DBB266
:10565800F3E762180532631C009304AB92B20DA9FC
:105668000298FEF73EFC9DF8103088F800300023C1
:1056780006E05A1C1AA9114411F8581CE954D3B26F
:10568800A342F6D31BB0BDE8F08F2DE9F047C6B0B2
:1056980007460E4691469A46BDF83841DDF83C81EA
:1056A80000250595FF22294606A80FF072FC0395F0
:1056B8008DF81050009453464A4640F2055105A80B
:1056C800FFF713FFE21C0523009303AB92B205A971
:1056D8003846FEF706FC9DF80C30337033B107E00E
:1056E8005A1C03A9895C08F80310D3B2032BF7D915
:1056F80046B0BDE8F0872DE9F047C6B007460E462C
:1057080092461D46BDF83841DDF83C914FF000083F
:10571800CDF8108040F20312414605A80FF039FC7D
:105728008DF80C8005238DF8103006238DF8113084
:105738008DF812A0424606E0D31C19F8020004A90D
:10574800C8540132D2B2032AF6D9002205E0D31D8B
:10575800A85C04A9C854013292B2A242F7D3E21D50
:105768000123009303AB92B204A93846FEF7B9FBB4
:105778009DF80C30337046B0BDE8F0872DE9F0474E
:10578800ADF5047D80460F4691469A46BDF83052E5
:105798008D9E00244394FF22214644A80FF0F9FB74
:1057A8000294FD22214603A80FF0F3FB009553460F
:1057B8004A4640F2075143A8FFF797FEEA1C6B1CC4
:1057C8009BB2009302AB92B243A94046FEF789FB15
:1057D8009DF808303B702146A94205D24B1C02AA0D
:1057E800D25C725499B2F7E70DF5047DBDE8F087F5
:1057F80010B584B00C4600238DF8083005238DF8C9
:105808000C300A238DF80D300123009302AB0222DD
:1058180003A9FEF766FB9DF80830237004B010BD9D
:1058280010B584B00C4600238DF8083005238DF898
:105838000C300B238DF80D300123009302AB0222AC
:1058480003A9FEF74EFB9DF80830237004B010BD85
:1058580000B585B00B4602228DF80C208DF80D207E
:105868000121009103A9FEF73CFB05B05DF804FB9C
:1058780010B584B00C460023ADF8083002228DF82C
:105888000C2003238DF80D30009202AB03A9FEF71C
:1058980028FB28B99DF8083023709DF809306370FB
:1058A80004B010BD10B584B00C4600230293022248
:1058B8008DF80C2004238DF80D30009302AB03A95A
:1058C800FEF70FFB00BB9DF808305B085B422370B6
:1058D8009DF809305B085B4263709DF80A30A3703D
:1058E8009DF80B30C3F34012E270C3F3001222712B
:1058F800C3F3C0026271C3F38002A271C3F3400212
:10590800E27103F00103237204B010BD10B584B036
:105918000C46124B1B88ADF8083000238DF80A306E
:1059280002228DF80C2004238DF80D3003230093F8
:1059380002AB03A9FEF7D5FA70B99DF808305B08E9
:105948005B4223709DF9093002339B1063709DF808
:105958000A305B085B42A37004B010BD5C9B05086D
:1059680010B584B00C4600238DF80B3002228DF858
:105978000C2005238DF80D30012300930DF10B0346
:1059880003A9FEF7AEFA20B99DF80B305B085B421D
:10599800237004B010BD10B586B002238DF80C300A
:1059A80006238DF80D30002308E09A1CCC5C0DF11D
:1059B800180C624402F80C4C0133DBB2072BF4D903
:1059C800002300930A2203A9FEF74DFA06B010BD82
:1059D80000B585B002238DF80C3008238DF80D3002
:1059E8008DF80E1000230093032203A9FEF73BFA5B
:1059F80005B05DF804FB00B585B002238DF80830CA
:105A080009238DF80930C1F307438DF80A30C1F333
:105A180007238DF80B308DF80C1000230093052216
:105A280002A9FEF720FA05B05DF804FB00B585B0C1
:105A380002238DF808300A238DF80930C1F3074393
:105A48008DF80A30C1F307238DF80B308DF80C1050
:105A580000230093052202A9FEF705FA05B05DF8B8
:105A680004FB00B585B002238DF808300B238DF8B0
:105A780009300B0E8DF80A30C1F307438DF80B304F
:105A8800C1F307238DF80C308DF80D100023009317
:105A9800062202A9FEF7E7F905B05DF804FB00B598
:105AA80085B002238DF80C300E238DF80D308DF85B
:105AB8000E1000230093032203A9FEF7D4F905B0C2
:105AC8005DF804FB00B587B002238DF80C300F2376
