:020000040804EE
:10000000000003209D400408ED400408ED40040872
:10001000E1320408ED400408E3320408ED4004082E
:10002000000000000000000000000000E5320408AD
:10003000ED40040800000000E7320408E93204083B
:10004000ED400408ED400408A12C0408ED4004082C
:10005000ED400408ED400408ED400408ED400408BC
:10006000ED400408ED400408ED4004087D19040843
:1000700087190408911904089B190408A519040894
:10008000AF190408B9190408C3190408CD190408E4
:10009000D9190408E5190408F1190408FD19040820
:1000A000091A0408151A0408211A0408ED40040866
:1000B000ED400408F1320408013304080333040856
:1000C00005330408153304082D330408ED400408F3
:1000D000ED4004083D330408ED400408ED400408F9
:1000E000ED400408553304086533040875330408EB
:1000F00085330408ED400408ED400408ED40040891
:10010000ED40040895330408ED400408ED40040870
:10011000ED400408ED400408ED400408A533040850
:10012000B5330408ED400408ED400408C533040865
:10013000D5330408ED400408E5330408F53304081A
:10014000ED400408ED40040805340408ED400408BF
:10015000ED400408ED400408ED400408ED400408BB
:10016000ED40040815340408ED400408ED4004088F
:10017000ED40040800000000ED400408000000000D
:10018000ED4004082534040835340408ED40040823
:10019000ED400408ED400408ED400408ED4004087B
:1001A000ED400408ED400408ED400408ED4004086B
:1001B000ED400408000000004534040855340408EC
:1001C000ED40040800000000ED4004085934040824
:1001D000ED400408ED400408ED400408ED4004083B
:1001E000ED400408ED400408ED40040869340408BB
:0401F000000000000B
:1001F80010B5054C237833B9044B13B1044800E01B
:1002080000BF0123237010BD2886012000000000D4
:10021800F008060808B5034B1BB10349034800E082
:1002280000BF08BD000000002C860120F008060869
:10023800034613F8012B002AFBD1181A013870471E
:1002480081F0004102E000BF83F0004330B54FEA7F
:1002580041044FEA430594EA050F08BF90EA020FEC
:100268001FBF54EA000C55EA020C7FEA645C7FEA7F
:10027800655C00F0E2804FEA5454D4EB5555B8BFA2
:100288006D420CDD2C4480EA020281EA030382EA13
:10029800000083EA010180EA020281EA0303362DA5
:1002A80088BF30BD11F0004F4FEA01314FF4801C78
:1002B8004CEA113102D0404261EB410113F0004F8A
:1002C8004FEA03334CEA133302D0524263EB430341
:1002D80094EA050F00F0A780A4F10104D5F1200EDF
:1002E8000DDB02FA0EFC22FA05F2801841F100013A
:1002F80003FA0EF2801843FA05F359410EE0A5F10E
:1003080020050EF1200E012A03FA0EFC28BF4CF03E
:10031800020C43FA05F3C01851EBE37101F00045F4
:1003280007D54FF0000EDCF1000C7EEB00006EEB01
:100338000101B1F5801F1BD3B1F5001F0CD349088B
:100348005FEA30004FEA3C0C04F101044FEA4452E2
:1003580012F5800F80F09A80BCF1004F08BF5FEA69
:10036800500C50F1000041EB045141EA050130BD49
:100378005FEA4C0C404141EB0101013C28BFB1F55B
:10038800801FE9D291F0000F04BF01460020B1FAA6
:1003980081F308BF2033A3F10B03B3F120020CDA79
:1003A8000C3208DD02F1140CC2F10C0201FA0CF057
:1003B80021FA02F10CE002F11402D8BFC2F1200CBC
:1003C80001FA02F120FA0CFCDCBF41EA0C01904072
:1003D800E41AA2BF01EB0451294330BD6FEA0404BB
:1003E8001F3C1CDA0C340EDC04F11404C4F12002A6
:1003F80020FA04F001FA02F340EA030021FA04F3B8
:1004080045EA030130BDC4F10C04C4F1200220FA0E
:1004180002F001FA04F340EA0300294630BD21FA4C
:1004280004F0294630BD94F0000F83F4801306BF12
:1004380081F480110134013D4EE77FEA645C18BF06
:100448007FEA655C29D094EA050F08BF90EA020F9D
:1004580005D054EA000C04BF1946104630BD91EA95
:10046800030F1EBF0021002030BD5FEA545C05D198
:100478004000494128BF41F0004130BD14F58004D7
:100488003CBF01F5801130BD01F0004545F0FE414B
:1004980041F470014FF0000030BD7FEA645C1ABF80
:1004A800194610467FEA655C1CBF0B46024650EAB7
:1004B800013406BF52EA033591EA030F41F40021E3
:1004C80030BD00BF90F0000F04BF0021704730B569
:1004D8004FF4806404F132044FF000054FF000013E
:1004E80050E700BF90F0000F04BF0021704730B5FF
:1004F8004FF4806404F1320410F0004548BF4042D4
:100508004FF000013EE700BF42004FEAE2014FEA28
:1005180031014FEA02701FBF12F07F4393F07F4F03
:1005280081F06051704732F07F4208BF704793F006
:100538007F4F04BF41F40021704730B54FF4607419
:1005480001F0004521F000411CE700BF50EA01021C
:1005580008BF704730B54FF000050AE050EA0102C5
:1005680008BF704730B511F0004502D5404261EB35
:1005780041014FF4806404F132045FEA915C3FF476
:10058800D8AE4FF003025FEADC0C18BF03325FEA13
:10059800DC0C18BF033202EBDC02C2F1200300FAC4
:1005A80003FC20FA02F001FA03FE40EA0E0021FAE9
:1005B80002F11444BDE600BF70B54FF0FF0C4CF4D7
:1005C800E06C1CEA11541DBF1CEA135594EA0C0F89
:1005D80095EA0C0F00F0DEF82C4481EA030621EAC4
:1005E8004C5123EA4C5350EA013518BF52EA0335FF
:1005F80041F4801143F4801338D0A0FB02CE4FF0B1
:100608000005E1FB02E506F00042E0FB03E54FF0E0
:100618000006E1FB03569CF0000F18BF4EF0010ED8
:10062800A4F1FF04B6F5007F64F5407404D25FEAD4
:100638004E0E6D4146EB060642EAC62141EA555187
:100648004FEAC52040EA5E504FEACE2EB4F1FD0CC9
:1006580088BFBCF5E06F1ED8BEF1004F08BF5FEA47
:10066800500E50F1000041EB045170BD06F00046F9
:1006780046EA010140EA020081EA0301B4EB5C04A6
:10068800C2BFD4EB0C0541EA045170BD41F480119E
:100698004FF0000E013C00F3AB8014F1360FDEBFC3
:1006A800002001F0004170BDC4F10004203C35DA9F
:1006B8000C341BDC04F11404C4F1200500FA05F322
:1006C80020FA04F001FA05F240EA020001F00042C3
:1006D80021F0004110EBD37021FA04F642EB060139
:1006E8005EEA430E08BF20EAD37070BDC4F10C0463
:1006F800C4F1200500FA04F320FA05F001FA04F227
:1007080040EA020001F0004110EBD37041F1000112
:100718005EEA430E08BF20EAD37070BDC4F120051D
:1007280000FA05F24EEA020E20FA04F301FA05F285
:1007380043EA020321FA04F001F0004121FA04F22D
:1007480020EA020000EBD3705EEA430E08BF20EAFD
:10075800D37070BD94F0000F0FD101F00046400037
:1007680041EB010111F4801F08BF013CF7D041EAB9
:10077800060195F0000F18BF704703F000465200BD
:1007880043EB030313F4801F08BF013DF7D043EA8E
:100798000603704794EA0C0F0CEA135518BF95EA44
:1007A8000C0F0CD050EA410618BF52EA4306D1D1CB
:1007B80081EA030101F000414FF0000070BD50EAEA
:1007C800410606BF1046194652EA430619D094EA74
:1007D8000C0F02D150EA013613D195EA0C0F05D15E
:1007E80052EA03361CBF104619460AD181EA0301B2
:1007F80001F0004141F0FE4141F470014FF000006A
:1008080070BD41F0FE4141F4780170BD70B54FF004
:10081800FF0C4CF4E06C1CEA11541DBF1CEA135584
:1008280094EA0C0F95EA0C0F00F0A7F8A4EB050466
:1008380081EA030E52EA03354FEA013100F088805D
:100848004FEA03334FF0805545EA131343EA126326
:100858004FEA022245EA111545EA10654FEA0026DB
:100868000EF000419D4208BF964244F1FD0404F594
:10087800407402D25B084FEA3202B61A65EB0305F0
:100888005B084FEA32024FF480104FF4002CB6EBAD
:10089800020E75EB030E22BFB61A754640EA0C002D
:1008A8005B084FEA3202B6EB020E75EB030E22BF6D
:1008B800B61A754640EA5C005B084FEA3202B6EBAE
:1008C800020E75EB030E22BFB61A754640EA9C006D
:1008D8005B084FEA3202B6EB020E75EB030E22BF3D
:1008E800B61A754640EADC0055EA060E18D04FEAFB
:1008F800051545EA16754FEA06164FEAC30343EA9B
:1009080052734FEAC2025FEA1C1CC0D111F4801F67
:100918000BD141EA00014FF000004FF0004CB6E760
:1009280011F4801F04BF01430020B4F1FD0C88BFFF
:10093800BCF5E06F3FF6AFAEB5EB030C04BFB6EB0A
:10094800020C5FEA500C50F1000041EB045170BDFD
:100958000EF0004E4EEA113114EB5C04C2BFD4EB2A
:100968000C0541EA045170BD41F480114FF0000EAE
:10097800013C90E645EA060E8DE60CEA135594EA2A
:100988000C0F08BF95EA0C0F3FF43BAF94EA0C0F2D
:100998000AD150EA01347FF434AF95EA0C0F7FF4A2
:1009A80025AF104619462CE795EA0C0F06D152EAF6
:1009B80003353FF4FDAE1046194622E750EA4106DA
:1009C80018BF52EA43067FF4C5AE50EA41047FF4EB
:1009D8000DAF52EA43057FF4EBAE12E74FF0FF3C50
:1009E80006E000BF4FF0010C02E000BF4FF0010C21
:1009F8004DF804CD4FEA410C7FEA6C5C4FEA430C9A
:100A080018BF7FEA6C5C1BD001B050EA410C0CBFE8
:100A180052EA430C91EA030F02BF90EA020F00204A
:100A2800704710F1000F91EA030F58BF994208BFB1
:100A380090422CBFD8176FEAE37040F0010070476E
:100A48004FEA410C7FEA6C5C02D150EA013C07D1C5
:100A58004FEA430C7FEA6C5CD6D152EA033CD3D010
:100A68005DF8040B704700BF8446104662468C460A
:100A78001946634600E000BF01B5FFF7B7FF00283D
:100A880048BF10F1000F01BD4DF808EDFFF7F4FF66
:100A98000CBF012000205DF808FB00BF4DF808EDF1
:100AA800FFF7EAFF34BF012000205DF808FB00BF14
:100AB8004DF808EDFFF7E0FF94BF012000205DF836
:100AC80008FB00BF4DF808EDFFF7CEFF94BF0120EB
:100AD80000205DF808FB00BF4DF808EDFFF7C4FFE4
:100AE80034BF012000205DF808FB00BF4FEA410C2D
:100AF8007FEA6C5C02D150EA013C0AD14FEA430C10
:100B08007FEA6C5C02D152EA033C02D14FF000004C
:100B180070474FF0010070474FEA410212F500128A
:100B280015D211D56FF47873B3EB625212D94FEA2C
:100B3800C12343F0004343EA505311F0004F23FA16
:100B480002F018BF404270474FF00000704750EA6B
:100B5800013005D111F0004008BF6FF00040704728
:100B68004FF00000704700BF4A0011D212F5001282
:100B780011D20DD56FF47873B3EB62520ED44FEAED
:100B8800C12343F0004343EA505323FA02F070476D
:100B98004FF00000704750EA013002D14FF0FF30AB
:100BA80070474FF0000070474FEA4102B2F1E0434E
:100BB80024BFB3F5001CDCF1FE5C0DD901F0004C3C
:100BC8004FEAC0024CEA5070B2F1004F40EB83008C
:100BD80008BF20F00100704711F0804F21D113F1B8
:100BE8003872BCBF01F00040704741F480114FEAF1
:100BF8005252C2F11802C2F1200C10FA0CF320FA7A
:100C080002F018BF40F001004FEAC1234FEAD32396
:100C180003FA0CFC40EA0C0023FA02F34FEA430300
:100C2800CCE77FEA625307D150EA01331EBF4FF089
:100C3800FE4040F44000704701F0004040F0FE40A4
:100C480040F40000704700BF53B94AB9002908BFF3
:100C580000281CBF4FF0FF314FF0FF3000F0B6B94D
:100C6800ADF1080C6DE904CE00F03CF8DDF804E0C5
:100C7800DDE9022304B0704738B50022002304469A
:100C88000D46FFF70BFF28B920462946BDE8384036
:100C980000F00AB8204605F1004100F005F840428E
:100CA80061EB410138BD00BFD0B500220B4B0646B1
:100CB8000F46FFF781FCFFF757FF0446FFF702FCDA
:100CC8000022074BFFF778FC02460B4630463946B0
:100CD800FFF7BAFAFFF748FF2146D0BD0000F03D04
:100CE8000000F0412DE9F04F099D04468846002B8D
:100CF80040F084808A42174643D9B2FA82F242B160
:100D0800C2F120009140974024FA00F0944040EA54
:100D180001084FEA174C230C1FFA87FEB8FBFCF6B4
:100D28000CFB168106FB0EF043EA0143984207D9F3
:100D3800FB1806F1FF3102D2984200F231810E46CB
:100D4800191AA3B2B1FBFCF00CFB101100FB0EFE4C
:100D580043EA0144A64507D93C1900F1FF3302D202
:100D6800A64500F21A81184640EA0640A4EB0E0494
:100D780000261DB1D4400023C5E900433146BDE833
:100D8800F08F02B9FFDEB2FA82F2002A52D1CB1BF1
:100D98004FEA174E1FFA87F80126210CB3FBFEFC19
:100DA8000EFB1C3008FB0CF941EA004189450BD9C0
:100DB80079180CF1FF332CBF01200020894502D996
:100DC800002800F0F0809C46A1EB0901A3B2B1FB1A
:100DD800FEF00EFB101108FB00F843EA0144A045A1
:100DE80007D93C1900F1FF3302D2A04500F2D280A6
:100DF8001846A4EB080440EA0C40BAE78B4209D92C
:100E0800002D00F0BE800026C5E9000130463146BD
:100E1800BDE8F08FB3FA83F6002E4DD18B42C0F0B7
:100E2800B380824240F2B0803046002DA6D0C5E99A
:100E38000048A3E79740C2F1200301FA02F04FEA05
:100E4800174ED94024FA03F31FFA87F89440034356
:100E5800B1FBFEF01E0C0EFB101100FB08FC46EA6D
:100E680001418C450ED9791800F1FF362CBF4FF09F
:100E780001094FF000098C4503D9B9F1000F00F0C2
:100E880096803046A1EB0C019BB2B1FBFEF60EFB3F
:100E9800161106FB08FC43EA01418C4507D979186D
:100EA80006F1FF3302D28C4500F288801E46A1EB82
:100EB8000C0346EA004670E7C6F1200703FA06F479
:100EC80002FA06FC01FA06FEFA4020FA07F8F94091
:100ED80000FA06F3224348EA0E044FEA12484FEAA2
:100EE800144E1FFA82F9B1FBF8FA08FB1A110AFB33
:100EF80009F04EEA014E70450ED912EB0E0E0AF1BA
:100F0800FF312CBF4FF0010B4FF0000B704502D999
:100F1800BBF1000F4ED08A46AEEB000EA4B2BEFB6A
:100F2800F8F008FB10EE00FB09F944EA0E4EF14513
:100F380007D912EB0E0E00F1FF3101D2F14540D86E
:100F4800084640EA0A40AEEB090EA0FB0C89CE45E4
:100F580041464C4602D306D1434504D20138B8EB8A
:100F68000C0169EB02047DB35A1A6EEB040EF240D1
:100F78000EFA07F72EFA06F300261743C5E90073A1
:100F8800FCE62E462846F9E6841A61EB03010120A7
:100F980088464AE702383C442BE702383C44E3E6FB
:100FA800023E3B44CCE6ACF1020C39440CE7023873
:100FB800394467E7AAF1020A9644ADE7023E39448C
:100FC80075E702389644BCE72E46D7E6704700BF5F
:100FD80000B58BB0002307930893099301930293FC
:100FE80003930493059306933648374A0260436097
:100FF8008360C36001220261082141610376437660
:101008000421C16180F820208362C36280F83030F7
:101018004FF48052426380F8383006F013FA002803
:101028003BD10023079307A9264807F0A3FC002813
:1010380036D1264B019306230293002303937F2284
:1010480004920422059206930DEB02011D4806F056
:1010580023FE40BB1E4B01930C23029301A91948A0
:1010680006F01AFE10BB194B01931223029301A933
:10107800144806F011FEE0B9164B019318230293A9
:1010880001A9104806F008FEB0B97F210D4807F005
:10109800FFFBA0B90BB05DF804FB01F08FF9C0E7C6
:1010A80001F08CF9C5E701F089F9D3E701F086F979
:1010B800D9E701F083F9DFE701F080F9E5E701F00E
:1010C8007DF9E7E72CA5012000800242000084CBCF
:1010D800000052C70100008000B587B000230093CC
:1010E800019302930393049305931E481E4A0260DA
:1010F80043608360C36003610422426103764376E0
:101108000122C26180F820308362C36280F83030E7
:101118004FF48052426380F8383006F093F9B8B93A
:10112800124B009306230193002302937F2203921C
:1011380004220492059369460A4806F0ADFD50B9A9
:101148007F21084807F0A4FB40B907B05DF804FB0D
:1011580001F034F9E4E701F031F9F1E701F02EF993
:10116800F3E700BF98A4012000810242001060321A
:1011780030B5AFB00446002129912A912B912C91CA
:101188002D91942204A81AF008FE23685E4A93421F
:1011980004D05E4A93426FD02FB030BD4FF48043E5
:1011A80004934FF080532493012305930693182347
:1011B800079307230893022309930A934FF0807338
:1011C8000B9304A80BF04AF8002841D1504A136841
:1011D80001331360012B3ED04E4BDA6C42F0020211
:1011E800DA64DB6C03F002030193019B0223299369
:1011F80003232A9300252B9529A9474808F0C0F90D
:101208004648474B0360052343608560C5608023DB
:1012180003614FF4807343614FF48063836120233B
:10122800C3614FF40053036207F03CFEF0B910218C
:101238003A4808F031F9E0B9384B23659C6200223E
:101248000321252007F092FC252007F0D5FCA3E711
:1012580001F0B4F8BAE72F4BDA6C42F40052DA64C2
:10126800DB6C03F400530093009BB5E701F0A6F88C
:10127800DDE701F0A3F8DFE74FF4804304934FF074
:101288008053249301230593069318230793072378
:101298000893022309930A934FF080730B9304A8D1
:1012A8000AF0DCFF10BB1A4A136801331360012BE4
:1012B8001FD0184BDA6C42F00102DA64DB6C03F0E1
:1012C80001030393039B8023299303242A94002575
:1012D8002B9529A9134808F053F92A4621462520B9
:1012E80007F044FC252007F087FC55E701F066F875
:1012F800D9E7084BDA6C42F40052DA64DB6C03F489
:1013080000530293029BD4E700800242008102420C
:10131800448601200010024000040242C0A50120BA
:101328008000024000000242014B01221A707047FF
:1013380000800120014B00221A70704700800120B4
:1013480008B5034B00221A7001F038F808BD00BF39
:101358000080012008B50848084B0360002303718A
:101368004371436183610123036207F079FC00B98B
:1013780008BD01F023F8FBE730A601200030024049
:101388000268094B9A4200D0704782B0A3F5005317
:101398009A6C42F480529A649B6C03F480530193D4
:1013A800019B02B0704700BF0030024008B501F051
:1013B800EEFB08BD10B584B0324B9A6C42F00402C3
:1013C8009A649A6C02F004020192019A9A6C42F0B3
:1013D80001029A649A6C02F001020292029A9A6CD3
:1013E80042F002029A649B6C03F002030393039B8E
:1013F800002211461D2007F0B9FB1D2007F0FCFB59
:10140800214AD368214B002483F81E434FF08041C2
:101418001960D26883F81F434FF000421A602246D1
:101428002146202007F0A2FB202007F0E5FB2246FA
:101438002146212007F09AFB212007F0DDFB2246F8
:101448002146222007F092FB222007F0D5FB2246F6
:101458002146512007F08AFB512007F0CDFB224698
:101468002146522007F082FB522007F0C5FB224696
:101478002146232007F07AFB232007F0BDFB04B0A8
:1014880010BD00BF0010024000ED00E000E100E0E8
:101498000131038991FBF3F003FB101080B2704710
:1014A80000230380438041600281704738B50446B9
:1014B8000D464188FFF7ECFF608063681D5438BD16
:1014C80038B5044645680188FFF7E2FF0346285C03
:1014D800238038BD02884088824214BF0020012042
:1014E8007047000070B58AB00024059406940794EC
:1014F800089409944E4BDA6C42F01002DA64DA6C04
:1015080002F010020092009ADA6C42F00102DA64EA
:10151800DA6C02F001020192019ADA6C42F00402DC
:10152800DA64DA6C02F004020292029ADA6C42F08F
:101538000202DA64DA6C02F002020392039ADA6CAD
:1015480042F00802DA64DB6C03F008030493049B9E
:10155800384D01220521284608F052FA364E40F24D
:101568000221304607F0BCFF40F20221334807F061
:10157800B7FF40F20221304607F0B2FF40F20221E5
:101588002F4807F0ADFF40F202212E4807F0A8FFD0
:101598000C2305932C4E0696079405A92B4807F0B3
:1015A800EFFF43F2020305930694079405A9284622
:1015B80007F0E6FF4FF4804305930696079405A9C4
:1015C800284607F0DDFF012605960696079608943B
:1015D80005A9284607F0D4FF042305930696079625
:1015E800089405A9284607F0CBFF224621460D207E
:1015F80007F0BCFA0D2007F0FFFA224621460E201C
:1016080007F0B4FA0E2007F0F7FA22462146152013
:1016180007F0ACFA152007F0EFFA22462146192008
:1016280007F0A4FA192007F0E7FA0AB070BD00BF66
:1016380000100240000C02420200000603000006EF
:101648000E0000060A0000060000111000100242F9
:10165800002B00F0B68030B587B00446154603610C
:1016680043880193012912D0022913D0554B0293C4
:10167800A37A03930223049301A9606807F080FF0B
:10168800022D2ED00BD8012D07D803210AE04E4B8E
:101698000293EDE74D4B0293EAE7002102E0032DA8
:1016A80021D101216388B3F5807F6ED027D8202B04
:1016B8001BD81AB2002A78D0013B1F2B7FD8DFE84D
:1016C80003F0484C7E507E7E7E547E7E7E7E7E7EFB
:1016D8007E587E7E7E7E7E7E7E7E7E7E7E7E7E7E48
:1016E8007E5C0221DEE70021DCE7402B49D0802B1D
:1016F80003D1374BDC61122458E00B2456E0B3F5D4
:10170800805F4AD009D9B3F5804F4AD0B3F5004F6E
:1017180016D12F4BDC631A2448E0B3F5806F38D01C
:10172800B3F5006F03D12A4BDC6216243EE0B3F513
:10173800007F03D1264B5C62142437E00B2435E08C
:10174800B3F5005F03D1224B5C6318242EE00B2411
:101758002CE01F4B1C600B2428E01D4B5C600C2404
:1017680024E01B4B9C600D2420E0194BDC600E2408
:101778001CE0174B1C610F2418E0154B5C6110240A
:1017880014E0134B9C61112410E0114B1C621324CC
:101798000CE00F4B9C62152408E00D4B1C631724CA
:1017A80004E00B4B9C63192400E00B240022204624
:1017B80007F0DCF9204607F01FFA07B030BD0B240C
:1017C800F4E77047000031100000111000002110EC
:1017D8004886012038B50C46054650B12A884FF690
:1017E800FF739A4204D0E2B26988686808F008F981
:1017F80038BD4FF4B071024800F022FFEEE700BF99
:10180800D809060870B58AB004469DF838609DF876
:101818003C5002804FF6FF7082423CD000293AD0FB
:101828006280434A914218D0424A914235D0424A96
:10183800914241D0414A91424DD0414A626002F101
:101848007E42A2F54062D16C41F08001D164D26C35
:1018580002F080020492049A0DE0626002F17E4276
:1018680002F58052D16C41F00101D164D26C02F0D2
:1018780001020092009A62880592A57207950222D9
:101888000892002B36D100220692012B4BD005A9D5
:10189800606807F075FE0AB070BD626002F17E42B2
:1018A80002F54062D16C41F00201D164D26C02F0C1
:1018B80002020192019ADEE7626002F17E4202F5BD
:1018C8000062D16C41F00401D164D26C02F00402D0
:1018D8000292029ACFE7626002F17E4202F58062CC
:1018E800D16C41F00801D164D26C02F00802039275
:1018F800039AC0E7032B06D0022B07D0012E0FD086
:1019080001220692C1E703220692BEE7012E04D007
:1019180002220692109A0992B7E712220692F9E774
:1019280011220692B1E710992046FFF753FFAEE760
:10193800000002420004024200080242000C024277
:10194800001C024210B5044648B122884FF6FF73C6
:101958009A420AD06188606808F03EF810BD4FF4DA
:10196800BF71034800F06CFEEFE70020F6E700BF08
:10197800D809060808B5012008F05CF808BD08B5C4
:10198800022008F057F808BD08B5042008F052F8FE
:1019980008BD08B5082008F04DF808BD08B51020A6
:1019A80008F048F808BD08B5202008F043F808BD3D
:1019B80008B5402008F03EF808BD08B5802008F0BA
:1019C80039F808BD08B54FF4807008F033F808BD41
:1019D80008B54FF4007008F02DF808BD08B54FF4AD
:1019E800806008F027F808BD08B54FF4006008F0DB
:1019F80021F808BD08B54FF4805008F01BF808BD61
:101A080008B54FF4005008F015F808BD08B54FF4B4
:101A1800804008F00FF808BD08B54FF4004008F002
:101A280009F808BD08B548B90023084A52F8233018
:101A38001BB11A690AB1D868904708BD024600234D
:101A4800012AF2D052080133DBB2F9E748860120B7
:101A580008B5FFF7E7FF08BD08B5FFF7E3FF08BDC6
:101A68007047000008B51248124B0360124B4360E0
:101A7800002383600122C260036143618361C36103
:101A8800036208F0C7FC50B90021094809F026F89C
:101A980040B90021064809F073F830B908BD00F0D4
:101AA8008DFCF1E700F08AFCF3E700F087FCF5E72E
:101AB80054A60120005400405B3D406030B5ADB0F5
:101AC800044600212791289129912A912B9194224B
:101AD80002A81AF062F92268214B9A4201D02DB06F
:101AE80030BD402302930023159302A80AF0B6FBE9
:101AF800002831D11B4DEB6C43F00203EB64EB6C17
:101B080003F002030093009B4FF4407327931223C2
:101B18002893002429942A9404232B9327A9124854
:101B280007F02EFDAB6D43F40013AB65AB6D03F40A
:101B380000130193019B22462146372007F016F82F
:101B4800372007F059F822462146382007F00EF8CA
:101B5800382007F051F8C2E700F030FCCAE700BFB0
:101B680000540040001002400004024208B509F089
:101B780055F800B908BD00F021FCFBE7EFF310832E
:101B880072B641B1012903D106490A6810430860B9
:101B980083F31088704703490A6822EA0000086046
:101BA800F6E700BF88860120EFF3108372B641B1D3
:101BB800012903D106490A681043086083F3108895
:101BC800704703490A6822EA00000860F6E700BF88
:101BD8008C860120EFF3108372B6074A126822B987
:101BE800064A12682AB1012000E0002083F3108819
:101BF80070470220FAE700BF8C8601208886012002
:101C080008B50121002009F0D7FF08BD10B5EFF392
:101C1800108472B600F00EFC84F3108810BD10B565
:101C2800EFF3108472B600F001FD84F310880121EF
:101C38004FF4804009F0FEFF10BD08B500F0D0FB5E
:101C480008BD10B5EFF3108472B600F0EFFC84F312
:101C5800108801214FF4804009F0ECFF10BD704757
:101C680008B50A4B1B683BB9094B1B684BB1FFF71A
:101C7800D6FFFFF7E2FF08BDFFF7C2FFFFF7C6FF79
:101C8800F9E7FFF7DEFFFFF7EAFFF4E78C860120AC
:101C980088860120014B01221A7070479D87012018
:101CA80070470000014B9870704700BF4C800120BE
:101CB800003818BF0120014B187370474C80012071
:101CC80008B5054B01221A70044801F0DBFD0448F1
:101CD80001F0D8FD08BD00BF9C870120A087012026
:101CE800D887012008B5084B18601B6803B108BDE8
:101CF8004FF47A71054819F0C7FC00F5EA40303016
:101D0800014B1860F3E700BFF487012018FCFFFFC0
:101D180010B5084C204601F029FE074B01221A7025
:101D2800064B1968204601F05DFE204601F0AAFD29
:101D380010BD00BFF88701209E870120F48701208D
:101D480038B54A4B1B78002B77D0494B05221A70BF
:101D5800596801220A705A704649A1F5C2642046A2
:101D680004F0E7FA04F21265B4F810262946204672
:101D780004F0F9FAB4F810163F481AF093FE94F8F4
:101D88001016284610F040FB3C481AF027FF04F5CF
:101D98008A552946204604F001FC297838481AF06B
:101DA80081FE04F589522978204604F009FC0024B4
:101DB800344B1B78A3420DDD334B04F5096103EB6B
:101DC800410292F9012013F8111030481AF06AFE06
:101DD8000134EDE72E4C2C4D2146284604F0D2FA6A
:101DE80041F24813EA5821682A481AF05BFE204C51
:101DF80060686378B5F8102605F21261184419F086
:101E08006CFCB5F81026637813446370224B9978FC
:101E1800204611F0CBF848B1144B01221A7000206B
:101E2800FFF776FF1D4801F02DFD38BD01201EF09B
:101E380087FD1B4801F026FDEEE70D4806230370D9
:101E4800436800221A7001234370134B997811F0EC
:101E5800ADF818B1054B00221A70E0E701201EF01A
:101E68006FFD0F4801F00EFDF4E700BF2888012040
:101E78000480012028BC0120EC090608040A060891
:101E8800080A060858C7012018B60120200A0608C3
:101E98005CC70120400A06084C8001208487012085
:101EA800A0870120012800D1704710B5064C0749CA
:101EB800204601F0DDFC064B1968204601F092FD32
:101EC8000020FFF725FF10BDF8870120191D040821
:101ED800F487012008B5034B01221A70024801F06B
:101EE80045FD08BDD4870120BC87012008B5034BF8
:101EF80001221A70024801F039FD08BDB887012097
:101F0800A087012070B582B03E49A1F1C0042046E7
:101F180005F0C2F904F1C80394F8C0200021204656
:101F280005F0CAF994F8C01037481AF0BBFD374BD2
:101F380004221A70596801220A705A70002426E097
:101F4800214633481AF0AEFD650105F1C800314E4F
:101F580030440621043010F057FA3544D5E93623C9
:101F6800CDE90023B5F9D22095F9CA102A481AF00C
:101F780099FDE11D490195F8CB30009395F8C830DB
:101F880095F8C920715A25481AF08CFD0134214B67
:101F980093F8C030A3421FDD1C4B586859781D4A7E
:101FA80002EB441292F8CA2042545A7801325A700D
:101FB80000210529C4DCC1F10606144A5568507889
:101FC800144B03EB4413334493F8CC302B5453781D
:101FD800013353700131ECE7114B99780B4810F03D
:101FE800E5FF38B10020FFF793FE0E4801F04AFCE8
:101FF80002B070BD01201EF0A3FC0B4801F042FCAA
:10200800F0E700BFD8B601206C0A0608048001205A
:10201800800A060818B60120940A0608C00A0608AD
:102028004C80012010880120A087012010B50446AB
:102038004378022B07D0032B09D0012B07D0204669
:1020480010F078FC10BD044801F01CFCF7E70248CA
:1020580001F08CFCF3E700BFD887012000B583B0FE
:1020680010F0BAFC00218DF800108DF801100191D4
:10207800684610F09BFF03B05DF804FB10B50446FA
:1020880010F0E8FB2378632B32D00DD8013BDBB28C
:10209800012B05D863681B7803F00103164A1370F7
:1020A800164801F0EFFB10BDAA2BF9D162685378EE
:1020B8001B0203F4706312781343114800F588512A
:1020C800183107EE903AF8EEE77AC1ED007A6268C7
:1020D800947853781B0943EA041300F5885207EEF5
:1020E800903AF8EEE77AC2ED077A04F0D7F9D7E725
:1020F80003F0ECFBD4E700BF82870120BC870120F6
:1021080018B6012008B510F0E3FA08BD10B504466A
:1021180010F0A4FA94F90530B3F1FF3F03D0002082
:1021280010F0D4FF10BD10F005FFFBE708B510F064
:1021380033FA08BD08B510F0DFF908BD08B510F08E
:102148009BF908BD08B510F081F908BD30B587B016
:1021580001201EF0F5FB214801F094FB204801F016
:1021680005FC204801F002FC002503951E4C03AB3A
:1021780004AA05A9204604F08BFDADF80A500DF11C
:102188000A01204604F0F7FD204604F00FFE03A9DB
:10219800204604F0A1FE41F241133222E25404F534
:1021A80088511831114B0B6004F58853104ADA61D5
:1021B800204604F073F90321204604F009F90D4A7A
:1021C8000121204604F030F91023009307232A4602
:1021D8002946204604F03CF907B030BDA08701200D
:1021E800F88701208487012018B60120F8C45C41D3
:1021F8001C37C94259C7012030B589B001201EF0EB
:102208009FFB1A4801F03EFB194801F0AFFB194843
:1022180001F0ACFB00250595174C05AB06AA07A9EC
:10222800204604F035FDADF812500DF1120120469C
:1022380004F0A1FD204604F0B9FD05A9204604F0EC
:102248004BFE2946204604F088FE012303934FF4F1
:10225800FA72029203220192009243F6FF7204215D
:10226800204604F0EDFF09B030BD00BFA087012073
:10227800F88701201088012018B601202DE9F843BD
:1022880010F072FE08B1BDE8F883324E304603F014
:1022980061FE03F055FE002003F0ACFD2E4F3946D9
:1022A800002003F0D7FD391D012003F0D3FDDFF82E
:1022B800C8802A4C4146204604F02EF9284D4FF09C
:1022C800020985F800900FF0A9FF264B1978002025
:1022D8000FF0BCFF03F0BAFA642303FB00F0224BB3
:1022E80083FB00230344C017C0EBE31300EE103A4E
:1022F800B8EEC00A01200FF0C5FF97ED000AB8EE4E
:10230800C00A48460FF0BEFF96ED021AD6ED010A44
:1023180096ED000A03200FF0DFFF04F588549FEDC7
:10232800131AD4ED070A98ED000A042010F01AF8E1
:1023380068680FF07FFF0FF077FF68700C4B997893
:10234800284610F033FE00289DD10A4801F09AFA79
:1023580099E700BF348801202C88012018B6012095
:102368000480012082870120090402810000000006
:102378004C800120A087012030C7012008B5EFF369
:10238800108172B6064A1378DBB20020107081F310
:102398001088012B00D008BDFFF770FFFBE700BFD6
:1023A8009E87012008B50268034B9A4200D008BDF9
:1023B80004F0CEFFFBE700BF0010004072B604E057
:1023C80000BF0133024A9342FADD0023FAE700BF57
:1023D8003F420F0008B5FFF7F1FF08B5FFF7EEFF22
:1023E80010B586B010480DF0A9FCD0B90F4A104CB2
:1023F8004FF6FF730593002304934FF48063039310
:1024080002924FF40063019300924FF4805302212B
:10241800204600F0A7FDA4F13C0002F01BFA06B02C
:1024280010BDFFF7CBFF00BFF4B301200008024244
:1024380054B6012008B50C4B1B782BB1FFF7D0FF21
:10244800094B1B784BB108BD00F066FA03F048FD54
:1024580001210846FFF792FBF0E7034B01221A70AF
:10246800024802F029FAEEE7F087012018B60120A9
:1024780010B582B004F05AFF04F07CFF04F082FF2C
:10248800FFF7EEFA524900201EF052FA5149012096
:102498001EF04EFAFFF726F8FEF78CFFFEF798FDC0
:1024A800FFF7E0FA01F078FB00F074F900F00EFC99
:1024B80000F034FC01F000F9FEF70EFE01F0F6FA28
:1024C800FEF748FF00F0C6F801F0B4FA19F044F935
:1024D80001F024FBFFF74AFBFFF7ACFF3E4C3F49F6
:1024E800204601F0C5F91921204601F07BFA3C4C41
:1024F8003C49204601F0BCF91921204601F072FA46
:10250800394C3A49204601F0B3F941F28831204666
:1025180001F068FA204601F0B5F9354C35492046F6
:1025280001F0A6F93449204601F05CFA204601F092
:10253800A9F9324C3249204601F09AF9314920462E
:1025480001F050FA204601F09DF94FF47A712E48B7
:1025580019F09AF800F5EA4030302C4A10604FF034
:10256800817301934FF0A06300936A4601A928483C
:1025780010F03EFA2749284810F0D4FB20B127482C
:102588001AF02CFBFFF71AFF142010F0C1FE2449A3
:10259800002010F0CDFE10F0CDFC0020FFF782FCEB
:1025A80003E003F08DF984F310881E4810F04CFA0C
:1025B80010F022FFFFF7E2FEEFF3108472B61A4B19
:1025C8001B78DBB2012BECD1174B00221A70EAE71B
:1025D800DD230408E3230408A0870120F51E04086E
:1025E800BC870120DD1E0408D8870120C91C040807
:1025F800108801200122040880EE3600848701201B
:102608005521040840771B0018FCFFFFF4870120C0
:10261800040B06084C8001200C800120180B0608CA
:102628005C800120F4B301209D87012008B5034890
:102638000CF0F8FC00B908BDFFF7C0FEF4B30120A8
:1026480008B50A46014602481AF02CFA08BD00BF30
:102658003C0B060808B50648064B03600023436098
:102668000AF044FA00B908BDFFF7A8FEFBE700BF6F
:10267800D0A6012000080C4210B5A6B0044694224A
:10268800002101A819F089FB2268124B9A4201D057
:1026980026B010BD4FF4802301930023209301A896
:1026A80009F0DCFD90B90C4BDA6C42F48022DA6454
:1026B800DB6C03F480230093009B002211465E200C
:1026C80006F054FA5E2006F097FAE1E7FFF776FE87
:1026D800E9E700BF00080C42001002402DE9F04174
:1026E80080460F46264CA668264D002241462846BD
:1026F8000AF00AFF0022394628460AF025FEA36898
:10270800B342EFD198F8032040F2B55303FB02F32C
:1027180003339C0812F0030F2FD11B4A98F80100CD
:102728000138C0EB001300EB8303013303EBD371D3
:10273800430022FA03F303F00303C3EB61032344CA
:1027480098F802201344013BB87839787A78C2EBBC
:10275800021292004FF4616404FB012202440B4907
:1027680001FB0323990D98027B68C3F57F7303333C
:10277800C01841F10001BDE8F081054ACEE700BF6D
:10278800002800406C880120505544008051010009
:10279800A0AA990000B58BB028220021684619F03C
:1027A800FCFA2D482D4B0360002343607F22826092
:1027B800FF22C2600361436183614FF08042C261BE
:1027C80003620AF0BDFB002834D100238DF80030E5
:1027D8008DF801308DF80230019305930693079325
:1027E80001228DF820204FF48073099369461A4816
:1027F8000AF0B6FE08BB4FF400730993012269463C
:1028080015480AF0ADFED8B90022114612480BF05F
:102818001DF8C0B900231A4619460F480BF06EF888
:10282800A0B94FF400210C480BF000F988B90BB09F
:102838005DF804FBFFF7C2FDC7E7FFF7BFFDDAE766
:10284800FFF7BCFDE0E7FFF7B9FDE3E7FFF7B6FDEB
:10285800E7E7FFF7B3FDEAE7F4A601200028004008
:1028680010B5A6B004469422002101A819F095FAE3
:102878002268154B9A4201D026B010BD4FF40033A0
:1028880001934FF40073259301A809F0E7FCC0B940
:102898000E4BD3F8902042F40042C3F890209A6D72
:1028A80042F480629A659B6D03F480630093009BF9
:1028B80000221146022006F059F9022006F09CF980
:1028C800DAE7FFF77BFDE3E700280040001002404D
:1028D80008B50268094B9A4200D008BD03F5F433E5
:1028E800D3F8902022F40042C3F890209A6D22F485
:1028F80080629A65022006F097F9EEE7002800400A
:1029080010B5044C211D04F11800FFF7E7FE206004
:1029180010BD00BFE4880120294B1B7803B1704724
:1029280070B586B0274AD2F8903043F40043C2F815
:102938009030254D254B2B6000246C601F23AB6025
:1029480040F2FF33EB602C61AC614FF08043EB61E8
:1029580028460AF0F5FA8DF8174001268DF815601B
:102968008DF816608DF81460224605A928460AF0ED
:102978001DFD8DF800408DF801408DF8024001944E
:102988008DF80340049403942246694628460AF0C9
:10299800EDFB28460BF07EF822463146022006F071
:1029A800E5F8022006F028F94FF4807128460AF06D
:1029B8000BFAFFF7A5FF024B1E7006B070BD00BFF3
:1029C800E0880120001002406C88012000280040A7
:1029D800014B1868704700BFE48801200320704746
:1029E80008B501467D220023C001490EFEF72CF9E7
:1029F80008BD810AC0F309034FF47A7000FB03F3A2
:102A08009B0A00FB0130704708B54FF480710748F6
:102A18000AF0DAF9064B0122DA65064AD2F8803064
:102A280023F40033C2F8803008BD00BF6C88012051
:102A38000028004000F40240F0B587B00446494F32
:102A480001AD3E1D0FCE0FC5BB690093FFF7DCFF3C
:102A5800BDF80830C3F57F730333C4F3090212FAD3
:102A680083F39BB2A00A9DF802503F4A904206D9D0
:102A7800A0F5A830A0F5C0706A1C95B2F5E79DF8DE
:102A88000410B0F5616F04D3A0F56160013189B21B
:102A9800F7E79DF8054002E03C380134A4B23B2832
:102AA800FAD89DF8062012FA80F080B204E0A3F567
:102AB80080639BB2013080B2B3F5806FF7D23B28B8
:102AC80008D93C3880B20134A4B2F8E73C3CA4B23F
:102AD800013189B23B2CF9D803E0183989B26A1C54
:102AE80095B21729F9D89DF8032012F0030F2AD1BF
:102AF8009DF80120013A1D4EB25C96B2AE4204D256
:102B080095FBF2F602FB165295B2C3F57F730333B9
:102B1800174E73604FF02063B361B07074703170FA
:102B280086F820509DF80730F3700022F261726138
:102B38004FF480737362F260326131460D480AF0D7
:102B48000FFD07B0F0BD9DF80120013A0A4EB25CB6
:102B580096B2AE42D9D295FBF2F602FB165295B266
:102B6800D3E700BFE48801207F510100780B0608F5
:102B7800448801206C8801206C0B060800B587B0DA
:102B880001A96846FFF7AAFD07B05DF804FB2DE927
:102B9800F8430646FFF7F2FF80464FF0000930463B
:102BA800FFF71EFF06460027FFF7E8FFB0EB080413
:102BB80069EB4905BD4208BFB44201D200BFF3E743
:102BC800BDE8F88300B587B001A96846FFF786FD20
:102BD800024B1B68C01A07B05DF804FBE4880120AB
:102BE80070B50646114BB3F900400334E517FFF7FB
:102BF800E9FF321A0023944275EB03030BDA002134
:102C08000420FEF7D1FFFEF7E5FF012808D0304683
:102C1800FFF712FF70BD01210420FEF7C5FFF2E7A0
:102C2800024BB3F90030F61AF1E700BF40880120E3
:102C380030B587B0054601A96846FFF74FFD840AFD
:102C480044EA8154C0F30900FFF7D3FE28802046E8
:102C580007B030BD38B502460C46054D0021284660
:102C68000AF046FF2246012128460AF041FF38BDF6
:102C78006C88012070B505460C46064E002130468A
:102C88000AF04AFF2860012130460AF045FF20601B
:102C980070BD00BF6C88012010B500210420FEF72C
:102CA80083FF054C20460AF0CBF820460AF014FEB4
:102CB80020460AF0A9FE10BDF4A6012008B500F0D0
:102CC80013FE08BD704770477047000008B51148EB
:102CD800114B03604FF4827343604FF48063836049
:102CE8004FF4E063C3600023036143614FF4007253
:102CF80082612822C2610362436283620722C26240
:102D0800036343630BF076F800B908BDFFF756FB81
:102D1800FBE700BF80A801200030014008B510483B
:102D2800104B03604FF482734360002383604FF4B9
:102D3800E062C260036143614FF40072826108225D
:102D4800C2610362436283620722C2620363436310
:102D58000BF050F800B908BDFFF730FBFBE700BFE8
:102D6800F4A70120003C004010B58CB00023079365
:102D7800089309930A930B9303683D4A934207D03B
:102D88003C4A93422DD03C4A934247D00CB010BDE8
:102D98003A4B1A6E42F480521A661A6E02F4805246
:102DA8000092009ADA6C42F00102DA64DB6C03F0FC
:102DB80001030193019B60230793022308930024D6
:102DC80009940A9405230B9307A92D4806F0D8FB0C
:102DD800224621463B2005F0C9FE3B2005F00CFFAA
:102DE800D4E7264B9A6D42F480429A659A6D02F4B4
:102DF80080420292029ADA6C42F00402DA64DA6CD7
:102E080002F004020392039ADA6C42F00202DA64D6
:102E1800DB6C03F002030493049BB7E7174B9A6D2E
:102E280042F400429A659A6D02F400420592059AAE
:102E3800DA6C42F00402DA64DB6C03F004030693F4
:102E4800069B4FF4E0530793022308930024099448
:102E58000A9406230B9307A90A4806F091FB224619
:102E68002146632005F082FE632005F0C5FE8DE74C
:102E78000030014000380040003C00400010024093
:102E88000000024200080242F0B49DF91050047894
:102E9800224E8C2707FB04640026A66008292DD043
:102EA80001781E4C8C2606FB01414FF47064CC60FF
:102EB80006781A498C2404FB06163261027804FB52
:102EC80002125361037804FB031300221A62037889
:102ED80004FB03135A62037804FB03139A62037812
:102EE80004FB03110723CB6285B903780B4A04FB63
:102EF80003234FF482725A60F0BC70470178074C84
:102F080007FB01414FF4E064CC60D1E70378034A42
:102F18008C2101FB032300225A60EDE70089012080
:102F28000E4B1A6800238A4203D901335208062B34
:102F3800F9D913F0040200D0202213F0020100D0C6
:102F480010210A4313F0010300D008231343027829
:102F580003498C2000FB0212D36170476C8001206A
:102F6800008901202DE9F04F8BB005460C4611462B
:102F78001A46BDF85490BDF85C80BDF864300593DE
:102F8800EFF3108772B60470002C61D0012C00F0AA
:102F9800AB807B48836B43F400438363836B23F4E8
:102FA80000438363836D43F400438365836D03F4B7
:102FB80000430993099B8C2303FB04F37148724E69
:102FC800C6504FF0060ACDF808A0002601960096D4
:102FD8000223281DFEF716FCCDF808A001960096DE
:102FE80002234A46149905F11800FEF70BFCCDF8A8
:102FF80008A00196009602234246169905F12C0076
:10300800FEF700FCCDF808A00123019300960223E7
:10301800059A189905F14000FEF7F4FB59498C23ED
:1030280003FB04144FF40073A361002200921346BB
:1030380008212846FFF728FF54492846FFF770FF64
:1030480020460AF0D7FE87F310880BB0BDE8F08F52
:103058004B48036C43F480530364036C23F480539C
:103068000364036E43F480530366036E03F48053D2
:103078000793079B8C2303FB04F34248444EC65036
:103088004FF0050BCDF808B0022601964FF0000A64
:10309800CDF800A03346281DFEF7B4FBCDF808B0E4
:1030A8000196CDF800A033464A46149905F1180058
:1030B800FEF7A8FBCDF808B00196CDF800A033467E
:1030C8004246169905F12C00FEF79CFBCDF808B096
:1030D80001230193CDF800A03346059A189905F10C
:1030E8004000FEF78FFB99E7254B986B40F4804032
:1030F8009863986B20F480409863986D40F4804002
:1031080098659B6D03F480430893089B8C2303FB0D
:1031180004F31C481F4EC6504FF0050ACDF808A00E
:10312800022601964FF0000BCDF800B03346281D5B
:10313800FEF768FBCDF808A00196CDF800B033463D
:103148004A46149905F11800FEF75CFBCDF808A073
:103158000196CDF800B033464246169905F12C0089
:10316800FEF750FBCDF808A001230193CDF800B07D
:103178003346059A189905F14000FEF743FB4DE7E1
:103188000010024000890120003C00408096980011
:10319800003001400038004070B586B0ADF80E1020
:1031A80000238DF81730044630B302788C2303FBD4
:1031B80002F3144AD358FBB12378124D8C2000FB3C
:1031C80003F3EA58136843F040031360EFF31086E3
:1031D80072B624784FF0FF33009301230DF11702E4
:1031E8000DF10E0100FB04500AF082FF86F31088EF
:1031F8009DF8170006B070BD4FF4D9710248FFF76B
:103208001FFAD9E700890120840B060800B583B0AE
:10321800124B1A6E42F001021A661A6E02F001028F
:103228000092009A9A6D42F080529A659B6D03F065
:1032380080530193019B002211465F2005F096FC04
:103248005F2005F0D9FC002211466B2005F08EFCAA
:103258006B2005F0D1FC03B05DF804FB00100240C0
:1032680000B589B001460022312005F07FFC3120ED
:1032780005F0C2FC144B9A6D42F010029A659B6DE2
:1032880003F010030193019B02A903A808F024FE90
:1032980008F002FE0D4BA3FB00239B0C013B0C48DE
:1032A8000C4A026040F2E732C260436000230361C7
:1032B80083600BF007FC18B1012009B05DF804FB2E
:1032C80003480BF0FDF9F8E70010024083DE1B43CA
:1032D8000CA9012000100040FEE7FEE77047704788
:1032E80008B504F035F808BD08B5024806F049F8F5
:1032F80008BD00BF04B501207047704708B50248F3
:1033080006F03FF808BD00BF8CB3012008B503489C
:1033180006F037F8024806F034F808BD90AA0120F4
:1033280004B5012008B5024806F02BF808BD00BF17
:103338009CB4012008B5034804F04AFB024804F095
:1033480047FB08BD2CA5012098A4012008B5024818
:103358000BF030FA08BD00BFC8A9012008B5024823
:103368000BF028FA08BD00BFC8A9012008B502481B
:103378000BF020FA08BD00BFC8A9012008B5024813
:103388000BF018FA08BD00BFC8A9012008B502480B
:103398000BF010FA08BD00BF0CA9012008B50248BF
:1033A80007F05AFB08BD00BF54A6012008B5024823
:1033B80007F05AFB08BD00BF54A6012008B5024813
:1033C8000BF0E2F808BD00BF80A8012008B502484C
:1033D8000BF0DAF808BD00BF68A7012008B502485D
:1033E8000BF0ACFE08BD00BF6CB5012008B5024863
:1033F8000BF0A4FE08BD00BFF8AA012008B50248DA
:103408000BF09CFE08BD00BFF4B3012008B50248CC
:1034180008F0E0F808BD00BFDCDE012008B502486E
:1034280005F0AFFF08BD00BF90AA012008B502480B
:1034380005F0A7FF08BD00BF8CB3012008B50248FE
:1034480009F0DEFB08BD00BFD0A6012070470000D0
:1034580008B502480BF098F808BD00BFF4A7012092
:1034680008B507F0E7FB08BD0120704708B518F05C
:103478005DFC162303604FF0FF3008BD08B54FF020
:10348800FF31FFF7F3FFFEE770B50C46164600253F
:10349800B54207DA00F0EAFD214601F8010B0135D3
:1034A8000C46F5E7304670BD4FF0FF3070474FF4DB
:1034B80000534B6000207047012070470020704780
:1034C80010B503460C4A0D490D48006840B10C4838
:1034D80000680344521A934206D8094A136010BD83
:1034E8000748084C0460F2E718F020FC0C2303603E
:1034F8004FF0FF30F3E700BF000003200004000096
:10350800A48A0120E0E101207047000008B51DF001
:10351800F7F9014B186008BD6C80012082B082B0B9
:103528000DF1080C0CE906000393009A134403609C
:10353800BDF80420BDF810100A4491B212B282807E
:10354800B2F57A7F04DB01330360A1F57A718180DB
:1035580002B002B0704782B082B00DF1080C0CE9DD
:1035680006000393009AD31A0360BDF80420BDF83F
:103578001010521A91B212B28280002A02DB02B0F5
:1035880002B07047013B036001F57A718180F6E76C
:1035980010B588B002AC84E8030000230493ADF8AA
:1035A800143005A8FFF744FB03460490059A0092DF
:1035B80094E8060006A8FFF7CEFFBDF91C10069890
:1035C800FFF748FB08B010BD10B588B004460023CB
:1035D8000693ADF81C3007A8FFF72AFB069004A94C
:1035E80005A8FFF747FB059B0293BDF91030ADF81E
:1035F8000C30079B0093069B039A02992046FFF71D
:103608008DFF204608B010BD30B583B004460023B6
:103618000093ADF804306D4601A8FFF709FB009050
:1036280095E8030084E80300204603B030BD10B5D8
:103638008AB002AC84E8030008A909A8FFF71AFBBE
:10364800BDF92030ADF81C30079B0093099B94E826
:10365800060004A8FFF77FFFBDF91430049A4FF461
:103668007A7000FB02300AB010BD000010B588B0B7
:103678000446104BA3FB01239B0907934FF47A726E
:1036880002FB131106910493ADF8141006A907A8BC
:10369800FFF7F0FABDF91830ADF80C30039B009332
:1036A800079B059A04992046FFF738FF204608B083
:1036B80010BD00BFD34D621000B58DB0002300933C
:1036C800019302931548164A0260436083604FF6DF
:1036D800FF72C26003614361836101220392049314
:1036E800059206930793089309920A930B9303A9EB
:1036F8000BF082FA58B900230093019302936946AC
:1037080006480BF093FB28B90DB05DF804FBFEF7F3
:1037180055FEF0E7FEF752FEF6E700BFC8A9012004
:10372800002C014010B588B000230393049305933F
:10373800069307930268244B9A4201D008B010BD43
:1037480003F564431A6E42F400621A661A6E02F4B4
:1037580000620192019ADA6C42F01002DA64DB6CC2
:1037680003F010030293029B4FF420630393022398
:1037780004930024059406940123079303A913488E
:1037880005F0FEFE22462146292005F0EFF9292002
:1037980005F032FA224621462A2005F0E7F92A20C8
:1037A80005F02AFA224621462B2005F0DFF92B20C6
:1037B80005F022FA224621462C2005F0D7F92C20C4
:1037C80005F01AFABAE700BF002C014000100242C7
:1037D8000D4B1A685369516991B110B4046819689E
:1037E8008C4208D91A465B6951690029F6D15061A3
:1037F8000023436101E0506143615DF8044B704769
:103808005061002343617047A88A0120054B1B685B
:103818001BB1834203D05B69FAE70020704701209F
:10382800704700BFA88A012070B50446FFF7D6F894
:103838000546012363722668FFF7C4F928448642C7
:1038480003D32068FFF7CCF970BDFFF7BBF9054437
:103858002560F6E708B5054B1B680BB100225A72C4
:103868004361024B1860FFF7DFFF08BDA88A0120FB
:1038780000230360436003724372C16003614361C4
:103888007047000038B5EFF3108572B6E0B1044612
:10389800FFF7BCFFC0B963682360012323720023CC
:1038A8006372104B1B6893B1FFF78CF923681844B7
:1038B80020600C4B1B681B6898420ED22046FFF70D
:1038C800C9FF85F3108801E085F3108838BDFFF73C
:1038D80017F82046FFF7BEFFF3E72046FFF778FF0B
:1038E800EFE700BFA88A0120F8B5FFF771F8044692
:1038F800FFF706F8071B1C4B1B686BB1194602E063
:103908000025156049694A6932B11568BD42F7D981
:10391800261A35441560F5E743B15969124A116012
:1039280000221A72DA68A2B1186990470E4B1B6818
:103938008BB11C68FFF746F984420CD20A4A136817
:103948005969116000221A72DA681AB11869904729
:10395800ECE7FEE7FEE7044B186808B1437A03B1C9
:10396800F8BDFFF761FFFBE7A88A012010B5EFF368
:10397800108472B61A4B1A685AB150B100230372F8
:10398800824209D0134623B383421FD01A465B698B
:10399800F9E784F310881EE0537A73B10023537259
:1039A800506920B10E4B1860FFF73EFF11E0FFF79A
:1039B8002BF80B4B00221A600BE0536913B1084A2D
:1039C800136006E0064B00221A6002E05B691BB137
:1039D800536184F3108810BD00235361F9E700BFD9
:1039E800A88A012038B504460846FEF7F9FF0546BF
:1039F8002046FFF7BBFFFEF7F1FF854200D32846BC
:103A08002060606038BD08B5FFF7B8F8FEF7F1FF31
:103A180008BD38B5044608B9204638BDFFF7AEF8EA
:103A280005462046FEF7DCFF281AFEF7E2FF0446AB
:103A3800F2E7000070B58AB0002406940794089451
:103A48000994174BDA6D42F40002DA65DA6D02F474
:103A580000020392039ADA6C42F00202DA64DA6C2A
:103A680002F002020292029ADA6C42F00102DA646F
:103A7800DB6C03F001030193019B4FF400460496AD
:103A880003250595089404A906480CF0E9FB04965B
:103A98000595089404A904480CF0E2FB0AB070BD2F
:103AA80000100240000402420000024208B54FF430
:103AB800806213491348FDF7F3FC4FF48062124902
:103AC8001248FDF7EDFC1248124B03604FF4E13346
:103AD800436000238360C36003610C2242618361F9
:103AE80003624362836243660CF028F928B9012215
:103AF800094907480CF0E0F908BDFEF75FFCF6E756
:103B080088AF012090B4012088AB012000B60120C5
:103B1800F4B301200080004088B3012008B51C4898
:103B28001C4B03604FF4E1334360002181604FF484
:103B38000053C36001610C2343618161C16101626B
:103B48004162402383624FF48013436481640B46CF
:103B58000A460CF005FA70B900210D480CF0C4FAB9
:103B680060B900210A480CF01DFB50B908480CF058
:103B780079FA48B908BDFEF721FCEDE7FEF71EFC0F
:103B8800EFE7FEF71BFCF1E7FEF718FCF2E700BFD2
:103B98006CB501200044004008B51A481A4B036070
:103BA8004FF4E133436000238360C36003610C2258
:103BB80042618361C3610362436283620CF0BEF8B1
:103BC80098B900210F480CF08FFA88B900210D48E8
:103BD8000CF0E8FA78B90B480CF044FA70B90122F5
:103BE8000A4908480CF068F908BDFEF7E7FBE8E762
:103BF800FEF7E4FBEAE7FEF7E1FBECE7FEF7DEFBA6
:103C0800EDE700BFF8AA012000480040FCB50120FC
:103C180030B5B1B0044600212B912C912D912E91F5
:103C28002F91942206A818F0B8F823689F4A934267
:103C380008D09F4A93427CD09E4A934200F0AC80C1
:103C480031B030BD202306930023189306A808F04E
:103C580005FB00285ED1984BDA6D42F00102DA6567
:103C6800DA6D02F001020092009ADA6C42F0020268
:103C7800DA64DB6C03F002030193019B4FF44063A9
:103C88002B9302232C9300252D952E9508232F93F3
:103C98002BA98A4805F074FC89488A4B03602323C2
:103CA80043608560C5608023036145618561C561A6
:103CB800056205F0F7F800282FD14FF01011804861
:103CC80005F0EAFB60BB7E4BE3679C627E487F4B56
:103CD800036024234360102383600023C360802291
:103CE800026143618361C361036205F0DBF8D0B907
:103CF8004FF01011744805F0CFFBB8B9724BA367A9
:103D08009C6200221146422004F030FF422004F059
:103D180073FF95E7FEF752FB9DE7FEF74FFBCCE7F5
:103D2800FEF74CFBCFE7FEF749FBE1E7FEF746FB62
:103D3800E4E7022306930023149306A808F08EFAFA
:103D480038BB5D4B9A6D42F400329A659A6D02F465
:103D580000320292029ADA6C42F00102DA64DB6CF9
:103D680003F001030393039B02232B932C9300245A
:103D78002D942E9407232F932BA9554805F000FC6A
:103D8800224621463E2004F0F1FE3E2004F034FF96
:103D980056E7FEF713FBD4E7042306930023159395
:103DA80006A808F05BFA00287AD1434B9A6D42F4D2
:103DB80080229A659A6D02F480220492049ADA6C41
:103DC80042F00402DA64DB6C03F004030593059BFC
:103DD80030232B9302232C9300252D952E95072312
:103DE8002F932BA93B4805F0CBFB3B483B4B03608B
:103DF8001D2343608560C56080230361456185613B
:103E0800C561056205F04EF800284CD14FF010113D
:103E1800314805F041FB002868D12F4BE3679C62CD
:103E28002F48304B03601E23436010238360002318
:103E3800C3608022026143618361C361036205F04C
:103E480031F8002855D11021254805F025FB002818
:103E580052D1234BA3679C621F48234B03601D2349
:103E6800436000238360C3608022026143618361F1
:103E7800C361036205F016F8002840D110211648E6
:103E880005F00AFB00283DD1134BE3679C62002232
:103E980011463F2004F06AFE3F2004F0ADFECFE655
:103EA800FEF78CFA81E7FEF789FAAFE70080004059
:103EB8000044004000480040001002400004024254
:103EC80004B50120080002409CB401206C000240A7
:103ED800000002420008024290AA01201C0402408D
:103EE8008CB301204400024058000240FEF766FAF5
:103EF80093E7FEF763FAA6E7FEF760FAA9E7FEF78D
:103F08005DFABBE7FEF75AFABEE700BF10B50446F4
:103F18000368204A934206D01F4A934218D01F4A8A
:103F2800934223D010BD02F5C832D36D23F00103AC
:103F3800D3654FF440611A4805F08EFCE06F05F038
:103F4800B9F8A06F05F0B6F8422004F06DFEE9E775
:103F580002F5E632936D23F400339365022111488C
:103F680005F07AFC3E2004F05FFEDBE702F5E43260
:103F7800936D23F48023936530210B4805F06CFC86
:103F8800E06F05F097F8A06F05F094F83F2004F073
:103F98004BFEC7E700800040004400400048004056
:103FA80000040242000002420008024208B5036809
:103FB800094A934203D0094A934206D008BD084BE8
:103FC80019780848FDF772FAF8E7074B1978074897
:103FD800FDF76CFAF2E700BF00800040004800409F
:103FE80088B3012000B60120FCB5012084B401206B
:103FF80038B50C46EFF3108572B60368114A934240
:1040080006D0114A934210D085F31088012038BD9C
:104018000E48FDF75FFA0028F6D10C48FDF750FA74
:10402800207085F310880020F1E70948FDF752FA5F
:104038000028E9D10648FDF743FA207085F3108877
:104048000020E4E7008000400048004000B601205E
:1040580084B4012010B514464FF4FA7392B20248A2
:104068000BF0C2FD204610BDF4B3012000B583B0AB
:1040780001A90348FFF7BCFF019803B05DF804FBF2
:10408800F4B3012008B5024B1B68984708BD00BF70
:10409800AC8A0120DFF834D0FFF736FA002103E0BC
:1040A8000B4B5B58435004310A480B4B42189A4259
:1040B800F6D30A4A02E0002342F8043B084B9A422E
:1040C800F9D317F039FEFEF7D3F9FEE70000032015
:1040D8001C2B060800800120248601202886012048
:1040E800E0E10120FEE7704710B582B004460023E6
:1040F8008DF8073001F03FFF2378032B06D8DFE85F
:1041080003F002191D21FF238DF8073001226B21CE
:104118000DF1070001F028FF9DF8073023F0070391
:104128008DF8073001226C210DF1070001F01CFF0A
:1041380002B010BD10238DF80730E7E740238DF853
:104148000730E3E701238DF80730DFE700B583B0D8
:104158008DF8070001226B210DF1070001F004FF23
:1041680003B05DF804FB00B583B001F004FF012241
:1041780075210DF1070001F017FF9DF8070003B046
:104188005DF804FB00B583B001226B210DF1070037
:1041980001F00AFF9DF8073063F07F038DF80730C0
:1041A80001226B210DF1070001F0DEFE03B05DF87E
:1041B80004FB10B582B0044600238DF807308DF853
:1041C8000630012237210DF1070001F0EDFE012232
:1041D80038210DF1060001F0E7FE9DF80730E4B242
:1041E80003F080038DF807309DF8060000F0DF002B
:1041F80004438DF80640012237210DF1070001F034
:10420800B3FE012238210DF1060001F0ADFE02B027
:1042180010BD00B585B08DF80700012238210DF1D9
:104228000F0001F0C1FE012238210DF1070001F055
:104238009BFE05B05DF804FB10B582B00446012270
:1042480038210DF1070001F0AFFE9DF8073023EA91
:1042580004008DF80700012238210DF1070001F054
:1042680083FE02B010BD00B585B08DF807000122AD
:104278001A210DF10F0001F097FE01221A210DF10C
:10428800070001F071FE05B05DF804FB00B585B0CC
:104298008DF8070001221B210DF10F0001F084FEAB
:1042A80001221B210DF1070001F05EFE05B05DF84B
:1042B80004FB000030B587B0054600240494ADF82F
:1042C80014400294ADF80C408DF8074001221B21E0
:1042D8000DF1070001F068FE0622432104A801F051
:1042E80063FE23460FE05A0006A901EB430111F8CB
:1042F800080C013206AC224412F8082C02EB00220A
:1043080021F8102C0133022BEDDD9DF8073003F066
:104318001803182B0ED8DFE803F01A0D0D0D0D0D3C
:104328000D0D110D0D0D0D0D0D0D140D0D0D0D0DAA
:104338000D0D1700DFED116A00231BE0DFED106A99
:10434800FAE7DFED106AF7E7DFED0F6AF4E7DFED74
:104358000F6AF1E706AA02EB430232F9102C07EEC6
:10436800902A05EB8302F8EEE77A87EEA67A82EDCB
:10437800007A0133022BEDDD07B030BD00000000EC
:10438800000003440000834300000343000080440E
:104398008C2874D8DFE800F04775494B4D4F5153CE
:1043A80055737373737373737373737373737373F3
:1043B80073737373737373737373737373737373C5
:1043C80073737373737373737373737373737373B5
:1043D80073737373737373737373737373737373A5
:1043E8007373737373737373737373737373737395
:1043F8007373737373737373737373737373737385
:104408007373737373737373737373737373737374
:104418007373737373737357595B5D5F6163656718
:10442800696B6D6F71000320704705207047042089
:1044380070470D2070470E2070470F2070470C20E2
:1044480070470B2070470A207047062070471220DB
:1044580070471620704707207047132070471720B1
:1044680070470820704714207047182070470920AB
:10447800704715207047192070471A2070471B2075
:10448800704702207047000030B589B006238DF8C8
:104498001F3000230193029303930493059306931B
:1044A8000E4D2860182201A917F017F90C4C0DF1D0
:1044B8001F01204601F01AFF2968204602F060FD1E
:1044C80029680831204602F06DFD29681031204620
:1044D80002F07AFD9DF81F0009B030BDB08A0120B6
:1044E80018B6012000293FD070B584B004460E46A6
:1044F80006238DF80F30802805D0832803D086281E
:1045080001D089281BD17F20FFF742FF05462046AE
:10451800FFF73EFF034600962A460DF10F011348A8
:1045280001F087FD9DF80F301BB19DF80F0004B016
:1045380070BD0DF10F010D4801F0C0FEF5E7FFF762
:1045480027FF024633460DF10F01084801F045FDEB
:104558009DF80F3013B19DF80F00E8E70DF10F013A
:10456800024801F0ABFEF6E70220704718B60120BA
:10457800F0B5C9B00D4614461E4606238DF81F3106
:1045880098B107464FF48872002103A817F0BBF8CA
:104598001022394603A817F0A0F82246294607A892
:1045A80017F09BF81034A4B203AD3046FFF7F0FEC5
:1045B80002464E9B019300942B460DF21F110348AF
:1045C80001F0C9FD9DF81F0149B0F0BD18B60120E2
:1045D80030B587B0039206228DF8172090B10C46AB
:1045E80005461846FFF7D4FE024603AB0193009434
:1045F8002B460DF11701044801F0E3FD9DF8170063
:1046080007B030BD0220FBE718B6012070B584B0B2
:104618001C4606238DF80F3090B10D4606468CB126
:104628001046FFF7B5FE02460194009533460DF19A
:104638000F01054801F008FE9DF80F0004B070BD99
:104648000220FBE70220F9E718B6012070B584B014
:1046580006238DF80F30D0B1144606460846FFF7FA
:1046680097FE05462046FFF793FE0346094C009641
:104678002A460DF10F01204601F0DBFC0DF10F0178
:10468800204601F01BFE9DF80F0004B070BD02200B
:10469800FBE700BF18B601202DE9F04F8BB0154697
:1046A8009DF85040DDF8549006228DF82720002B05
:1046B8006CD006460F469846B9F1000F68D0169B95
:1046C800002B67D0212C67D8FF285DD0032020233A
:1046D8008DF82430FFF75CFE82460120FFF758FE74
:1046E800034608F10108013CE4B209F1010BCDF8D9
:1046F80010B00394CDF8088009AA01920022009214
:1047080052460DF12701254801F0C0FC9DF82730DD
:104718002BB999F80B00C009169B187088B30023B1
:104728000693079308938DF81860082239460DF10F
:10473800190016F0DCFF8DF821502D0A8DF8225053
:1047480020238DF823300220FFF722FE0346CDF800
:1047580010B00394CDF8088006AA019201220092B5
:1047680052460DF127010D4801F090FC9DF82700F5
:1047780028B999F80B30DB09169A13700BB99DF814
:1047880027000BB0BDE8F08F0120A0E70220F8E772
:104798000220F6E70220F4E70520F2E718B6012028
:1047A80040B108B501460822034B186816F095FF7A
:1047B800002008BD02207047B08A0120014B18680C
:1047C800704700BFB08A012048B108B50146054BC3
:1047D80018680822104416F080FF002008BD022047
:1047E800704700BFB08A0120014B18680830704735
:1047F800B08A012048B108B50146054B1868042263
:10480800103016F06AFF002008BD0220704700BF74
:10481800B08A0120014B186810307047B08A012017
:1048280038B5044602F0A0FD054604F11400FDF772
:1048380089F801280AD102F097FD401B42F2107353
:10484800984205D80A20FEF7A2F9EEE7002038BD05
:104858000320FCE7F0B585B00546164F0126029601
:10486800002401940094334604223946FCF7CAFF19
:1048780002960194009433463246394605F17C008D
:10488800FCF7C0FF02940194009423464FF4804241
:10489800394605F12800FCF7B5FF0294019400940D
:1048A80023460222394605F11400FCF7ABFF05B098
:1048B800F0BD00BF000C0242704708B5002905DDB5
:1048C800162909DC022202F08CF808BD11F1090F43
:1048D800F8DA6FF00801F5E71621F3E705207047CD
:1048E80008B52830FDF72EF808BD10B5044600219C
:1048F800FCF770FF0120FEF74AF901212046FCF77A
:1049080069FF002010BD90F89000704738B5044644
:10491800FFF7F9FF08B107280CD104F17C05002145
:104928002846FCF757FF01212846FCF753FF0123CF
:1049380084F890302046FFF773FF38BD2DE9F84F13
:1049480005460E4693461F46BDF82880FFF7DEFF52
:1049580020B14FF003094846BDE8F88F814605F1BC
:104968007C0A00215046FCF735FF002406E0315D43
:1049780005F13C00FEF710FC0134A4B25C45F6D307
:10498800002406E0395D05F13C00FEF705FC013422
:10499800A4B24445F6D301215046FCF71BFF3278F8
:1049A800737843EA022340F21B129342D3D028467D
:1049B800FFF736FF8146CEE72DE9F04705468A46E0
:1049C80091461E46BDF82070FFF7A0FF10B10320E6
:1049D800BDE8F08705F17C0800214046FCF7FAFEA7
:1049E80000244C4508D21AF8041005F13C00FEF7E3
:1049F800D3FB0134A4B2F4E701214046FCF7EAFEF8
:104A08002846FFF70DFF00214046FCF7E3FE05F1BD
:104A18003C0900214846FEF7BFFB002406E00021C0
:104A28004846FEF7B9FB30550134A4B2BC42F6D370
:104A380001214046FCF7CEFE2846FFF7F1FEC7E706
:104A48002DE9F04706460D4690461F46FFF75EFFE4
:104A580020B14FF003094846BDE8F087814606F1CA
:104A68007C0A00215046FCF7B5FE002408E0295DC9
:104A780006F13C00FEF790FB08F804000134A4B2EC
:104A8800BC42F4D301215046FCF7A4FE2A786B7887
:104A980043EA022340F21B129342DCD03046FFF770
:104AA800BFFE8146D7E780F89010704730B589B0CF
:104AB80004460D4602F0E8F801212046FFF7F3FF0F
:104AC8002B460322012104F12800FCF7C1FD002533
:104AD800059505AB06AA07A9204602F0D9F804A94E
:104AE800204602F027F9ADF80E500DF10E012046D0
:104AF80002F041F9204602F059F903238DF80430F9
:104B08008DF8055002258DF806508DF807300123E1
:104B18008DF808308DF8093008238DF80B30042300
:104B28008DF80A300DEB0301204602F063F90B4BB8
:104B38001B6800936946204601F08EFF29462046EF
:104B480001F09BFE064D2946204601F053FCA5F6D0
:104B58003A31204602F0D1FB09B030BD58090608A9
:104B68005AC701200246B0B1002301E00133DBB28D
:104B7800142B0FD8094951F833109142F6D8591C13
:104B8800064850F831009042F0D9044B03EBC103BA
:104B980018797047FEE71F20704700BFF40B06081E
:104BA800012070470138092806D8DFE800F0070D12
:104BB8001316181A051C0A100020704743F60950EE
:104BC800704745F26110704747F6122070474AF265
:104BD800C32070474FF22440704704487047044888
:104BE80070470448704742F6B100704748E8010032
:104BF80090D0030020A107009DF80410D20053B9FB
:104C080008200244183241B102239DF800001844DC
:104C180002EBC00070470020F3E70023F5E7F0B48B
:104C28009DF810609DF8184004324D1F012D2DD9B4
:104C380018B9A1F10B05012D30D901282AD0002778
:104C48009DF81450ED006CB3102425448800A5EBA2
:104C580081054EB300242C44062903D908340FB12A
:104C6800881E8000002C21DB0444013C94FBF0F4F6
:104C780002FB043303F10C00062901D803F10E00EE
:104C88008000013002398840F0BC70470B2BCFD828
:104C98000C23CDE70C2903D00027D1E70127CFE764
:104CA8000127CDE70024D0E71424D4E70024DBE76C
:104CB800F0B585B00E4615461946BDF828209DF872
:104CC8002C309DF830709DF834C048B1012812D0BE
:104CD8000125002460190138B0FBF5F005B0F0BDDE
:104CE800CDF804C000972846FFF786FF4FF47A7482
:104CF80004FB00F4EEE7CDF808C0019700931346D3
:104D08000A4629463046FFF78AFF4FF47A7404FBB7
:104D180000F4034B985DFFF745FF0546DAE700BF4F
:104D2800F00B060808B5034B1B6813B15B6803B1A9
:104D3800984708BDB88A012008B5034B1B6813B112
:104D4800DB6803B1984708BDB88A0120014B0122EE
:104D58001A707047B48A012010B5054C002120460E
:104D680002F0FBF801212046FFF79DFE10BD00BFB1
:104D780018B6012010B5144B1860144C144920467D
:104D8800FFF794FE0021204602F0E7F801212046B3
:104D9800FFF789FE0021204602F019F804220021BD
:104DA800204601F01EFE00220A49204602F04BF878
:104DB80009490A48FEF75CFD09490A48FEF758FD0B
:104DC800094B00221A7010BDB88A012018B60120BC
:104DD800554D0408FC07F8032D4D040868C7012049
:104DE800414D04088CC80120B48A012008B50A483E
:104DF800FFF789FD072805D8052807D2042807D119
:104E0800022008BD082805D10320FAE70120F8E7A9
:104E18000020F6E70020F4E718B6012008B501469F
:104E2800014801F00CFD08BD18B6012000B583B09B
:104E380000230193FFF790FF01A9034802F0D6F879
:104E4800019803B05DF804FB18B6012008B50128E5
:104E580005D00D4B93F8AF30012B0AD008BD0B4B92
:104E68001970094880F8B71000F1B40101F095FDF8
:104E7800F4E7064B1970044880F8B01000F1AA0155
:104E880001F05FFDEAE700BF18B60120A480012009
:104E980008B5024801F0D3FE08BD00BF18B60120CE
:104EA80070B582B006460C461B4D002240F2044104
:104EB800284601F0C8FF0DF10701284601F0B6FBAE
:104EC8009DF80730022B1FD0134880F8B04000F13E
:104ED800AA0101F036FD104D22463146284601F060
:104EE800AEFE0021284601F08FFC04212846FFF77A
:104EF800DAFD0A4C0A4B19682046FEF773FD204676
:104F0800FEF7C0FC02B070BD284685F8B74005F131
:104F1800B40101F042FDDEE718B6012068C70120A0
:104F2800C48A012030B583B001238DF804300024F1
:104F38008DF80540074D22460199284601F0E5FF06
:104F480021462846FFF7AFFD0220FCF72FFA03B0F1
:104F580030BD00BF18B6012038B50446164D0022F2
:104F68001649284601F06FFF0021284601F018FE77
:104F78006CB9134B1B789BB10F4C6FF07F412046E7
:104F880001F027FC06212046FFF78DFD38BD0D4DA9
:104F980021462846FEF726FD2846FEF773FCE8E77B
:104FA800094B1968044CC903204601F012FC05217D
:104FB8002046FFF778FDE9E718B60120FC07F8035B
:104FC800BE8A01208CC80120C08A012038B5044659
:104FD80000221649164801F036FF8CB90121144801
:104FE80001F0DEFD134B1B789BB1114C6FF07F4134
:104FF800204601F0EEFB06212046FFF754FD38BDA0
:105008000D4D21462846FEF7EDFC2846FEF73AFCF2
:10501800E4E70A4B1968064CC903204601F0D9FB9E
:1050280005212046FFF73FFDE9E700BFFC07F8032D
:1050380018B60120BE8A01208CC80120C08A012030
:1050480010B50A46054C00230146204601F0DEFC57
:1050580007212046FFF727FD10BD00BF18B6012025
:1050680010B5044C204601F027FD08212046FFF723
:105078001AFD10BD18B6012070B50E464FF47A75AA
:1050880005FB02F50C4C0146204601F0D8FB3146E1
:105098002046FFF712FC204601F01EFD04212046A1
:1050A800FFF701FD054C29462046FEF79BFC2046EC
:1050B800FEF7E8FB70BD00BF18B6012068C70120E5
:1050C80000B583B000238DF807300DF107010448BF
:1050D80001F034FB9DF9070003B05DF804FB00BF45
:1050E80018B6012000B583B08DF8071001230DF123
:1050F80007020146024801F07AFD03B05DF804FB9F
:1051080018B6012000B583B0014600238DF807309A
:1051180001230DF10702044801F07DFD9DF8070009
:1051280003B05DF804FB00BF18B6012008B51346AC
:10513800C2B2024801F094FD08BD00BF18B60120B4
:1051480010B50446084B18705870012000F010F88C
:1051580024B10121054801F029FB10BD00210348B5
:1051680001F024FBF9E700BFBC8A012018B6012032
:1051780008B5012807D00121094801F07EFB094B39
:1051880000225A7008BD0221054801F076FB054B44
:105198005A7818788242F5D05870FFF7D1FFF1E7B6
:1051A80018B60120BC8A01202DE9F04F83B00D46C6
:1051B80016461C46BDF83480BDF838909DF83C7002
:1051C8009DF844A09DF854306F4A13700BB14FF00E
:1051D80000094FB19DF840206C4B1A7040B101286E
:1051E80072D003B0BDE8F08F684BFF221A70F5E764
:1051F800674C0021204601F04CFC4FF0010B84F86D
:1052080094B0C4F898600B2384F89C3005FA0BF02E
:10521800FFF7A8FC84F89D0084F8A8B04FEAC808F6
:10522800A4F8AA80042384F8AC30182384F8AD309D
:10523800002384F8AE3087EA0B0784F8AF70534B2D
:105248001B7884F8B030BAF1000F38D0062284F801
:10525800B1204F4C012384F8B230FFF77DFD94F85C
:105268009400013818BF0120FFF782FF04F198016C
:10527800204601F015FB04F1AA01204601F061FB6C
:10528800444A6B4692E8030083E803001946204627
:1052980001F06FFA41F2210241F60F51204601F068
:1052A8003EFC40F2FF11204601F064FC4FF4FA5234
:1052B80002FB09F9B9FBF6F6374B1E6091E7344B50
:1052C800012283F8B120C4E7DFF8C4B000215846B2
:1052D80001F0DFFB5FFA89F1584601F00DFC02236B
:1052E8008BF89430F3B28BF8A4302C4A525D8BF8CB
:1052F800A5208BF8A6401DB9A6F10B02012A31D9C9
:10530800012D2DD0224A002182F8A710204A02211F
:1053180082F8A810053BDBB2012B28D91C4BA3F857
:10532800B4801B4C84F8B670184B1B7884F8B730DF
:1053380084F8B8A09DF8503084F8B9300120FFF700
:1053480017FF04F1A401204601F0DEFA04F1B401CC
:10535800204601F022FB104B4FF6FF721A6040E71F
:105368000C2ECFD10A4A012182F8A710CEE7B8F156
:105378000B0F04D813460C22A3F8B420D1E7044B32
:10538800A3F8B480CDE700BFBE8A0120A480012025
:1053980018B601205C090608C08A0120F00B06082F
:1053A8002DE9F0418AB004460F4616461D460020F6
:1053B800FFF7DEFE2046FFF731FD4FF00108CDF87C
:1053C8002480002408940794069405940494039474
:1053D800029403230193009723464FF4167239462B
:1053E8002046FFF7E1FE2046FFF7B6FD4046FBF7F3
:1053F800DDFFFEF708FB04462046FEF70AFBA8423D
:1054080006D20020FFF75CFEB042F5DD002400E084
:105418000124FFF787FD20460AB0BDE8F0810000AF
:105428002DE9F04782B00C46BDF830909DF83470F5
:105438009DF8388058B1012869D021466148FFF7A6
:105448003CFA129A604B1A6002B0BDE8F087164623
:105458005C4D4FF0010A85F894A00A9AC5F8982087
:105468000B2285F89C2003FA0AF0FFF77BFB85F8EE
:105478009D00C5F8A06085F8A8A04FEAC909A5F85D
:10548800AA90042385F8AC30182385F8AD300023A2
:1054980085F8AE3087EA0A0785F8AF70B8F1000FD3
:1054A80030D0062285F8B120464D012385F8B23068
:1054B800FFF752FC95F89400013818BF0120FFF758
:1054C80057FE05F19801284601F0EAF905F1AA010D
:1054D800284601F036FA3D4A6B4692E8030083E815
:1054E80003001946284601F044F941F2210241F629
:1054F8000F51284601F013FB40F2FF11284601F036
:1055080039FB9AE72F4B012283F8B120CCE72D49CC
:10551800022281F894200A9AD2B281F8A4202C4859
:10552800C05C81F8A5009DF82C0081F8A6001BB985
:105538000A990B39012934D9012B2FD0214B00218D
:1055480083F8A7101F4B022183F8A810053AD2B29E
:10555800012A2BD91B4BA3F8B4901A4D85F8B670C5
:105568001C4B1B7885F8B73085F8B8809DF8443017
:1055780085F8B930FFF7F0FB95F89400013818BFAB
:105588000120FFF7F5FD05F1A401284601F0BCF95B
:1055980005F1B401284601F000FA4EE70A9B0C2BEE
:1055A800CCD1084B012183F8A710CBE7B9F10B0F39
:1055B80003D80C22A3F8B420CFE7024BA3F8B49089
:1055C800CBE700BF18B60120C48A01205C09060891
:1055D800F00B0608A480012008B50248FFF77EF901
:1055E800033008BD18B60120F0B583B005460C4657
:1055F800FFF789F9074623466A4601A9284601F0BC
:1056080047FB2168284601F049FCEFF3108672B683
:105618002846FFF765F901280ED086F3108823681D
:1056280040F204521A420BD1236813F0C80F01D07C
:10563800062F0AD103B0F0BD064B01221A70ECE721
:1056480001212846FFF72FFAEEE701212846FFF748
:105658002AFAEFE7B48A0120594B1B7803B970473F
:1056680010B584B0EFF3108372B6554A002111705B
:1056780083F3108803A95348FFF7B6FF039B13F081
:10568800040F37D1039B13F0080F3FD1039B13F08E
:10569800800F05D04C4B1B6813B11B6903B19847A9
:1056A800039810F4807F07D0474B1B6823B19B6990
:1056B80013B1C0F340209847039B13F4806F67D160
:1056C800039B13F0400F6FD1039B13F4002F05D0F9
:1056D8003D4B1B6813B1DB6903B19847039B13F477
:1056E800801F05D0384B1B6813B11B6A03B198475C
:1056F80004B010BD3548FEF739F9334B1B68002B51
:10570800C0D01B68002BBDD09847BBE73048FEF7D8
:105718002DF92C4C02A9204600F098FF9DF808307E
:105728009DF809202B49204601F09AFA0DF107014E
:10573800204600F07BFF9DF80730022B13D0264946
:10574800204800F09DFF204B1B68002B9ED09C68D2
:10575800002C9BD00023204A92F901209DF80810C4
:105768001C48A04792E71D49204600F0BDFF164B94
:105778001B68002B8AD09C68002C87D0174A92F9A6
:10578800013092F900209DF808101248A0477DE7E3
:105798000F48FEF7EBF80C4B1B68002B90D0DB682A
:1057A800002B8DD098478BE70948FEF7DFF8064BAA
:1057B8001B68002B88D0DB68002B85D0984783E7CF
:1057C800B48A012018B60120B88A012068C70120D0
:1057D8008CC801208CC7012080C7012010B6012089
:1057E80010B5022000F006FB034C2146022000F011
:1057F80031FB208810BD00BFA4C801200E4B5B8878
:105808009AB240F6E44303FB02F30C4AA2FB0323DB
:105818000B4A1188C1EB931303EB83031A01094B5D
:105828001B885B1A92FBF3F202F11E0300EE103A9A
:10583800B8EEC00A704700BF28A60120F119760506
:10584800A805FA0BCA05FA0B0120704710B5FFF737
:10585800C7FF0446154B1880FFF7F6FF10B340F654
:10586800B7339C421DD8A4F661139BB240F256226E
:1058780093420FD8A4F51664C4EB841304EB830495
:105888000B4880FB0430E417C4EBA010C0B2013011
:10589800C0B207E0A4F6FD04A4B2632C03D801202B
:1058A80000E0FE2010BDFF20FCE700BFA68001201D
:1058B800B5814E1B014B1868704700BF9005FA0B65
:1058C80008B572B6FCF7CCF962B608BDEFF31083E1
:1058D80072B6BFF34F8F0549CA6802F4E062044B01
:1058E8001343CB60BFF34F8F00BFFDE700ED00E02F
:1058F8000400FA052DE9F04F304A02EB5002B2FBE2
:10590800F0F02F4B2C2202FB01335A6AD9680A4463
:10591800323A996ACD1C00FB15251A691C6A121BBC
:10592800A2F58272043101FB10275B6904EB030EB8
:10593800002D05DD002F05DD00264FF0100836E0AC
:105948000025F7E70027F7E701320F2A20D802FBE6
:1059580001F300FB03F39D42F6D89F42F4D3B04510
:10596800F2D0DFF86080D8F80030DFF85CA003EBF5
:10597800830B0AEB8B094AF82B60C9F80440C9F875
:1059880008200133C8F800307F2B14D8B046DBE775
:1059980064460F2C0AD804F1010C711C04FB011396
:1059A80000FB03F39E45F3D80022CEE701360F2E05
:1059B80001D80024EDE7BDE8F08F00BF00CA9A3B8C
:1059C800100D0608D0940120D08A01202DE9F04F4F
:1059D80089B08C46454B03EB5001B1FBF0FA4448C3
:1059E8002C2202FB0CF28118825803EB5200B0FB08
:1059F800F2F005908A6A0AFB02F204924A68B3FB45
:105A0800F2FB8A68B3FBF2F90390002306934FF088
:105A1800FF33079355E0CA1A20E02846FF282CD800
:105A2800451C00FB044242447244BB1830492C26F2
:105A380006FB0C110E6A33444E6A33449945ECD880
:105A48009B45EAD32A4E2C2101FB0C61C96991427E
:105A5800E3D89245E1D205995A1ADCD4039B9A42BD
:105A6800DBD2069E06EB8601224B03EB81030199EC
:105A78001961D86003920796CFE7029B0193019BB7
:105A8800FF2B1BD8049901F1320E019B5A1C02927C
:105A980003FB04474FEA4A0807EB4A077744144ACE
:105AA8002C2303FB0C239B69BB42E6D2A7F13203EC
:105AB8005B1ABAEB930FE0D20020AFE7069B0133E5
:105AC80006930D4B1B68069A93420AD9069B03EB73
