:020000040804EE
:1000000000000320F1350408413604084136040895
:10001000E52A040841360408E72A040841360408A2
:10002000000000000000000000000000E92A0408B1
:100030004136040800000000EB2A0408ED2A0408F9
:100040004136040841360408F12A04084136040800
:100050004136040841360408413604084136040894
:100060004136040841360408413604081B180408C8
:10007000251804082F180408391804084318040820
:100080004D18040857180408611804086B18040870
:1000900077180408831804088F1804089B180408AC
:1000A000A7180408B3180408BF1804084136040848
:1000B0004136040841360408413604084136040834
:1000C000413604080D2B04081D2B04084136040892
:1000D000413604082D2B0408413604084136040833
:1000E00041360408452B0408552B0408652B0408E9
:1000F000752B0408413604084136040841360408CB
:1001000041360408852B04084136040841360408AA
:10011000413604084136040841360408952B04088A
:10012000A52B04084136040841360408B52B040801
:10013000413604084136040841360408C52B04083A
:100140004136040841360408D52B0408413604081A
:100150004136040841360408413604084136040893
:100160004136040841360408413604084136040883
:100170004136040800000000413604080000000079
:1001800041360408E52B0408F52B04084136040821
:1001900041360408052C0408413604084136040899
:1001A0004136040841360408413604084136040843
:1001B0004136040800000000152C0408252C040812
:1001C000413604080000000041360408292C0408C8
:1001D0004136040841360408413604084136040813
:1001E0004136040841360408413604084136040803
:0401F000000000000B
:1001F80010B5054C237833B9044B13B1044800E01B
:1002080000BF0123237010BD94840120000000006A
:10021800C899050808B5034B1BB10349034800E01A
:1002280000BF08BD0000000098840120C899050897
:10023800034613F8012B002AFBD1181A013870471E
:1002480081F0004102E000BF83F0004330B54FEA7F
:1002580041044FEA430594EA050F08BF90EA020FEC
:100268001FBF54EA000C55EA020C7FEA645C7FEA7F
:10027800655C00F0E2804FEA5454D4EB5555B8BFA2
:100288006D420CDD2C4480EA020281EA030382EA13
:10029800000083EA010180EA020281EA0303362DA5
:1002A80088BF30BD11F0004F4FEA01314FF4801C78
:1002B8004CEA113102D0404261EB410113F0004F8A
:1002C8004FEA03334CEA133302D0524263EB430341
:1002D80094EA050F00F0A780A4F10104D5F1200EDF
:1002E8000DDB02FA0EFC22FA05F2801841F100013A
:1002F80003FA0EF2801843FA05F359410EE0A5F10E
:1003080020050EF1200E012A03FA0EFC28BF4CF03E
:10031800020C43FA05F3C01851EBE37101F00045F4
:1003280007D54FF0000EDCF1000C7EEB00006EEB01
:100338000101B1F5801F1BD3B1F5001F0CD349088B
:100348005FEA30004FEA3C0C04F101044FEA4452E2
:1003580012F5800F80F09A80BCF1004F08BF5FEA69
:10036800500C50F1000041EB045141EA050130BD49
:100378005FEA4C0C404141EB0101013C28BFB1F55B
:10038800801FE9D291F0000F04BF01460020B1FAA6
:1003980081F308BF2033A3F10B03B3F120020CDA79
:1003A8000C3208DD02F1140CC2F10C0201FA0CF057
:1003B80021FA02F10CE002F11402D8BFC2F1200CBC
:1003C80001FA02F120FA0CFCDCBF41EA0C01904072
:1003D800E41AA2BF01EB0451294330BD6FEA0404BB
:1003E8001F3C1CDA0C340EDC04F11404C4F12002A6
:1003F80020FA04F001FA02F340EA030021FA04F3B8
:1004080045EA030130BDC4F10C04C4F1200220FA0E
:1004180002F001FA04F340EA0300294630BD21FA4C
:1004280004F0294630BD94F0000F83F4801306BF12
:1004380081F480110134013D4EE77FEA645C18BF06
:100448007FEA655C29D094EA050F08BF90EA020F9D
:1004580005D054EA000C04BF1946104630BD91EA95
:10046800030F1EBF0021002030BD5FEA545C05D198
:100478004000494128BF41F0004130BD14F58004D7
:100488003CBF01F5801130BD01F0004545F0FE414B
:1004980041F470014FF0000030BD7FEA645C1ABF80
:1004A800194610467FEA655C1CBF0B46024650EAB7
:1004B800013406BF52EA033591EA030F41F40021E3
:1004C80030BD00BF90F0000F04BF0021704730B569
:1004D8004FF4806404F132044FF000054FF000013E
:1004E80050E700BF90F0000F04BF0021704730B5FF
:1004F8004FF4806404F1320410F0004548BF4042D4
:100508004FF000013EE700BF42004FEAE2014FEA28
:1005180031014FEA02701FBF12F07F4393F07F4F03
:1005280081F06051704732F07F4208BF704793F006
:100538007F4F04BF41F40021704730B54FF4607419
:1005480001F0004521F000411CE700BF50EA01021C
:1005580008BF704730B54FF000050AE050EA0102C5
:1005680008BF704730B511F0004502D5404261EB35
:1005780041014FF4806404F132045FEA915C3FF476
:10058800D8AE4FF003025FEADC0C18BF03325FEA13
:10059800DC0C18BF033202EBDC02C2F1200300FAC4
:1005A80003FC20FA02F001FA03FE40EA0E0021FAE9
:1005B80002F11444BDE600BF70B54FF0FF0C4CF4D7
:1005C800E06C1CEA11541DBF1CEA135594EA0C0F89
:1005D80095EA0C0F00F0DEF82C4481EA030621EAC4
:1005E8004C5123EA4C5350EA013518BF52EA0335FF
:1005F80041F4801143F4801338D0A0FB02CE4FF0B1
:100608000005E1FB02E506F00042E0FB03E54FF0E0
:100618000006E1FB03569CF0000F18BF4EF0010ED8
:10062800A4F1FF04B6F5007F64F5407404D25FEAD4
:100638004E0E6D4146EB060642EAC62141EA555187
:100648004FEAC52040EA5E504FEACE2EB4F1FD0CC9
:1006580088BFBCF5E06F1ED8BEF1004F08BF5FEA47
:10066800500E50F1000041EB045170BD06F00046F9
:1006780046EA010140EA020081EA0301B4EB5C04A6
:10068800C2BFD4EB0C0541EA045170BD41F480119E
:100698004FF0000E013C00F3AB8014F1360FDEBFC3
:1006A800002001F0004170BDC4F10004203C35DA9F
:1006B8000C341BDC04F11404C4F1200500FA05F322
:1006C80020FA04F001FA05F240EA020001F00042C3
:1006D80021F0004110EBD37021FA04F642EB060139
:1006E8005EEA430E08BF20EAD37070BDC4F10C0463
:1006F800C4F1200500FA04F320FA05F001FA04F227
:1007080040EA020001F0004110EBD37041F1000112
:100718005EEA430E08BF20EAD37070BDC4F120051D
:1007280000FA05F24EEA020E20FA04F301FA05F285
:1007380043EA020321FA04F001F0004121FA04F22D
:1007480020EA020000EBD3705EEA430E08BF20EAFD
:10075800D37070BD94F0000F0FD101F00046400037
:1007680041EB010111F4801F08BF013CF7D041EAB9
:10077800060195F0000F18BF704703F000465200BD
:1007880043EB030313F4801F08BF013DF7D043EA8E
:100798000603704794EA0C0F0CEA135518BF95EA44
:1007A8000C0F0CD050EA410618BF52EA4306D1D1CB
:1007B80081EA030101F000414FF0000070BD50EAEA
:1007C800410606BF1046194652EA430619D094EA74
:1007D8000C0F02D150EA013613D195EA0C0F05D15E
:1007E80052EA03361CBF104619460AD181EA0301B2
:1007F80001F0004141F0FE4141F470014FF000006A
:1008080070BD41F0FE4141F4780170BD70B54FF004
:10081800FF0C4CF4E06C1CEA11541DBF1CEA135584
:1008280094EA0C0F95EA0C0F00F0A7F8A4EB050466
:1008380081EA030E52EA03354FEA013100F088805D
:100848004FEA03334FF0805545EA131343EA126326
:100858004FEA022245EA111545EA10654FEA0026DB
:100868000EF000419D4208BF964244F1FD0404F594
:10087800407402D25B084FEA3202B61A65EB0305F0
:100888005B084FEA32024FF480104FF4002CB6EBAD
:10089800020E75EB030E22BFB61A754640EA0C002D
:1008A8005B084FEA3202B6EB020E75EB030E22BF6D
:1008B800B61A754640EA5C005B084FEA3202B6EBAE
:1008C800020E75EB030E22BFB61A754640EA9C006D
:1008D8005B084FEA3202B6EB020E75EB030E22BF3D
:1008E800B61A754640EADC0055EA060E18D04FEAFB
:1008F800051545EA16754FEA06164FEAC30343EA9B
:1009080052734FEAC2025FEA1C1CC0D111F4801F67
:100918000BD141EA00014FF000004FF0004CB6E760
:1009280011F4801F04BF01430020B4F1FD0C88BFFF
:10093800BCF5E06F3FF6AFAEB5EB030C04BFB6EB0A
:10094800020C5FEA500C50F1000041EB045170BDFD
:100958000EF0004E4EEA113114EB5C04C2BFD4EB2A
:100968000C0541EA045170BD41F480114FF0000EAE
:10097800013C90E645EA060E8DE60CEA135594EA2A
:100988000C0F08BF95EA0C0F3FF43BAF94EA0C0F2D
:100998000AD150EA01347FF434AF95EA0C0F7FF4A2
:1009A80025AF104619462CE795EA0C0F06D152EAF6
:1009B80003353FF4FDAE1046194622E750EA4106DA
:1009C80018BF52EA43067FF4C5AE50EA41047FF4EB
:1009D8000DAF52EA43057FF4EBAE12E74FF0FF3C50
:1009E80006E000BF4FF0010C02E000BF4FF0010C21
:1009F8004DF804CD4FEA410C7FEA6C5C4FEA430C9A
:100A080018BF7FEA6C5C1BD001B050EA410C0CBFE8
:100A180052EA430C91EA030F02BF90EA020F00204A
:100A2800704710F1000F91EA030F58BF994208BFB1
:100A380090422CBFD8176FEAE37040F0010070476E
:100A48004FEA410C7FEA6C5C02D150EA013C07D1C5
:100A58004FEA430C7FEA6C5CD6D152EA033CD3D010
:100A68005DF8040B704700BF8446104662468C460A
:100A78001946634600E000BF01B5FFF7B7FF00283D
:100A880048BF10F1000F01BD4DF808EDFFF7F4FF66
:100A98000CBF012000205DF808FB00BF4DF808EDF1
:100AA800FFF7EAFF34BF012000205DF808FB00BF14
:100AB8004DF808EDFFF7E0FF94BF012000205DF836
:100AC80008FB00BF4DF808EDFFF7CEFF94BF0120EB
:100AD80000205DF808FB00BF4DF808EDFFF7C4FFE4
:100AE80034BF012000205DF808FB00BF4FEA410C2D
:100AF8007FEA6C5C02D150EA013C0AD14FEA430C10
:100B08007FEA6C5C02D152EA033C02D14FF000004C
:100B180070474FF0010070474FEA410212F500128A
:100B280015D211D56FF47873B3EB625212D94FEA2C
:100B3800C12343F0004343EA505311F0004F23FA16
:100B480002F018BF404270474FF00000704750EA6B
:100B5800013005D111F0004008BF6FF00040704728
:100B68004FF00000704700BF4A0011D212F5001282
:100B780011D20DD56FF47873B3EB62520ED44FEAED
:100B8800C12343F0004343EA505323FA02F070476D
:100B98004FF00000704750EA013002D14FF0FF30AB
:100BA80070474FF0000070474FEA4102B2F1E0434E
:100BB80024BFB3F5001CDCF1FE5C0DD901F0004C3C
:100BC8004FEAC0024CEA5070B2F1004F40EB83008C
:100BD80008BF20F00100704711F0804F21D113F1B8
:100BE8003872BCBF01F00040704741F480114FEAF1
:100BF8005252C2F11802C2F1200C10FA0CF320FA7A
:100C080002F018BF40F001004FEAC1234FEAD32396
:100C180003FA0CFC40EA0C0023FA02F34FEA430300
:100C2800CCE77FEA625307D150EA01331EBF4FF089
:100C3800FE4040F44000704701F0004040F0FE40A4
:100C480040F40000704700BF53B94AB9002908BFF3
:100C580000281CBF4FF0FF314FF0FF3000F0B6B94D
:100C6800ADF1080C6DE904CE00F03CF8DDF804E0C5
:100C7800DDE9022304B0704738B50022002304469A
:100C88000D46FFF70BFF28B920462946BDE8384036
:100C980000F00AB8204605F1004100F005F840428E
:100CA80061EB410138BD00BFD0B500220B4B0646B1
:100CB8000F46FFF781FCFFF757FF0446FFF702FCDA
:100CC8000022074BFFF778FC02460B4630463946B0
:100CD800FFF7BAFAFFF748FF2146D0BD0000F03D04
:100CE8000000F0412DE9F04F099D04468846002B8D
:100CF80040F084808A42174643D9B2FA82F242B160
:100D0800C2F120009140974024FA00F0944040EA54
:100D180001084FEA174C230C1FFA87FEB8FBFCF6B4
:100D28000CFB168106FB0EF043EA0143984207D9F3
:100D3800FB1806F1FF3102D2984200F231810E46CB
:100D4800191AA3B2B1FBFCF00CFB101100FB0EFE4C
:100D580043EA0144A64507D93C1900F1FF3302D202
:100D6800A64500F21A81184640EA0640A4EB0E0494
:100D780000261DB1D4400023C5E900433146BDE833
:100D8800F08F02B9FFDEB2FA82F2002A52D1CB1BF1
:100D98004FEA174E1FFA87F80126210CB3FBFEFC19
:100DA8000EFB1C3008FB0CF941EA004189450BD9C0
:100DB80079180CF1FF332CBF01200020894502D996
:100DC800002800F0F0809C46A1EB0901A3B2B1FB1A
:100DD800FEF00EFB101108FB00F843EA0144A045A1
:100DE80007D93C1900F1FF3302D2A04500F2D280A6
:100DF8001846A4EB080440EA0C40BAE78B4209D92C
:100E0800002D00F0BE800026C5E9000130463146BD
:100E1800BDE8F08FB3FA83F6002E4DD18B42C0F0B7
:100E2800B380824240F2B0803046002DA6D0C5E99A
:100E38000048A3E79740C2F1200301FA02F04FEA05
:100E4800174ED94024FA03F31FFA87F89440034356
:100E5800B1FBFEF01E0C0EFB101100FB08FC46EA6D
:100E680001418C450ED9791800F1FF362CBF4FF09F
:100E780001094FF000098C4503D9B9F1000F00F0C2
:100E880096803046A1EB0C019BB2B1FBFEF60EFB3F
:100E9800161106FB08FC43EA01418C4507D979186D
:100EA80006F1FF3302D28C4500F288801E46A1EB82
:100EB8000C0346EA004670E7C6F1200703FA06F479
:100EC80002FA06FC01FA06FEFA4020FA07F8F94091
:100ED80000FA06F3224348EA0E044FEA12484FEAA2
:100EE800144E1FFA82F9B1FBF8FA08FB1A110AFB33
:100EF80009F04EEA014E70450ED912EB0E0E0AF1BA
:100F0800FF312CBF4FF0010B4FF0000B704502D999
:100F1800BBF1000F4ED08A46AEEB000EA4B2BEFB6A
:100F2800F8F008FB10EE00FB09F944EA0E4EF14513
:100F380007D912EB0E0E00F1FF3101D2F14540D86E
:100F4800084640EA0A40AEEB090EA0FB0C89CE45E4
:100F580041464C4602D306D1434504D20138B8EB8A
:100F68000C0169EB02047DB35A1A6EEB040EF240D1
:100F78000EFA07F72EFA06F300261743C5E90073A1
:100F8800FCE62E462846F9E6841A61EB03010120A7
:100F980088464AE702383C442BE702383C44E3E6FB
:100FA800023E3B44CCE6ACF1020C39440CE7023873
:100FB800394467E7AAF1020A9644ADE7023E39448C
:100FC80075E702389644BCE72E46D7E6704700BF5F
:100FD80000B58BB0002307930893099301930293FC
:100FE80003930493059306931E481F4A02604360C7
:100FF8008360C36003610422426103764376012261
:10100800C26180F820308362C36280F83030436365
:1010180080F8383005F02CF9D0B90023079307A9D8
:10102800104806F02BF8B0B9104B01930623029331
:10103800002303937F2204920422059206930DEB6A
:101048000201084805F00EFC40B90BB05DF804FB3E
:1010580000F066FFE1E700F063FFE5E700F060FFFE
:10106800F3E700BF2CA1012000800242000084CBDE
:1010780000B587B000230093019302930393049370
:1010880005931948194A026043608360C36003618D
:1010980004224261037643760122C26180F820303F
:1010A8008362C36280F83030436380F8383005F0DB
:1010B800DFF890B90E4B00930623019300230293A7
:1010C8007F2203920422049205936946064805F09C
:1010D800C9FB28B907B05DF804FB00F021FFE9E778
:1010E80000F01EFFF6E700BF98A001200081024231
:1010F8000010603230B5AFB00446002129912A9122
:101108002B912C912D91942204A813F0B2FE236800
:10111800504A934204D0504A93425FD02FB030BD1A
:101128004FF4804304934FF04053249304A807F0EE
:1011380079FE00283ED1494A136801331360012B18
:101148003BD0474BDA6C42F00202DA64DB6C03F006
:1011580002030193019B0223299303232A93002569
:101168002B9529A93F4806F097FA3F483F4B036063
:10117800052343608560C560802303614FF4807355
:1011880043614FF480638361C561056206F0C2F86C
:10119800F0B91021344806F06CFAE0B9324B2365F7
:1011A8009C6200221146252006F002F8252006F050
:1011B80033F8B3E700F0B4FEBDE7294BDA6C42F42C
:1011C8000052DA64DB6C03F400530093009BB8E729
:1011D80000F0A6FEDDE700F0A3FEDFE74FF4804352
:1011E80004934FF04053249304A807F01BFE10BB50
:1011F8001A4A136801331360012B1FD0184BDA6C9D
:1012080042F00102DA64DB6C03F001030393039BF1
:101218008023299303232A9300242B9429A9144873
:1012280006F03AFA22462146252005F0C1FF25207E
:1012380005F0F2FF72E700F073FED9E7084BDA6CAD
:1012480042F40052DA64DB6C03F400530293029B0D
:10125800D4E700BF0080024200810242B08401202E
:101268000010024000040242C0A101206C040240A8
:101278000000024282B00F4B9A6C42F480529A648A
:101288009B6C03F480530193019B0B4B9A6822F0EB
:1012980060029A609A6822F080029A60074A5A614E
:1012A8009A6822F018029A604FF0FF321A6102B071
:1012B800704700BF0010024000300240B71DC10453
:1012C80008B504F0ADFF08BD00B585B0234B9A6C96
:1012D80042F004029A649A6C02F004020192019AA4
:1012E8009A6C42F001029A649A6C02F0010202922E
:1012F800029A9A6C42F002029A649B6C03F0020311
:101308000393039B00221146212005F051FF212061
:1013180005F082FF00221146222005F049FF222015
:1013280005F07AFF00221146512005F041FF5120B7
:1013380005F072FF00221146522005F039FF5220B5
:1013480005F06AFF00221146552005F031FF5520AF
:1013580005F062FF05B05DF804FB00BF0010024015
:101368000131038991FBF3F003FB101080B2704741
:1013780000230380438041600281704738B50446EA
:101388000D464188FFF7ECFF608063681D5438BD47
:1013980038B5044645680188FFF7E2FF0346285C34
:1013A800238038BD02884088824214BF0020012073
:1013B800704700002DE9F04F8BB000240594069487
:1013C800079408940994514BDA6C42F01002DA64DD
:1013D800DA6C02F010020092009ADA6C42F0010214
:1013E800DA64DA6C02F001020192019ADA6C42F0D6
:1013F8000402DA64DA6C02F004020292029ADA6CED
:1014080042F00202DA64DA6C02F002020392039AF2
:10141800DA6C42F00802DA64DB6C03F00803049328
:10142800049BDFF8F89001221021484606F0A1FA43
:10143800374E01220521304606F09BFADFF8E0809E
:1014480001221021404606F094FA324F224602212A
:10145800384606F08EFA082305932F4B0693079417
:1014680005A9384606F018F94FF0100BCDF814B05E
:10147800012506950794089405A9484606F00CF935
:101488004FF4004ACDF814A003220692079405A948
:10149800404606F001F94FF440530593069407942B
:1014A80005A9304606F0F8F844F2020305931A4BF2
:1014B8000693079405A9304606F0EEF8CDF814A077
:1014C80003230693079405A9484606F0E5F8052383
:1014D800059306950794089405A9304606F0DCF8AC
:1014E800CDF814B006950794089405A9404606F06F
:1014F800D3F80223059306950794089405A938465E
:1015080006F0CAF80BB0BDE8F08F00BF001002402B
:10151800000C0242001002420000111000000242BA
:1015280000040242002B00F0B68030B587B00446B4
:101538001546036143880193012912D0022913D06B
:10154800554B0293A37A03930223049301A960687D
:1015580006F0A2F8022D2ED00BD8012D07D80321B2
:101568000AE04E4B0293EDE74D4B0293EAE7002168
:1015780002E0032D21D101216388B3F5807F6ED06D
:1015880027D8202B1BD81AB2002A78D0013B1F2B52
:101598007FD8DFE803F0484C7E507E7E7E547E7E06
:1015A8007E7E7E7E7E587E7E7E7E7E7E7E7E7E7E79
:1015B8007E7E7E7E7E5C0221DEE70021DCE7402B1A
:1015C80049D0802B03D1374BDC61122458E00B241F
:1015D80056E0B3F5805F4AD009D9B3F5804F4AD0B9
:1015E800B3F5004F16D12F4BDC631A2448E0B3F54E
:1015F800806F38D0B3F5006F03D12A4BDC62162414
:101608003EE0B3F5007F03D1264B5C62142437E03B
:101618000B2435E0B3F5005F03D1224B5C6318243B
:101628002EE00B242CE01F4B1C600B2428E01D4BE4
:101638005C600C2424E01B4B9C600D2420E0194BBB
:10164800DC600E241CE0174B1C610F2418E0154BBE
:101658005C61102414E0134B9C61112410E0114BC1
:101668001C6213240CE00F4B9C62152408E00D4B00
:101678001C63172404E00B4B9C63192400E00B2423
:101688000022204605F094FD204605F0C5FD07B070
:1016980030BD0B24F4E77047000031100000111032
:1016A80000002110B484012008B590F90030B3F18E
:1016B800FF3F04D0CAB24188406806F05AF908BD15
:1016C80070B58AB09DF838609DF83C5002700029CA
:1016D8003BD004464280434A914218D0424A914244
:1016E80035D0424A914241D0414A91424DD0414A77
:1016F800626002F17E42A2F54062D16C41F0800145
:10170800D164D26C02F080020492049A0DE0626007
:1017180002F17E4202F58052D16C41F00101D164A0
:10172800D26C02F001020092009A62880592A572BA
:10173800079502220892002B36D100220692012B2F
:101748004BD005A9606805F0A7FF0AB070BD6260BC
:1017580002F17E4202F54062D16C41F00201D1648F
:10176800D26C02F002020192019ADEE7626002F195
:101778007E4202F50062D16C41F00401D164D26C62
:1017880002F004020292029ACFE7626002F17E42FE
:1017980002F58062D16C41F00801D164D26C02F08C
:1017A80008020392039AC0E7032B06D0022B07D046
:1017B800012E0FD001220692C1E703220692BEE74E
:1017C800012E04D002220692109A0992B7E712223B
:1017D8000692F9E711220692B1E710992046FFF721
:1017E80063FFAEE700000242000402420008024222
:1017F800000C0242001C024208B590F90030B3F117
:10180800FF3F04D04188406806F0ACF808BD0020CE
:10181800FCE708B5012006F0B3F808BD08B50220BA
:1018280006F0AEF808BD08B5042006F0A9F808BD12
:1018380008B5082006F0A4F808BD08B5102006F081
:101848009FF808BD08B5202006F09AF808BD08B52D
:10185800402006F095F808BD08B5802006F090F8FD
:1018680008BD08B54FF4807006F08AF808BD08B5C1
:101878004FF4007006F084F808BD08B54FF4806096
:1018880006F07EF808BD08B54FF4006006F078F859
:1018980008BD08B54FF4805006F072F808BD08B5C9
:1018A8004FF4005006F06CF808BD08B54FF48040BE
:1018B80006F066F808BD08B54FF4004006F060F879
:1018C80008BD000008B51248124B0360124B436074
:1018D800002383600122C260036143618361C361A5
:1018E800036206F0FBFC50B90021094806F0DAFF54
:1018F80040B90021064807F003F830B908BD00F0E8
:101908000FFBF1E700F00CFBF3E700F009FBF5E74C
:1019180028A20120005400408974F73030B5ADB0DA
:10192800044600212791289129912A912B919422EC
:1019380002A813F09EFA2268214B9A4201D02DB0DA
:1019480030BD402302930023159302A807F06AFADA
:10195800002832D11B4CE36C43F00203E364E36CD0
:1019680003F002030093009B4FF440732793122364
:1019780028930123299300252A9504232B9327A92B
:10198800114805F089FEA36D43F40013A365A36D08
:1019980003F400130193019B2A462946372005F0DA
:1019A80007FC372005F038FC2A462946382005F080
:1019B800FFFB382005F030FCC1E700F0B1FAC9E7B9
:1019C800005400400010024000040242EFF310836C
:1019D80072B641B1012903D106490A68104308606B
:1019E80083F31088704703490A6822EA00000860F8
:1019F800F6E700BFF8840120EFF3108372B6074AB8
:101A0800126822B9064A12682AB1012000E00020B3
:101A180083F3108870470220FAE700BFF88401209A
:101A2800F484012008B50121002006F095FF08BDC7
:101A3800EFF3108372B683F31088704708B5EFF39D
:101A4800108372B683F3108801214FF4804006F0AA
:101A5800A9FF08BD704770477047000008B50A4BDA
:101A68001B683BB9094B1B684BB1FFF7E7FFFFF752
:101A7800F1FF08BDFFF7D6FFFFF7DAFFF9E7FFF739
:101A8800EAFFFFF7E9FFF4E7F8840120F484012076
:101A9800014B01221A707047EF8501207047000042
:101AA800014B9870704700BF40800120003818BF74
:101AB8000120014B187370474080012008B5084B7E
:101AC80018601B6803B108BD4FF47A71054813F01C
:101AD8004DF900F5EA403030014B1860F3E700BFDC
:101AE8003C86012018FCFFFF10B5084C204601F089
:101AF8002FFB074B01221A70064B1968204601F08C
:101B080063FB204601F0B0FA10BD00BF40860120FB
:101B1800F08501203C860120012800D1704710B5CE
:101B2800064C0749204601F095FA064B19682046ED
:101B380001F04AFB0020FFF7D7FF10BD40860120C7
:101B4800F11A04083C86012010B504464378022B9C
:101B580007D0032B09D0012B07D020460AF070FAD2
:101B680010BD044801F080FAF7E7024801F0F0FAE6
:101B7800F3E700BF2486012000B583B00AF0B2FA6B
:101B880000218DF800108DF80110019168460AF0C7
:101B98008FFD03B05DF804FB10B504460AF0E0F9C8
:101BA8002378013B012B06D9012017F015FF0548C2
:101BB80001F05AFA10BD63681B7803F00103024A6A
:101BC8001370F1E70C860120EE85012008B501208D
:101BD80017F002FF034801F047FA034801F044FAFE
:101BE80008BD00BF0C8601202486012008B50348E3
:101BF80001F0AEFA002017F0EFFE08BD0C860120B8
:101C080008B50AF0EBF808BD10B504460AF0ACF8C0
:101C180094F90530B3F1FF3F03D000200AF0D8FD56
:101C280010BD0AF009FDFBE708B50AF03BF808BD4E
:101C380008B509F0E7FF08BD08B509F0A3FF08BD1E
:101C480008B509F089FF08BD08B5034801F080FA16
:101C5800012017F0C9FE08BDF4850120F8B50AF087
:101C680005FD00B1F8BD2D4D284603F011FC03F029
:101C780005FC002003F056FB294E3146002003F0F6
:101C880097FB311D012003F093FB264C0227277098
:101C980009F04AFE244B1978002009F05DFE03F094
:101CA80063F8642303FB00F0204B83FB0023034409
:101CB800C017C0EBE31300EE103AB8EEC00A0120DB
:101CC80009F066FE96ED000AB8EEC00A384609F03B
:101CD8005FFE95ED021AD5ED010A95ED000A032085
:101CE80009F080FE9FED120AB0EE401AF0EE400AAD
:101CF800042009F0BDFE606809F022FE09F01AFE12
:101D080060700C4B997820460AF0D2FC0028A9D1C3
:101D180017F06AFE084801F0A7F9A3E760860120DA
:101D28005886012000800120EE85012009040281E7
:101D38000000000040800120F485012008B5EFF381
:101D4800108172B6064A1378DBB20020107081F356
:101D58001088012B00D008BDFFF780FFFBE700BF0C
:101D6800F085012010B588B004F036FA04F06CFA5A
:101D780004F072FA5149002017F03EFE5049012044
:101D880017F03AFEFFF716FBFFF79EFAFFF720F968
:101D9800FFF798FD01F090FA00F072F900F0D2FB1D
:101DA80000F0F8FB01F07AF8FFF762F901F034FA75
:101DB800FFF760FA00F0C4F800F024FA03F02EFBF5
:101DC800002003F0A5FA012003F0A2FA3D4A3E4C98
:101DD8004FF6FF730593002304934FF48063039336
:101DE80002924FF40063019300924FF48053022152
:101DF800204600F0D1FCA4F13C0001F0C5FF334CB3
:101E08003349204601F026F91921204601F0DCF972
:101E1800304C3149204601F01DF91921204601F0C6
:101E2800D3F92E4C2E49204601F014F941F288319D
:101E3800204601F0C9F94FF47A712A4812F096FF4A
:101E480000F5EA403030284A10604FF0817307935C
:101E58004FF0A063069306AA07A924480AF04EF992
:101E6800234924480AF0E4FA18B1234813F022FF62
:101E7800FEE714200AF0CEFD204900200AF0DAFD22
:101E88000AF0DAFB0020FFF747FE03E002F0A6FFA6
:101E980084F310881A480AF05DF90AF02FFEFFF75C
:101EA8004DFFEFF3108472B6164B1B78DBB2012B93
:101EB800ECD1144B00221A70EAE700BF3B1F04085C
:101EC800411F04080008024204B10120F4850120E2
:101ED800511C04080C860120F51B040824860120E7
:101EE800D51B040818FCFFFF3C860120B09A0508A2
:101EF8004080012008800120C49A050850800120F4
:101F08003CAF0120EF85012008B50268034B9A42D7
:101F180000D008BD04F072F9FBE700BF00100040D4
:101F280008B572B617F078FD4FF4FA7004F078F936
:101F3800F8E708B5FFF7F4FF08B5FFF7F1FF000071
:101F480008B50648064B03600023436007F01AFAF9
:101F580000B908BDFFF7E4FFFBE700BFA4A201201A
:101F680000080C4210B5A6B004469422002101A82E
:101F780012F07FFF2268124B9A4201D026B010BDA2
:101F88004FF4802301930023209301A806F04AFF11
:101F980090B90C4BDA6C42F48022DA64DB6C03F4FF
:101FA80080230093009B002211465E2005F000F973
:101FB8005E2005F031F9E1E7FFF7B2FFE9E700BF7E
:101FC80000080C42001002402DE9F04180460F46FF
:101FD800264CA668264D00224146284607F04AFDB1
:101FE80000223946284607F01FFDA368B342EFD107
:101FF80098F8032040F2B55303FB02F303339C081F
:1020080012F0030F2FD11B4A98F801000138C0EBDA
:10201800001300EB8303013303EBD371430022FA6F
:1020280003F303F00303C3EB6103234498F802208E
:102038001344013BB87839787A78C2EB02129200DF
:102048004FF4616404FB012202440B4901FB0323A2
:10205800990D98027B68C3F57F730333C01841F16B
:102068000001BDE8F081054ACEE700BF0028004026
:10207800988601205055440080510100A0AA99007B
:1020880000B58BB028220021684612F0F2FE2D48D8
:102098002D4B0360002343607F228260FF22C260D1
:1020A8000361436183614FF08042C261036207F0BC
:1020B800C7FA002834D100238DF800308DF801309C
:1020C8008DF80230019305930693079301228DF84A
:1020D80020204FF48073099369461A4807F010FCD2
:1020E80008BB4FF40073099301226946154807F0AD
:1020F80007FCD8B900221146124807F0DBFCC0B92A
:1021080000231A4619460F4807F01EFDA0B94FF4E0
:1021180000210C4807F094FD88B90BB05DF804FB6A
:10212800FFF7FEFEC7E7FFF7FBFEDAE7FFF7F8FE6B
:10213800E0E7FFF7F5FEE3E7FFF7F2FEE7E7FFF773
:10214800EFFEEAE7C8A201200028004010B5A6B0BB
:1021580004469422002101A812F08BFE2268154B38
:102168009A4201D026B010BD4FF4003301934FF4CA
:102178000073259301A806F055FEC0B90E4BD3F89D
:10218800902042F40042C3F890209A6D42F4806295
:102198009A659B6D03F480630093009B00221146AF
:1021A800022005F005F8022005F036F8DAE7FFF717
:1021B800B7FEE3E7002800400010024008B50268B7
:1021C800094B9A4200D008BD03F5F433D3F89020A8
:1021D80022F40042C3F890209A6D22F480629A6536
:1021E800022005F027F8EEE70028004010B5044C5F
:1021F800211D04F11800FFF7E7FE206010BD00BFA5
:1022080010870120294B1B7803B1704770B586B041
:10221800274AD2F8903043F40043C2F89030254D55
:10222800254B2B6000246C601F23AB6040F2FF330A
:10223800EB602C61AC614FF08043EB61284607F0FE
:10224800FFF98DF8174001268DF815608DF8166096
:102258008DF81460224605A9284607F0FDFA8DF886
:1022680000408DF801408DF8024001948DF803403C
:102278000494039422466946284607F089FA2846BA
:1022880007F006FD22463146022004F091FF0220A5
:1022980004F0C2FF4FF48071284607F025F9FFF7D4
:1022A800A5FF024B1E7006B070BD00BF0C87012051
:1022B800001002409886012000280040014B186851
:1022C800704700BF108701200320704708B50146FA
:1022D8007D220023C001490EFEF7B6FC08BD810A25
:1022E800C0F309034FF47A7000FB03F39B0A00FB69
:1022F8000130704708B54FF48071034807F0F4F8CF
:10230800024B0122DA6508BD9886012000280040AA
:10231800F0B587B00446494F01AD3E1D0FCE0FC53D
:10232800BB690093FFF7E6FFBDF80830C3F57F737C
:102338000333C4F3090212FA83F39BB2A00A9DF88F
:1023480002503F4A904206D9A0F5A830A0F5C070C7
:102358006A1C95B2F5E79DF80410B0F5616F04D3D7
:10236800A0F56160013189B2F7E79DF8054002E008
:102378003C380134A4B23B28FAD89DF8062012FA5A
:1023880080F080B204E0A3F580639BB2013080B294
:10239800B3F5806FF7D23B2808D93C3880B20134B6
:1023A800A4B2F8E73C3CA4B2013189B23B2CF9D87D
:1023B80003E0183989B26A1C95B21729F9D89DF833
:1023C800032012F0030F2AD19DF80120013A1D4E77
:1023D800B25C96B2AE4204D295FBF2F602FB1652FC
:1023E80095B2C3F57F730333174E73604FF02063C4
:1023F800B361B0707470317086F820509DF8073062
:10240800F3700022F26172614FF480737362F260BC
:10241800326131460D4807F073FA07B0F0BD9DF8F8
:102428000120013A0A4EB25C96B2AE42D9D295FB6F
:10243800F2F602FB165295B2D3E700BF10870120CF
:102448007F510100F49A05087086012098860120C2
:10245800E89A050800B587B001A96846FFF7B4FDFA
:1024680007B05DF804FB000000B587B001A9684615
:10247800FFF7AAFD024B1B68C01A07B05DF804FB02
:102488001087012070B50646114BB3F9004003349C
:10249800E517FFF7E9FF321A0023944275EB0303AF
:1024A8000BDA00210420FFF791FAFFF7A5FA0128BB
:1024B80008D03046FFF72CFF70BD01210420FFF73C
:1024C80085FAF2E7024BB3F90030F61AF1E700BFDC
:1024D8006C86012030B587B0054601A96846FFF72C
:1024E80073FD840A44EA8154C0F30900FFF7F7FE3C
:1024F8002880204607B030BD08B500F0E7FD08BDCC
:1025080038B502460C46054D0021284607F0EEFB7B
:1025180022460121284607F0E9FB38BD98860120AC
:1025280070B505460C46064E0021304607F0E5FB1F
:1025380028600121304607F0E0FB206070BD00BF35
:102548009886012008B51148114B03604FF4827337
:1025580043604FF4806383604FF4E063C3600023FB
:10256800036143614FF4007282610822C261036211
:10257800436283620722C2620363436307F01EFD5E
:1025880000B908BDFFF7CCFCFBE700BFC8A30120DA
:102598000030014008B51048104B03604FF48273B7
:1025A8004360002383604FF4E062C26003614361CB
:1025B8004FF4007282610822C2610362436283623F
:1025C8000722C2620363436307F0F8FC00B908BD41
:1025D800FFF7A6FCFBE700BF3CA30120003C00403E
:1025E80010B58AB0002305930693079308930993BF
:1025F80003682D4A934204D02C4A93422AD00AB049
:1026080010BD2B4B1A6E42F480521A661A6E02F4F1
:1026180080520192019ADA6C42F00102DA64DB6CB2
:1026280003F001030293029B6023059302230693A0
:102638000024079408940523099305A91D4805F06B
:102648002BF8224621463B2004F0B2FD3B2004F043
:10265800E3FDD4E7164B9A6D42F400429A659A6DF1
:1026680002F400420392039ADA6C42F00402DA643C
:10267800DB6C03F004030493049B4FF4E0530593CD
:10268800022306930024079408940623099305A9B6
:10269800094805F001F822462146632004F088FD28
:1026A800632004F0B9FDAAE700300140003C004077
:1026B800001002400000024200080242F0B49DF9F6
:1026C80010500478224E8C2707FB04640026A6606D
:1026D80008292DD001781E4C8C2606FB01414FF4A9
:1026E8007064CC6006781A498C2404FB06163261A3
:1026F800027804FB02125361037804FB03130022DF
:102708001A62037804FB03135A62037804FB031369
:102718009A62037804FB03110723CB6285B9037817
:102728000B4A04FB03234FF482725A60F0BC7047D3
:102738000178074C07FB01414FF4E064CC60D1E716
:102748000378034A8C2101FB032300225A60EDE73A
:102758002C8701200E4B1A6800238A4203D90133C3
:102768005208062BF9D913F0040200D0202213F0E6
:10277800020100D010210A4313F0010300D00823FE
:102788001343027803498C2000FB0212D36170477F
:10279800608001202C8701202DE9F04F8BB0054681
:1027A8000C4611461A46BDF85490BDF85C80BDF839
:1027B80064300593EFF3108772B60470002C61D073
:1027C800012C00F0AB807B48836B43F400438363A8
:1027D800836B23F400438363836D43F40043836571
:1027E800836D03F400430993099B8C2303FB04F3D3
:1027F8007148724EC6504FF0060ACDF808A0002660
:10280800019600960223281DFEF75AFFCDF808A06E
:102818000196009602234A46149905F11800FEF71E
:102828004FFFCDF808A0019600960223424616995C
:1028380005F12C00FEF744FFCDF808A00123019311
:1028480000960223059A189905F14000FEF738FF13
:1028580059498C2303FB04144FF40073A36100222D
:102868000092134608212846FFF728FF54492846B6
:10287800FFF770FF204607F0A1FB87F310880BB025
:10288800BDE8F08F4B48036C43F480530364036C3A
:1028980023F480530364036E43F480530366036E8A
:1028A80003F480530793079B8C2303FB04F34248EC
:1028B800444EC6504FF0050BCDF808B002260196DD
:1028C8004FF0000ACDF800A03346281DFEF7F8FEA9
:1028D800CDF808B00196CDF800A033464A461499C1
:1028E80005F11800FEF7ECFECDF808B00196CDF81A
:1028F80000A033464246169905F12C00FEF7E0FE8B
:10290800CDF808B001230193CDF800A03346059A0D
:10291800189905F14000FEF7D3FE99E7254B986B0F
:1029280040F480409863986B20F480409863986DD9
:1029380040F4804098659B6D03F480430893089B9E
:102948008C2303FB04F31C481F4EC6504FF0050AA6
:10295800CDF808A0022601964FF0000BCDF800B084
:102968003346281DFEF7ACFECDF808A00196CDF839
:1029780000B033464A46149905F11800FEF7A0FE48
:10298800CDF808A00196CDF800B033464246169916
:1029980005F12C00FEF794FECDF808A00123019361
:1029A800CDF800B03346059A189905F14000FEF7B6
:1029B80087FE4DE7001002402C870120003C0040B4
:1029C80080969800003001400038004070B586B00D
:1029D800ADF80E1000238DF8173003780F4C8C25B6
:1029E80005FB03F3E258136843F040031360EFF369
:1029F800108672B600784FF0FF33009301230DF173
:102A080017020DF10E0105FB004007F071FB86F37C
:102A180010889DF8170006B070BD00BF2C870120F4
:102A280000B583B00E4B1A6E42F001021A661A6E98
:102A380002F001020092009A9A6D42F080529A6563
:102A48009B6D03F080530193019B002211465F2088
:102A580004F0AEFB5F2004F0DFFB03B05DF804FB7D
:102A68000010024000B589B001460022312004F070
:102A78009FFB312004F0D0FB144B9A6D42F01002FA
:102A88009A659B6D03F010030193019B02A903A8AB
:102A980006F0A8F806F086F80D4BA3FB00239B0C64
:102AA800013B0C480C4A026040F2E732C2604360C6
:102AB80000230361836007F0C5FF18B1012009B046
:102AC8005DF804FB034807F0EFFDF8E7001002404B
:102AD80083DE1B4354A4012000100040FEE7FEE7FC
:102AE800704770477047000010B5054C204606F047
:102AF80027FD204607F014F8204607F08DF810BD92
:102B0800C8A2012008B5024804F029FD08BD00BF8D
:102B18004CB0012008B5024804F021FD08BD00BFF3
:102B2800E4AF012008B5034803F054FD024803F060
:102B380051FD08BD2CA1012098A0012008B502482C
:102B480007F0F8FD08BD00BF10A5012008B5024830
:102B580007F0F0FD08BD00BF10A5012008B5024828
:102B680007F0E8FD08BD00BF10A5012008B5024820
:102B780007F0E0FD08BD00BF10A5012008B5024818
:102B880007F0D8FD08BD00BF54A4012008B50248CD
:102B980005F046FE08BD00BF28A2012008B502487E
:102BA80005F046FE08BD00BF28A2012008B502486E
:102BB80007F0DEFC08BD00BFC8A3012008B5024825
:102BC80008F09EF808BD00BF40A6012008B50248DD
:102BD80008F096F808BD00BF3CAF012008B50248D0
:102BE80004F0BDFC08BD00BFD8A5012008B5024807
:102BF80004F0B5FC08BD00BFD4AE012008B50248FA
:102C080004F0ADFC08BD00BFC0A1012008B5024812
:102C180006F02CFC08BD00BFA4A2012070470000EC
:102C280008B5024807F0A4FC08BD00BF3CA301207A
:102C38000120704708B512F0E5F8162303604FF03D
:102C4800FF3008BD08B54FF0FF31FFF7F3FFFEE78F
:102C580070B50C4616460025B54207DA00E000BFFD
:102C6800214601F8010B01350C46F5E7304670BDE9
:102C780070B50C4616460025B54205DA14F8010B66
:102C880002F03EF80135F7E7304670BD4FF0FF30EF
:102C980070474FF400534B60002070470120704785
:102CA8000020704710B503460C4A0D490D480068CE
:102CB80040B10C4800680344521A934206D8094AA6
:102CC800136010BD0748084C0460F2E712F09AF848
:102CD8000C2303604FF0FF30F3E700BF0000032030
:102CE80000040000D088012048B50120704700008A
:102CF80008B516F089FE014B186008BD60800120F8
:102D080082B082B00DF1080C0CE906000393009A1A
:102D180013440360BDF80420BDF810100A4491B2B2
:102D280012B28280B2F57A7F04DB01330360A1F529
:102D38007A71818002B002B0704782B082B00DF122
:102D4800080C0CE906000393009AD31A0360BDF837
:102D58000420BDF81010521A91B212B28280002AD3
:102D680002DB02B002B07047013B036001F57A71E3
:102D78008180F6E710B588B002AC84E80300002330
:102D88000493ADF8143005A8FFF7A4FB034604909C
:102D9800059A009294E8060006A8FFF7CEFFBDF951
:102DA8001C100698FFF7ACFB08B010BD10B588B032
:102DB800044600230693ADF81C3007A8FFF78AFBEA
:102DC800069004A905A8FFF7ABFB059B0293BDF984
:102DD8001030ADF80C30079B0093069B039A0299BC
:102DE8002046FFF78DFF204608B010BD30B583B0F0
:102DF800044600230093ADF804306D4601A8FFF7A0
:102E080069FB009095E8030084E80300204603B0BE
:102E180030BD10B58AB002AC84E8030008A909A83F
:102E2800FFF77EFBBDF92030ADF81C30079B0093FF
:102E3800099B94E8060004A8FFF77FFFBDF914304A
:102E4800049A4FF47A7000FB02300AB010BD0000FB
:102E580010B588B00446104BA3FB01239B090793C8
:102E68004FF47A7202FB131106910493ADF8141013
:102E780006A907A8FFF754FBBDF91830ADF80C30C8
:102E8800039B0093079B059A04992046FFF738FF98
:102E9800204608B010BD00BFD34D621000B58DB0FC
:102EA80000230093019302931548164A0260436079
:102EB80083604FF6FF72C260036143618361012240
:102EC80003920493059206930793089309920A9331
:102ED8000B9303A907F0F0FD58B900230093019361
:102EE80002936946064807F049FE28B90DB05DF817
:102EF80004FBFFF715F8F0E7FFF712F8F6E700BF55
:102F080010A50120002C014010B588B000230393C0
:102F180004930593069307930268244B9A4201D0C1
:102F280008B010BD03F564431A6E42F400621A66D5
:102F38001A6E02F400620192019ADA6C42F01002F1
:102F4800DA64DB6C03F010030293029B4FF42063F6
:102F58000393022304930024059406940123079302
:102F680003A9134804F098FB22462146292004F0BF
:102F78001FF9292004F050F9224621462A2004F09E
:102F880017F92A2004F048F9224621462B2004F09C
:102F98000FF92B2004F040F9224621462C2004F09A
:102FA80007F92C2004F038F9BAE700BF002C0140DB
:102FB800001002420D4B1A685369516991B110B45F
:102FC800046819688C4208D91A465B695169002956
:102FD800F6D150610023436101E0506143615DF81F
:102FE800044B70475061002343617047D488012027
:102FF800054B1B681BB1834203D05B69FAE70020CD
:1030080070470120704700BFD488012070B504467E
:10301800FFF75AF90546012363722668FFF724FA79
:103028002844864203D32068FFF72CFA70BDFFF7C7
:103038001BFA05442560F6E708B5054B1B680BB17C
:1030480000225A724361024B1860FFF7DFFF08BD88
:10305800D488012000230360436003724372C16077
:10306800036143617047000038B5EFF3108572B60D
:10307800E0B10446FFF7BCFFC0B9636823600123D1
:10308800237200236372104B1B6893B1FFF7ECF9AE
:103098002368184420600C4B1B681B6898420ED2AA
:1030A8002046FFF7C9FF85F3108801E085F31088F3
:1030B80038BDFFF79BF82046FFF7BEFFF3E7204631
:1030C800FFF778FFEFE700BFD4880120F8B5FFF7D6
:1030D800F5F80446FFF78AF8071B1C4B1B686BB111
:1030E800194602E00025156049694A6932B1156838
:1030F800BD42F7D9261A35441560F5E743B1596939
:10310800124A116000221A72DA68A2B1186990474F
:103118000E4B1B688BB11C68FFF7A6F984420CD2D2
:103128000A4A13685969116000221A72DA681AB1DA
:1031380018699047ECE7FEE7FEE7044B186808B10A
:10314800437A03B1F8BDFFF761FFFBE7D48801209C
:1031580010B5EFF3108472B61A4B1A685AB150B111
:1031680000230372824209D0134623B383421FD03F
:103178001A465B69F9E784F310881EE0537A73B145
:1031880000235372506920B10E4B1860FFF73EFFC1
:1031980011E0FFF7AFF80B4B00221A600BE0536900
:1031A80013B1084A136006E0064B00221A6002E0D9
:1031B8005B691BB1536184F3108810BD0023536110
:1031C800F9E700BFD488012038B504460846FFF760
:1031D8007DF805462046FFF7BBFFFFF775F88542E7
:1031E80000D328462060606038BD08B5FFF732F983
:1031F800FFF775F808BD38B5044608B9204638BD4C
:10320800FFF728F905462046FFF760F8281AFFF768
:1032180066F80446F2E7000008B54FF480621E49DC
:103228001E48FEF7A5F84FF480621D491D48FEF7B9
:103238009FF81D481D4B03601D4B436000238360AE
:10324800C36003610C22426183610362436283624B
:10325800436608F031FA98B90021134808F01AFBC0
:1032680088B90021104808F03AFB78B90E4808F0F0
:10327800F2FA70B901220F490B4808F095FA08BD17
:10328800FEF74EFEE8E7FEF74BFEEAE7FEF748FEDC
:10329800ECE7FEF745FEEDE7D0AA0120D8AF012004
:1032A800D0A60120B8B001203CAF0120008000402A
:1032B80024330300D0AE012008B51A481A4B036026
:1032C8004FF4E133436000238360C36003610C2241
:1032D80042618361C36103624362836208F0ECF96F
:1032E80098B900210F4808F0D5FA88B900210D488F
:1032F80008F0F5FA78B90B4808F0ADFA70B9012270
:103308000A49084808F050FA08BDFEF709FEE8E740
:10331800FEF706FEEAE7FEF703FEECE7FEF700FE1F
:10332800EDE700BF40A6012000480040B4B00120EE
:1033380030B5AFB00446002129912A912B912C91E8
:103348002D91942204A811F094FD2368784A9342A1
:1033580004D0784A934276D02FB030BD202304930E
:103368000023169304A805F05DFD00285CD1724B7C
:10337800DA6D42F00102DA65DA6D02F001020092BC
:10338800009ADA6C42F00202DA64DB6C03F00203A2
:103398000193019B4FF44063299302232A9300254C
:1033A8002B952C9508232D9329A9644804F074F9CA
:1033B8006348644B0360232343608560C5608023B2
:1033C800036145618561C561056203F0A3FF0028BB
:1033D8002DD110215A4804F04CF958BB584BE367DB
:1033E8009C625948594B036024234360102383602F
:1033F8000023C3608022026143618361C361036269
:1034080003F088FFC8B910214F4804F032F9B8B961
:103418004D4BA3679C6200221146422003F0C8FE70
:10342800422003F0F9FE97E7FEF77AFD9FE7FEF7E3
:1034380077FDCEE7FEF774FDD0E7FEF771FDE2E712
:10344800FEF76EFDE4E7042304930023139304A816
:1034580005F0E8FC00285BD1374B9A6D42F48022D6
:103468009A659A6D02F480220292029ADA6C42F00E
:103478000402DA64DB6C03F004030393039B302338
:10348800299302232A9300252B952C9507232D9306
:1034980029A92F4804F000F92E482F4B03601D235B
:1034A80043608560C5608023036145618561C561AE
:1034B800056203F02FFF00282DD11021254804F0C4
:1034C800D8F858BB234BE3679C622448244B03601D
:1034D8001E234360102383600023C360802202619F
:1034E80043618361C361036203F014FFC8B910210B
:1034F8001A4804F0BEF8B8B9184BA3679C620022BA
:1035080011463F2003F054FE3F2003F085FE23E7D9
:10351800FEF706FDA0E7FEF703FDCEE7FEF700FD88
:10352800D0E7FEF7FDFCE2E7FEF7FAFCE4E700BFB0
:1035380000800040004800400010024000040242A1
:103548004CB0012058000240E4AF01206C0002405A
:1035580000080242D8A501201C040240D4AE012074
:103568003004024008B50368094A934203D0094A67
:10357800934206D008BD084B19780848FDF7FEFEAF
:10358800F8E7074B19780748FDF7F8FEF2E700BFA0
:103598000080004000480040D0AE0120B8B00120B3
:1035A800B4B00120CCAF012038B50C46EFF310853C
:1035B80072B60848FDF7F6FE18B185F310880120A9
:1035C80038BD0448FDF7E4FE207085F3108800201C
:1035D800F6E700BFB8B0012008B5024B1B68984752
:1035E80008BD00BFD8880120DFF834D0FFF77EFB84
:1035F800002103E00B4B5B58435004310A480B4B46
:1036080042189A42F6D30A4A02E0002342F8043BE1
:10361800084B9A42F9D311F0FBFBFEF7A3FBFEE738
:10362800000003205CAF050800800120948401207D
:103638009484012044B50120FEE7704710B582B09C
:10364800044600238DF8073001F034FF2378032B5C
:1036580006D8DFE803F002191D21FF238DF8073093
:1036680001226B210DF1070001F01CFF9DF80730C6
:1036780023F007038DF8073001226C210DF10700B4
:1036880001F010FF02B010BD10238DF80730E7E7F6
:1036980040238DF80730E3E701238DF80730DFE793
:1036A80000B583B08DF8070001226B210DF10700EA
:1036B80001F0F8FE03B05DF804FB00B583B001F03B
:1036C800F9FE012275210DF1070001F011FF9DF8A7
:1036D800070003B05DF804FB00B583B001226B213D
:1036E8000DF1070001F004FF9DF8073063F07F0338
:1036F8008DF8073001226B210DF1070001F0D2FE91
:1037080003B05DF804FB10B582B0044600238DF8C1
:1037180007308DF80630012237210DF1070001F03E
:10372800E7FE012238210DF1060001F0E1FE9DF8C7
:103738000730E4B203F080038DF807309DF80600E7
:1037480000F0DF0004438DF80640012237210DF117
:10375800070001F0A7FE012238210DF1060001F053
:10376800A1FE02B010BD00B585B08DF8070001229A
:1037780038210DF10F0001F0BBFE012238210DF1B7
:10378800070001F08FFE05B05DF804FB10B582B0AC
:103798000446012238210DF1070001F0A9FE9DF829
:1037A800073023EA04008DF80700012238210DF1C3
:1037B800070001F077FE02B010BD00B585B08DF8A6
:1037C800070001221A210DF10F0001F091FE0122DC
:1037D8001A210DF1070001F065FE05B05DF804FB44
:1037E80000B585B08DF8070001221B210DF10F00EF
:1037F80001F07EFE01221B210DF1070001F052FEAF
:1038080005B05DF804FB000030B587B0054600241C
:103818000494ADF814400294ADF80C408DF80740BC
:1038280001221B210DF1070001F062FE062243214F
:1038380004A801F05DFE23460FE05A0006A901EB3B
:10384800430111F8080C013206AC224412F8082C86
:1038580002EB002221F8102C0133022BEDDD9DF83C
:10386800073003F01803182B0ED8DFE803F01A0D01
:103878000D0D0D0D0D0D110D0D0D0D0D0D0D140D65
:103888000D0D0D0D0D0D1700DFED116A00231BE066
:10389800DFED106AFAE7DFED106AF7E7DFED0F6A90
:1038A800F4E7DFED0F6AF1E706AA02EB430232F90B
:1038B800102C07EE902A05EB8302F8EEE77A87EEE4
:1038C800A67A82ED007A0133022BEDDD07B030BD18
:1038D800000000000000034400008343000003438D
:1038E800000080448C2874D8DFE800F04775494B05
:1038F8004D4F51535573737373737373737373733A
:10390800737373737373737373737373737373737F
:10391800737373737373737373737373737373736F
:10392800737373737373737373737373737373735F
:10393800737373737373737373737373737373734F
:10394800737373737373737373737373737373733F
:10395800737373737373737373737373737373732F
:10396800737373737373737373737357595B5D5F97
:1039780061636567696B6D6F71000320704705208F
:103988007047042070470D2070470E2070470F20A5
:1039980070470C2070470B2070470A20704706209C
:1039A8007047122070471620704707207047132071
:1039B8007047172070470820704714207047182058
:1039C80070470920704715207047192070471A2042
:1039D80070471B20704702207047000030B589B03F
:1039E80006238DF81F300023019302930393049359
:1039F800059306930E4D2860182201A911F0C3F90A
:103A08000C4C0DF11F01204601F014FF29682046D7
:103A180002F09AFB29680831204602F0A7FB2968C2
:103A28001031204602F0B4FB9DF81F0009B030BDEC
:103A3800DC880120C8B0012000293FD070B584B0CF
:103A480004460E4606238DF80F30802805D08328BB
:103A580003D0862801D089281BD17F20FFF742FF99
:103A680005462046FFF73EFF034600962A460DF11D
:103A78000F01134801F081FD9DF80F301BB19DF82F
:103A88000F0004B070BD0DF10F010D4801F0BAFE32
:103A9800F5E7FFF727FF024633460DF10F01084807
:103AA80001F03FFD9DF80F3013B19DF80F00E8E7D6
:103AB8000DF10F01024801F0A5FEF6E7022070475C
:103AC800C8B00120F0B5C9B00D4614461E460623FD
:103AD8008DF81F3198B107464FF48872002103A86A
:103AE80011F067F91022394603A811F04CF9224663
:103AF800294607A811F047F91034A4B203AD30469F
:103B0800FFF7F0FE02464E9B019300942B460DF200
:103B18001F11034801F0C3FD9DF81F0149B0F0BD16
:103B2800C8B0012030B587B0039206228DF817205F
:103B380090B10C4605461846FFF7D4FE024603AB83
:103B4800019300942B460DF11701044801F0DDFDA7
:103B58009DF8170007B030BD0220FBE7C8B0012070
:103B680070B584B01C4606238DF80F3090B10D4611
:103B780006468CB11046FFF7B5FE02460194009543
:103B880033460DF10F01054801F002FE9DF80F00C4
:103B980004B070BD0220FBE70220F9E7C8B001209D
:103BA80070B584B006238DF80F30D0B114460646A0
:103BB8000846FFF797FE05462046FFF793FE0346A3
:103BC800094C00962A460DF10F01204601F0D5FC5C
:103BD8000DF10F01204601F015FE9DF80F0004B00D
:103BE80070BD0220FBE700BFC8B001202DE9F04FEF
:103BF8008BB015469DF85040DDF8549006228DF89C
:103C08002720002B6CD006460F469846B9F1000FC6
:103C180068D0169B002B67D0212C67D8FF285DD071
:103C2800032020238DF82430FFF75CFE8246012014
:103C3800FFF758FE034608F10108013CE4B209F118
:103C4800010BCDF810B00394CDF8088009AA0192B1
:103C58000022009252460DF12701254801F0BAFCD6
:103C68009DF827302BB999F80B00C009169B1870DE
:103C780088B300230693079308938DF818600822E9
:103C880039460DF1190011F088F88DF821502D0AE8
:103C98008DF8225020238DF823300220FFF722FED2
:103CA8000346CDF810B00394CDF8088006AA019217
:103CB8000122009252460DF127010D4801F08AFCBD
:103CC8009DF8270028B999F80B30DB09169A13706C
:103CD8000BB99DF827000BB0BDE8F08F0120A0E7D5
:103CE8000220F8E70220F6E70220F4E70520F2E7D1
:103CF800C8B0012040B108B501460822034B186836
:103D080011F041F8002008BD02207047DC8801202E
:103D1800014B1868704700BFDC88012048B108B51E
:103D28000146054B18680822104411F02CF80020B1
:103D380008BD0220704700BFDC880120014B1868CD
:103D480008307047DC88012048B108B50146054BAA
:103D580018680422103011F016F8002008BD02205F
:103D6800704700BFDC880120014B1868103070478D
:103D7800DC88012010B5044604F11400FDF73CFD71
:103D88000128F9D0002010BDF0B585B00546164FC2
:103D980001260296002401940094334604223946F1
:103DA800FDF78EFC0296019400943346324639465C
:103DB80005F17C00FDF784FC0294019400942346ED
:103DC8004FF48042394605F12800FDF779FC02944A
:103DD8000194009423460222394605F11400FDF7A8
:103DE8006FFC05B0F0BD00BF000C024208B5002909
:103DF80005DD162909DC022201F00FFF08BD11F1CB
:103E0800090FF8DA6FF00801F5E71621F3E7052046
:103E1800704708B52830FDF7EFFC08BD10B504461B
:103E28000021FDF741FC0120FDF74AFA0121204657
:103E3800FDF73AFC002010BD90F89000704738B5A7
:103E48000446FFF7F9FF08B107280CD104F17C05F7
:103E580000212846FDF728FC01212846FDF724FC0F
:103E6800012384F890302046FFF784FF38BD2DE900
:103E7800F84F05460E4693461F46BDF82880FFF7C3
:103E8800DEFF20B14FF003094846BDE8F88F8146B0
:103E980005F17C0A00215046FDF706FC002406E0E7
:103EA800315D05F13C00FEF791FD0134A4B25C459B
:103EB800F6D3002406E0395D05F13C00FEF786FDE7
:103EC8000134A4B24445F6D301215046FDF7ECFB7A
:103ED8003278737843EA022340F21B129342D3D01C
:103EE8002846FFF747FF8146CEE72DE9F04705460C
:103EF8008A4691461E46BDF82070FFF7A0FF10B114
:103F08000320BDE8F08705F17C0800214046FDF755
:103F1800CBFB00244C4508D21AF8041005F13C00EC
:103F2800FEF754FD0134A4B2F4E701214046FDF741
:103F3800BBFB2846FFF71EFF00214046FDF7B4FBF8
:103F480005F13C0900214846FEF740FD002406E043
:103F580000214846FEF73AFD30550134A4B2BC4270
:103F6800F6D301214046FDF79FFB2846FFF702FFE5
:103F7800C7E72DE9F04706460D4690461F46FFF76E
:103F88005EFF20B14FF003094846BDE8F08781463F
:103F980006F17C0A00215046FDF786FB002408E064
:103FA800295D06F13C00FEF711FD08F80400013414
:103FB800A4B2BC42F4D301215046FDF775FB2A7820
:103FC8006B7843EA022340F21B129342DCD030465E
:103FD800FFF7D0FE8146D7E780F8901070470000C1
:103FE80030B589B004460D4601F06AFF012120462C
:103FF800FFF7F2FF2B460322012104F12800FDF709
:1040080091FA0025059505AB06AA07A9204601F0F7
:104018005BFF04A9204601F08AFFADF80E500DF1B0
:104028000E01204601F0A4FF204601F0BCFF0F233B
:104038008DF804308DF8055001238DF806300323E0
:104048008DF8073002258DF808508DF8095008239F
:104058008DF80B3004238DF80A300DEB0301204650
:1040680001F0C5FF064B1B6800936946204601F026
:104078000FFE2946204601F01CFD09B030BD00BFE7
:10408800309A05080246B0B1002301E00133DBB2E3
:10409800142B0FD8094951F833109142F6D8591CFE
:1040A800064850F831009042F0D9044B03EBC103A5
:1040B80018797047FEE71F20704700BF5C9B050812
:1040C800012070470138092806D8DFE800F0070DFD
:1040D8001316181A051C0A100020704743F60950D9
:1040E800704745F26110704747F6122070474AF250
:1040F800C32070474FF22440704704487047044873
:1041080070470448704742F6B100704748E801001C
:1041180090D0030020A107009DF80410D20053B9E5
:1041280008200244183241B102239DF800001844C7
:1041380002EBC00070470020F3E70023F5E7F0B476
:104148009DF810609DF8184004324D1F012D2DD99F
:1041580018B9A1F10B05012D30D901282AD0002763
:104168009DF81450ED006CB3102425448800A5EB8D
:1041780081054EB300242C44062903D908340FB115
:10418800881E8000002C21DB0444013C94FBF0F4E1
:1041980002FB043303F10C00062901D803F10E00D9
:1041A8008000013002398840F0BC70470B2BCFD813
:1041B8000C23CDE70C2903D00027D1E70127CFE74F
:1041C8000127CDE70024D0E71424D4E70024DBE757
:1041D800F0B585B00E4615461946BDF828209DF85D
:1041E8002C309DF830709DF834C048B1012812D0A9
:1041F8000125002460190138B0FBF5F005B0F0BDC9
:10420800CDF804C000972846FFF786FF4FF47A746C
:1042180004FB00F4EEE7CDF808C0019700931346BD
:104228000A4629463046FFF78AFF4FF47A7404FBA2
:1042380000F4034B985DFFF745FF0546DAE700BF3A
:10424800589B050808B5034B1B6813B15B6803B19D
:10425800984708BDE488012008B5034B1B6813B1D3
:10426800DB6803B1984708BDE4880120014B0122AF
:104278001A707047E088012010B5054C00212046CF
:1042880001F04FFF01212046FFF7A6FE10BD00BF39
:10429800C8B0012010B5144B1860144C14492046BE
:1042A800FFF79EFE0021204601F03BFF012120463A
:1042B800FFF792FE0021204601F086FE042200212D
:1042C800204601F0AAFC00220A49204601F0B8FE67
:1042D80009490A48FEF7BEFE09490A48FEF7BAFE30
:1042E800094B00221A7010BDE4880120C8B00120D3
:1042F80075420408FC07F8034D42040884B1012004
:1043080061420408A8B20120E088012008B50A48E3
:10431800FFF792FD072805D8052807D2042807D1FA
:10432800022008BD082805D10320FAE70120F8E794
:104338000020F6E70020F4E7C8B0012008B50146E0
:10434800014801F098FB08BDC8B0012000B583B052
:1043580000230193FFF790FF01A9034801F02AFF0A
:10436800019803B05DF804FBC8B0012008B5012826
:1043780005D00D4B93F8AF30012B0AD008BD0B4B7D
:104388001970094880F8B71000F1B40101F021FC58
:10439800F4E7064B1970044880F8B01000F1AA0140
:1043A80001F0EBFBEAE700BFC8B0012098800120CC
:1043B80008B5024801F05FFD08BD00BFC8B0012084
:1043C80070B582B006460C461B4D002240F20441EF
:1043D800284601F035FE0DF10701284601F042FAA2
:1043E8009DF80730022B1FD0134880F8B04000F129
:1043F800AA0101F0C2FB104D22463146284601F0C1
:104408003AFD0021284601F01BFB04212846FFF74E
:10441800E3FD0A4C0A4B19682046FEF7D5FE2046F4
:10442800FEF722FE02B070BD284685F8B74005F1B8
:10443800B40101F0CEFBDEE7C8B0012084B1012051
:10444800F088012030B583B001238DF804300024B2
:104458008DF80540074D22460199284601F039FE9E
:1044680021462846FFF7B8FD0220FCF729FF03B0D4
:1044780030BD00BFC8B0012038B50446164D002233
:104488001649284601F0DCFD0021284601F0A4FC6D
:104498006CB9134B1B789BB10F4C6FF07F412046D2
:1044A80001F0B3FA06212046FFF796FD38BD0D4D01
:1044B80021462846FEF788FE2846FEF7D5FDE8E7A0
:1044C800094B1968044CC903204601F09EFA0521DE
:1044D8002046FFF781FDE9E7C8B00120FC07F80393
:1044E800EA880120A8B20120EC88012038B50446EA
:1044F80000221649164801F0A3FD8CB90121144881
:1045080001F06AFC134B1B789BB1114C6FF07F4193
:10451800204601F07AFA06212046FFF75DFD38BDF6
:104528000D4D21462846FEF74FFE2846FEF79CFD16
:10453800E4E70A4B1968064CC903204601F065FAFE
:1045480005212046FFF748FDE9E700BFFC07F8030F
:10455800C8B00120EA880120A8B20120EC88012017
:1045680010B50A46054C00230146204601F06AFBB7
:1045780007212046FFF730FD10BD00BFC8B001205D
:1045880010B5044C204601F0B3FB08212046FFF784
:1045980023FD10BDC8B0012070B50E464FF47A75E2
:1045A80005FB02F50C4C0146204601F064FA314641
:1045B8002046FFF71BFC204601F0AAFB04212046F9
:1045C800FFF70AFD054C29462046FEF7FDFD20466B
:1045D800FEF74AFD70BD00BFC8B0012084B10120BC
:1045E80000B583B000238DF807300DF107010448AA
:1045F80001F0C0F99DF9070003B05DF804FB00BFA6
:10460800C8B0012000B583B08DF8071001230DF163
:1046180007020146024801F006FC03B05DF804FBFE
:10462800C8B0012000B583B0014600238DF80730DB
:1046380001230DF10702044801F009FC9DF8070069
:1046480003B05DF804FB00BFC8B0012008B51346ED
:10465800C2B2024801F020FC08BD00BFC8B001206A
:1046680010B50446084B18705870012000F010F877
:1046780024B10121054801F0B5F910BD0021034816
:1046880001F0B0F9F9E700BFE8880120C8B00120BF
:1046980008B5012807D00121094801F00AFA094B99
:1046A80000225A7008BD0221054801F002FA054BA4
:1046B8005A7818788242F5D05870FFF7D1FFF1E7A1
:1046C800C8B00120E88801202DE9F04F83B00D46DD
:1046D80016461C46BDF83480BDF838909DF83C70ED
:1046E8009DF844A09DF854306F4A13700BB14FF0F9
:1046F80000094FB19DF840206C4B1A7040B1012859
:1047080072D003B0BDE8F08F684BFF221A70F5E74E
:10471800674C0021204601F0D8FA4FF0010B84F8CD
:1047280094B0C4F898600B2384F89C3005FA0BF019
:10473800FFF7A8FC84F89D0084F8A8B04FEAC808E1
:10474800A4F8AA80042384F8AC30182384F8AD3088
:10475800002384F8AE3087EA0B0784F8AF70534B18
:104768001B7884F8B030BAF1000F38D0062284F8EC
:10477800B1204F4C012384F8B230FFF77DFD94F847
:104788009400013818BF0120FFF782FF04F1980157
:10479800204601F0A1F904F1AA01204601F0EDF943
:1047A800444A6B4692E8030083E803001946204612
:1047B80001F0FBF841F2210241F60F51204601F0C9
:1047C800CAFA40F2FF11204601F0F0FA4FF4FA520B
:1047D80002FB09F9B9FBF6F6374B1E6091E7344B3B
:1047E800012283F8B120C4E7DFF8C4B0002158469D
:1047F80001F06BFA5FFA89F1584601F099FA022341
:104808008BF89430F3B28BF8A4302C4A525D8BF8B5
:10481800A5208BF8A6401DB9A6F10B02012A31D9B3
:10482800012D2DD0224A002182F8A710204A02210A
:1048380082F8A810053BDBB2012B28D91C4BA3F842
:10484800B4801B4C84F8B670184B1B7884F8B730CA
:1048580084F8B8A09DF8503084F8B9300120FFF7EB
:1048680017FF04F1A401204601F06AF904F1B4012C
:10487800204601F0AEF9104B4FF6FF721A6040E780
:104888000C2ECFD10A4A012182F8A710CEE7B8F141
:104898000B0F04D813460C22A3F8B420D1E7044B1D
:1048A800A3F8B480CDE700BFEA88012098800120F2
:1048B800C8B00120349A0508EC880120589B0508E7
:1048C8002DE9F0418AB004460F4616461D460020E1
:1048D800FFF7DEFE2046FFF731FD4FF00108CDF867
:1048E800248000240894079406940594049403945F
:1048F800029403230193009723464FF41672394616
:104908002046FFF7E1FE2046FFF7B6FD4046FCF7DC
:10491800D7FCFEF76AFC04462046FEF76CFCA8426A
:1049280006D20020FFF75CFEB042F5DD002400E06F
:104938000124FFF787FD20460AB0BDE8F08100009A
:104948002DE9F04782B00C46BDF830909DF83470E0
:104958009DF8388058B1012869D021466148FFF791
:1049680045FA129A604B1A6002B0BDE8F087164605
:104978005C4D4FF0010A85F894A00A9AC5F8982072
:104988000B2285F89C2003FA0AF0FFF77BFB85F8D9
:104998009D00C5F8A06085F8A8A04FEAC909A5F848
:1049A800AA90042385F8AC30182385F8AD3000238D
:1049B80085F8AE3087EA0A0785F8AF70B8F1000FBE
:1049C80030D0062285F8B120464D012385F8B23053
:1049D800FFF752FC95F89400013818BF0120FFF743
:1049E80057FE05F19801284601F076F805F1AA016D
:1049F800284601F0C2F83D4A6B4692E8030083E876
:104A080003001946284600F0D0FF41F2210241F682
:104A18000F51284601F09FF940F2FF11284601F096
:104A2800C5F99AE72F4B012283F8B120CCE72D492D
:104A3800022281F894200A9AD2B281F8A4202C4844
:104A4800C05C81F8A5009DF82C0081F8A6001BB970
:104A58000A990B39012934D9012B2FD0214B002178
:104A680083F8A7101F4B022183F8A810053AD2B289
:104A7800012A2BD91B4BA3F8B4901A4D85F8B670B0
:104A88001C4B1B7885F8B73085F8B8809DF8443002
:104A980085F8B930FFF7F0FB95F89400013818BF96
:104AA8000120FFF7F5FD05F1A401284601F048F8BB
:104AB80005F1B401284601F08CF84EE70A9B0C2B4F
:104AC800CCD1084B012183F8A710CBE7B9F10B0F24
:104AD80003D80C22A3F8B420CFE7024BA3F8B49074
:104AE800CBE700BFC8B00120F0880120349A050840
:104AF800589B05089880012008B50248FFF787F9F8
:104B0800033008BDC8B00120F0B583B005460C4697
:104B1800FFF792F9074623466A4601A9284601F09D
:104B2800D3F92168284601F0B6FAEFF3108672B679
:104B38002846FFF76EF901280ED086F310882368FF
:104B480040F204521A420BD1236813F0C80F01D067
:104B5800062F0AD103B0F0BD064B01221A70ECE70C
:104B680001212846FFF738FAEEE701212846FFF72A
:104B780033FAEFE7E0880120594B1B7803B97047F7
:104B880010B584B0EFF3108372B6554A0021117046
:104B980083F3108803A95348FFF7B6FF039B13F06C
:104BA800040F37D1039B13F0080F3FD1039B13F079
:104BB800800F05D04C4B1B6813B11B6903B1984794
:104BC800039810F4807F07D0474B1B6823B19B697B
:104BD80013B1C0F340209847039B13F4806F67D14B
:104BE800039B13F0400F6FD1039B13F4002F05D0E4
:104BF8003D4B1B6813B1DB6903B19847039B13F462
:104C0800801F05D0384B1B6813B11B6A03B1984746
:104C180004B010BD3548FEF79BFA334B1B68002BD8
:104C2800C0D01B68002BBDD09847BBE73048FEF7C3
:104C38008FFA2C4C02A9204600F024FE9DF808307B
:104C48009DF809202B49204601F026F90DF10701AE
:104C5800204600F007FE9DF80730022B13D02649A6
:104C6800204800F029FE204B1B68002B9ED09C6832
:104C7800002C9BD00023204A92F901209DF80810AF
:104C88001C48A04792E71D49204600F049FE164BF4
:104C98001B68002B8AD09C68002C87D0174A92F991
:104CA800013092F900209DF808101248A0477DE7CE
:104CB8000F48FEF74DFA0C4B1B68002B90D0DB68B1
:104CC800002B8DD098478BE70948FEF741FA064B31
:104CD8001B68002B88D0DB68002B85D0984783E7BA
:104CE800E0880120C8B00120E488012084B10120B7
:104CF800A8B20120A8B101209CB10120C4B00120B4
:104D080010B582B00190084B1B7803EBC303180160
:104D18004FF47A73012201A9044C204406F023FCC5
:104D2800019802B010BD00BFF4880120C0B2012074
:104D380010B5022000F0F6FA074C2146022000F0D8
:104D480037FB23880548B0FBF3F0054BA3FB003085
:104D5800C0F3CF0010BD00BFE0B30120387B4C008A
:104D6800CDCCCCCC0120704710B5FFF7E1FF04464D
:104D7800154B1880FFF7F6FF10B340F6B7339C4287
:104D88001DD8A4F661139BB240F2562293420FD865
:104D9800A4F51664C4EB841304EB83040B4880FB6E
:104DA8000430E417C4EBA010C0B20130C0B207E071
:104DB800A4F6FD04A4B2632C03D8012000E0FE2071
:104DC80010BDFF20FCE700BF9A800120B5814E1B73
:104DD800014B1868704700BF9005FA0B08B572B60A
:104DE800FCF73CFE62B608BDEFF3108372B6BFF362
:104DF8004F8F0549CA6802F4E062044B1343CB6045
:104E0800BFF34F8F00BFFDE700ED00E00400FA0597
:104E18002DE9F04F304A02EB5002B2FBF0F02F4B75
:104E28002C2202FB01335A6AD9680A44323A996A39
:104E3800CD1C00FB15251A691C6A121BA2F582728B
:104E4800043101FB10275B6904EB030E002D05DD1F
:104E5800002F05DD00264FF0100836E00025F7E7A3
:104E68000027F7E701320F2A20D802FB01F300FBE5
:104E780003F39D42F6D89F42F4D3B045F2D0DFF851
:104E88006080D8F80030DFF85CA003EB830B0AEBF6
:104E98008B094AF82B60C9F80440C9F80820013387
:104EA800C8F800307F2B14D8B046DBE764460F2CD7
:104EB8000AD804F1010C711C04FB011300FB03F375
:104EC8009E45F3D80022CEE701360F2E01D80024E4
:104ED800EDE7BDE8F08F00BF00CA9A3B789C050853
:104EE80000930120008901202DE9F04F89B08C46FC
:104EF800454B03EB5001B1FBF0FA44482C2202FB6E
:104F08000CF28118825803EB5200B0FBF2F00590C6
:104F18008A6A0AFB02F204924A68B3FBF2FB8A68C7
:104F2800B3FBF2F90390002306934FF0FF33079386
:104F380055E0CA1A20E02846FF282CD8451C00FB5B
:104F4800044242447244BB1830492C2606FB0C111B
:104F58000E6A33444E6A33449945ECD89B45EAD3EC
:104F68002A4E2C2101FB0C61C9699142E3D8924574
:104F7800E1D205995A1ADCD4039B9A42DBD2069EE9
:104F880006EB8601224B03EB810301991961D86076
:104F980003920796CFE7029B0193019BFF2B1BD837
:104FA800049901F1320E019B5A1C029203FB04473B
:104FB8004FEA4A0807EB4A077744144A2C2303FBB5
:104FC8000C239B69BB42E6D2A7F132035B1ABAEB0A
:104FD800930FE0D20020AFE7069B013306930D4BF9
:104FE8001B68069A93420AD9069B03EB8303084A77
:104FF80052F8234004FB0AA400230193CDE7079845
:1050080009B0BDE8F08F00BF00CA9A3B789C05083C
:10501800008901200093012038B5054608B1A9BBD5
:105028000D46284638BD0134022C31D81A4A2C23A3
:1050380003FB04235B688B42F5D82C2303FB042372
:105048009B688B42EFD321462846FFF7E1FE2146B5
:105058002846FFF749FF7F281CD8104A00EB800339
:1050680002EB830152F823404B681D0505F47005D7
:1050780045EA04758B681B0403F470231D43CB6851
:105088001B029BB21D430B7C1D43CAE70024CBE7E0
:105098000025C6E70025C4E7789C0508008901209B
:1050A80010B584B042F210740294BDF8184001940F
:1050B800009313460A460146124803F005FA10B950
:1050C800002004B010BD0F4803F0EAFB10F0010FF8
:1050D8000BD110F0020F0BD110F0040F0BD110F010
:1050E800600F0BD06FF06300EBE76FF06600E8E746
:1050F8006FF06400E5E76FF06500E2E76FF003002A
:10510800DFE700BF0493012010B584B042F21074A9
:105118000294BDF818400194009313460A460146CC
:10512800124803F0A5FA10B9002004B010BD0F48CA
:1051380003F0B6FB10F0010F0BD110F0020F0BD1EA
:1051480010F0040F0BD110F0600F0BD06FF063005C
:10515800EBE76FF06600E8E76FF06400E5E76FF0F3
:105168006500E2E76FF00300DFE700BF049301206A
:1051780010B5084C4FF48071204602F059FB4FF4EB
:105188000071204602F054FB034A936D23F4001388
:10519800936510BD000402420010024070B588B04B
:1051A8001F4CA36D43F08053A365A36D03F0805398
:1051B8000093009B03F002FCE36C43F00203E364FA
:1051C800E36C03F002030193019B4FF48073039394
:1051D80012230493002305930223069304260796BB
:1051E800104D03A9284602F057FA4FF400730393B1
:1051F800079603A9284602F04FFAA36D43F400135B
:10520800A365A36D03F400130293029BA36B43F4FD
:105218000013A363A36B23F40013A36308B070BD4A
:10522800001002400004024200B583B00093134608
:105238000122FFF735FF03B05DF804FB00B583B02A
:10524800009313460122FFF75FFF03B05DF804FBEC
:1052580008B50D48002380F84130436783670B4A3F
:10526800092103F0C9F848B9094A0A21064803F098
:10527800C3F830B9074B01221A6008BD6FF003006C
:10528800FBE76FF00300F8E704930120A551040839
:1052980079510408F888012008B57C221649174876
:1052A8000FF0DAFD164B1B684BB10020144B1B683E
:1052B800B3F1FF3F02D00133114A136008BD0F4814
:1052C80003F0EBFA98B90F4B1B6813B9FFF7C0FF4F
:1052D80078B90D490D4B1868FFF79EFE014607483F
:1052E800FCF7F0FA0028E1D06FF00700DEE70020B5
:1052F800DCE76FF00900D9E728A201200493012018
:10530800FC880120F8880120A08601006080012027
:1053180008B500221021024802F02BFB002008BD2E
:105328000004024200B587B0A8B91E4801F0C0FDCC
:105338001C4801F0F7FC10F4007F05D14FF47A7196
:10534800184801F0BFF8F3E7164801F070FE002096
:1053580007B05DF804FB144B009306230193002368
:1053680002937F22039204220492059369460F4810
:1053780001F078FA70B90D4801F09AFD0B4801F078
:10538800D1FC10F4007F08D14FF47A71074801F07E
:1053980099F8F3E7FCF7C4FDEDE7044801F047FE90
:1053A800D5E700BF98A00120000084CB2CA10120E4
:1053B80030B583B00C4640B101280BD0134801F03A
:1053C80005F92060002003B030BD114801F0FEF857
:1053D8002060F7E70022ADF804200E4D1021284682
:1053E80002F0C7FA4FF47A73022201A90A4804F0BE
:1053F800EEFF01221021284602F0BBFA9DF8052095
:105408009DF8043043EA02232360DBE72CA1012046
:1054180098A0012000000242C8A3012070B582B004
:10542800144B9B689847922802D0012002B070BDA7
:10543800114D104B2B6003228DF8002000248DF8AD
:1054480001408DF8022002268DF803608DF8044093
:105458008DF8054018228DF806201B686846984785
:105468002B689B6A304698472B68DB6A1B20984755
:105478002046DBE7648001208093012008B5034BB8
:105488001B681B690020984708BD00BF8093012056
:1054980008B5034B1B681B6B03B1984708BD00BFD9
:1054A8008093012008B513460246D220FFF7BCFEC0
:1054B80008BD000000B583B081238DF80730FFF7E1
:1054C800EBFE00220221094802F053FA3220FBF7D2
:1054D800F7FE01226B210DF10700FFF7E3FF6420BF
:1054E800FBF7EEFE03B05DF804FB00BF00100242BC
:1054F80008B513460246D320FFF7A0FE08BD30B416
:10550800BDF808500C0A0470417082700022AA424B
:1055180005D2D11C9C5C4454013292B2F7E730BCEE
:10552800704770B588B00E4600240394049405941F
:105538000694CDF81B408DF8084005218DF80C1015
:1055480002218DF80D108DF80E2022460F2A08D85A
:10555800D41C9D5C08A90C4404F8145C0132D2B236
:10556800F4E70123009302AB132203A9FEF7BDFC65
:105578009DF80830337008B070BD70B588B00E461D
:105588000C9D002404940594069407948DF8084013
:1055980005218DF80C1003218DF80D108DF80E20C3
:1055A8008DF80F3023460F2B08D81A1DEC5C08A97C
:1055B8000A4402F8144C0133DBB2F4E701230093E8
:1055C80002AB142203A9FEF790FC9DF80830337053
:1055D80008B070BD2DE9F04F9BB002908846914607
:1055E80003939DF890B0259F269E9DF89C40289D8A
:1055F8004FF0000A2D2251460EA80FF03AFCCDF8C4
:1056080010A01D22514605A80FF033FCBBF1000F76
:105618001AD1012105238DF8343004238DF8353053
:105628008DF83690039B8DF837308DF838B000230D
:105638008B420BD25A1DF85C0DF1680C624402F8DB
:10564800340C0133DBB2F3E70C21E3E70023A34278
:1056580009D24A1D1A44F05C1AAF3A4402F8340CD5
:105668000133DBB2F3E762180532631C009304AB25
:1056780092B20DA90298FEF738FC9DF8103088F810
:105688000030002306E05A1C1AA9114411F8581CCE
:10569800E954D3B2A342F6D31BB0BDE8F08F2DE98D
:1056A800F047C6B007460E4691469A46BDF83841BF
:1056B800DDF83C8100250595FF22294606A80FF054
:1056C800D8FB03958DF81050009453464A4640F293
:1056D800055105A8FFF713FFE21C0523009303AB50
:1056E80092B205A93846FEF700FC9DF80C303370DD
:1056F80033B107E05A1C03A9895C08F80310D3B238
:10570800032BF7D946B0BDE8F0872DE9F047C6B0BE
:1057180007460E4692461D46BDF83841DDF83C91D5
:105728004FF00008CDF8108040F20312414605A85A
:105738000FF09FFB8DF80C8005238DF810300623A1
:105748008DF811308DF812A0424606E0D31C19F8E6
:10575800020004A9C8540132D2B2032AF6D90022A1
:1057680005E0D31DA85C04A9C854013292B2A24234
:10577800F7D3E21D0123009303AB92B204A9384684
:10578800FEF7B3FB9DF80C30337046B0BDE8F087E8
:105798002DE9F047ADF5047D80460F4691469A46BF
:1057A800BDF830528D9E00244394FF22214644A820
:1057B8000FF05FFB0294FD22214603A80FF059FB6E
:1057C800009553464A4640F2075143A8FFF797FE13
:1057D800EA1C6B1C9BB2009302AB92B243A94046F1
:1057E800FEF783FB9DF808303B702146A94205D29D
:1057F8004B1C02AAD25C725499B2F7E70DF5047DEE
:10580800BDE8F08710B584B00C4600238DF8083049
:1058180005238DF80C300A238DF80D3001230093F1
:1058280002AB022203A9FEF760FB9DF80830237043
:1058380004B010BD10B584B00C4600238DF80830B4
:1058480005238DF80C300B238DF80D3001230093C0
:1058580002AB022203A9FEF748FB9DF8083023702B
:1058680004B010BD00B585B00B4602228DF80C209F
:105878008DF80D200121009103A9FEF736FB05B034
:105888005DF804FB10B584B00C460023ADF8083071
:1058980002228DF80C2003238DF80D30009202AB04
:1058A80003A9FEF722FB28B99DF8083023709DF85C
:1058B8000930637004B010BD10B584B00C460023E5
:1058C800029302228DF80C2004238DF80D300093EA
:1058D80002AB03A9FEF709FB00BB9DF808305B0883
:1058E8005B4223709DF809305B085B4263709DF84A
:1058F8000A30A3709DF80B30C3F34012E270C3F373
:1059080000122271C3F3C0026271C3F38002A27154
:10591800C3F34002E27103F00103237204B010BD27
:1059280010B584B00C46124B1B88ADF80830002324
:105938008DF80A3002228DF80C2004238DF80D30E2
:105948000323009302AB03A9FEF7CFFA70B99DF8C1
:1059580008305B085B4223709DF9093002339B10C5
:1059680063709DF80A305B085B42A37004B010BDF9
:105978003C9A050810B584B00C4600238DF80B300E
:1059880002228DF80C2005238DF80D300123009399
:105998000DF10B0303A9FEF7A8FA20B99DF80B3007
:1059A8005B085B42237004B010BD10B586B00223BB
:1059B8008DF80C3006238DF80D30002308E09A1C72
:1059C800CC5C0DF1180C624402F80C4C0133DBB2CC
:1059D800072BF4D9002300930A2203A9FEF747FAFC
:1059E80006B010BD00B585B002238DF80C30082331
:1059F8008DF80D308DF80E1000230093032203A9B3
:105A0800FEF735FA05B05DF804FB00B585B0022352
:105A18008DF8083009238DF80930C1F307438DF854
:105A28000A30C1F307238DF80B308DF80C100023D2
:105A38000093052202A9FEF71AFA05B05DF804FBE7
:105A480000B585B002238DF808300A238DF8093097
:105A5800C1F307438DF80A30C1F307238DF80B30E3
:105A68008DF80C1000230093052202A9FEF7FFF918
:105A780005B05DF804FB00B585B002238DF8083049
:105A88000B238DF809300B0E8DF80A30C1F307434C
:105A98008DF80B30C1F307238DF80C308DF80D10FD
:105AA80000230093062202A9FEF7E1F905B05DF88C
:105AB80004FB00B585B002238DF80C300E238DF859
:105AC8000D308DF80E1000230093032203A9FEF772
